{"@chainlink/contracts/src/v0.8/vrf/mocks/VRFCoordinatorV2_5Mock.sol":{"VRFCoordinatorV2_5Mock":{"abi":[{"inputs":[{"internalType":"uint96","name":"_baseFee","type":"uint96"},{"internalType":"uint96","name":"_gasPrice","type":"uint96"},{"internalType":"int256","name":"_weiPerUnitLink","type":"int256"}],"stateMutability":"nonpayable","type":"constructor"},{"inputs":[{"internalType":"uint256","name":"internalBalance","type":"uint256"},{"internalType":"uint256","name":"externalBalance","type":"uint256"}],"name":"BalanceInvariantViolated","type":"error"},{"inputs":[],"name":"FailedToSendNative","type":"error"},{"inputs":[],"name":"FailedToTransferLink","type":"error"},{"inputs":[],"name":"IndexOutOfRange","type":"error"},{"inputs":[],"name":"InsufficientBalance","type":"error"},{"inputs":[],"name":"InvalidCalldata","type":"error"},{"inputs":[{"internalType":"uint256","name":"subId","type":"uint256"},{"internalType":"address","name":"consumer","type":"address"}],"name":"InvalidConsumer","type":"error"},{"inputs":[],"name":"InvalidExtraArgsTag","type":"error"},{"inputs":[],"name":"InvalidRandomWords","type":"error"},{"inputs":[],"name":"InvalidRequest","type":"error"},{"inputs":[],"name":"InvalidSubscription","type":"error"},{"inputs":[],"name":"LinkAlreadySet","type":"error"},{"inputs":[],"name":"LinkNotSet","type":"error"},{"inputs":[{"internalType":"address","name":"proposedOwner","type":"address"}],"name":"MustBeRequestedOwner","type":"error"},{"inputs":[{"internalType":"address","name":"owner","type":"address"}],"name":"MustBeSubOwner","type":"error"},{"inputs":[],"name":"NotImplemented","type":"error"},{"inputs":[],"name":"OnlyCallableFromLink","type":"error"},{"inputs":[],"name":"PendingRequestExists","type":"error"},{"inputs":[],"name":"Reentrant","type":"error"},{"inputs":[],"name":"TooManyConsumers","type":"error"},{"anonymous":false,"inputs":[],"name":"ConfigSet","type":"event"},{"anonymous":false,"inputs":[{"indexed":false,"internalType":"address","name":"to","type":"address"},{"indexed":false,"internalType":"uint256","name":"amount","type":"uint256"}],"name":"FundsRecovered","type":"event"},{"anonymous":false,"inputs":[{"indexed":false,"internalType":"address","name":"to","type":"address"},{"indexed":false,"internalType":"uint256","name":"amount","type":"uint256"}],"name":"NativeFundsRecovered","type":"event"},{"anonymous":false,"inputs":[{"indexed":true,"internalType":"address","name":"from","type":"address"},{"indexed":true,"internalType":"address","name":"to","type":"address"}],"name":"OwnershipTransferRequested","type":"event"},{"anonymous":false,"inputs":[{"indexed":true,"internalType":"address","name":"from","type":"address"},{"indexed":true,"internalType":"address","name":"to","type":"address"}],"name":"OwnershipTransferred","type":"event"},{"anonymous":false,"inputs":[{"indexed":true,"internalType":"uint256","name":"requestId","type":"uint256"},{"indexed":false,"internalType":"uint256","name":"outputSeed","type":"uint256"},{"indexed":true,"internalType":"uint256","name":"subId","type":"uint256"},{"indexed":false,"internalType":"uint96","name":"payment","type":"uint96"},{"indexed":false,"internalType":"bool","name":"nativePayment","type":"bool"},{"indexed":false,"internalType":"bool","name":"success","type":"bool"},{"indexed":false,"internalType":"bool","name":"onlyPremium","type":"bool"}],"name":"RandomWordsFulfilled","type":"event"},{"anonymous":false,"inputs":[{"indexed":true,"internalType":"bytes32","name":"keyHash","type":"bytes32"},{"indexed":false,"internalType":"uint256","name":"requestId","type":"uint256"},{"indexed":false,"internalType":"uint256","name":"preSeed","type":"uint256"},{"indexed":true,"internalType":"uint256","name":"subId","type":"uint256"},{"indexed":false,"internalType":"uint16","name":"minimumRequestConfirmations","type":"uint16"},{"indexed":false,"internalType":"uint32","name":"callbackGasLimit","type":"uint32"},{"indexed":false,"internalType":"uint32","name":"numWords","type":"uint32"},{"indexed":false,"internalType":"bytes","name":"extraArgs","type":"bytes"},{"indexed":true,"internalType":"address","name":"sender","type":"address"}],"name":"RandomWordsRequested","type":"event"},{"anonymous":false,"inputs":[{"indexed":true,"internalType":"uint256","name":"subId","type":"uint256"},{"indexed":false,"internalType":"address","name":"to","type":"address"},{"indexed":false,"internalType":"uint256","name":"amountLink","type":"uint256"},{"indexed":false,"internalType":"uint256","name":"amountNative","type":"uint256"}],"name":"SubscriptionCanceled","type":"event"},{"anonymous":false,"inputs":[{"indexed":true,"internalType":"uint256","name":"subId","type":"uint256"},{"indexed":false,"internalType":"address","name":"consumer","type":"address"}],"name":"SubscriptionConsumerAdded","type":"event"},{"anonymous":false,"inputs":[{"indexed":true,"internalType":"uint256","name":"subId","type":"uint256"},{"indexed":false,"internalType":"address","name":"consumer","type":"address"}],"name":"SubscriptionConsumerRemoved","type":"event"},{"anonymous":false,"inputs":[{"indexed":true,"internalType":"uint256","name":"subId","type":"uint256"},{"indexed":false,"internalType":"address","name":"owner","type":"address"}],"name":"SubscriptionCreated","type":"event"},{"anonymous":false,"inputs":[{"indexed":true,"internalType":"uint256","name":"subId","type":"uint256"},{"indexed":false,"internalType":"uint256","name":"oldBalance","type":"uint256"},{"indexed":false,"internalType":"uint256","name":"newBalance","type":"uint256"}],"name":"SubscriptionFunded","type":"event"},{"anonymous":false,"inputs":[{"indexed":true,"internalType":"uint256","name":"subId","type":"uint256"},{"indexed":false,"internalType":"uint256","name":"oldNativeBalance","type":"uint256"},{"indexed":false,"internalType":"uint256","name":"newNativeBalance","type":"uint256"}],"name":"SubscriptionFundedWithNative","type":"event"},{"anonymous":false,"inputs":[{"indexed":true,"internalType":"uint256","name":"subId","type":"uint256"},{"indexed":false,"internalType":"address","name":"from","type":"address"},{"indexed":false,"internalType":"address","name":"to","type":"address"}],"name":"SubscriptionOwnerTransferRequested","type":"event"},{"anonymous":false,"inputs":[{"indexed":true,"internalType":"uint256","name":"subId","type":"uint256"},{"indexed":false,"internalType":"address","name":"from","type":"address"},{"indexed":false,"internalType":"address","name":"to","type":"address"}],"name":"SubscriptionOwnerTransferred","type":"event"},{"inputs":[],"name":"LINK","outputs":[{"internalType":"contract LinkTokenInterface","name":"","type":"address"}],"stateMutability":"view","type":"function"},{"inputs":[],"name":"LINK_NATIVE_FEED","outputs":[{"internalType":"contract AggregatorV3Interface","name":"","type":"address"}],"stateMutability":"view","type":"function"},{"inputs":[],"name":"MAX_CONSUMERS","outputs":[{"internalType":"uint16","name":"","type":"uint16"}],"stateMutability":"view","type":"function"},{"inputs":[],"name":"acceptOwnership","outputs":[],"stateMutability":"nonpayable","type":"function"},{"inputs":[{"internalType":"uint256","name":"subId","type":"uint256"}],"name":"acceptSubscriptionOwnerTransfer","outputs":[],"stateMutability":"nonpayable","type":"function"},{"inputs":[{"internalType":"uint256","name":"subId","type":"uint256"},{"internalType":"address","name":"consumer","type":"address"}],"name":"addConsumer","outputs":[],"stateMutability":"nonpayable","type":"function"},{"inputs":[{"internalType":"uint256","name":"_subId","type":"uint256"},{"internalType":"address","name":"_to","type":"address"}],"name":"cancelSubscription","outputs":[],"stateMutability":"nonpayable","type":"function"},{"inputs":[{"internalType":"uint256","name":"_subId","type":"uint256"},{"internalType":"address","name":"_consumer","type":"address"}],"name":"consumerIsAdded","outputs":[{"internalType":"bool","name":"","type":"bool"}],"stateMutability":"view","type":"function"},{"inputs":[],"name":"createSubscription","outputs":[{"internalType":"uint256","name":"subId","type":"uint256"}],"stateMutability":"nonpayable","type":"function"},{"inputs":[{"internalType":"uint256","name":"_requestId","type":"uint256"},{"internalType":"address","name":"_consumer","type":"address"}],"name":"fulfillRandomWords","outputs":[],"stateMutability":"nonpayable","type":"function"},{"inputs":[{"internalType":"uint256","name":"_requestId","type":"uint256"},{"internalType":"address","name":"_consumer","type":"address"},{"internalType":"uint256[]","name":"_words","type":"uint256[]"}],"name":"fulfillRandomWordsWithOverride","outputs":[],"stateMutability":"nonpayable","type":"function"},{"inputs":[{"internalType":"uint256","name":"_subId","type":"uint256"},{"internalType":"uint256","name":"_amount","type":"uint256"}],"name":"fundSubscription","outputs":[],"stateMutability":"nonpayable","type":"function"},{"inputs":[{"internalType":"uint256","name":"subId","type":"uint256"}],"name":"fundSubscriptionWithNative","outputs":[],"stateMutability":"payable","type":"function"},{"inputs":[{"internalType":"uint256","name":"startIndex","type":"uint256"},{"internalType":"uint256","name":"maxCount","type":"uint256"}],"name":"getActiveSubscriptionIds","outputs":[{"internalType":"uint256[]","name":"ids","type":"uint256[]"}],"stateMutability":"view","type":"function"},{"inputs":[{"internalType":"uint256","name":"subId","type":"uint256"}],"name":"getSubscription","outputs":[{"internalType":"uint96","name":"balance","type":"uint96"},{"internalType":"uint96","name":"nativeBalance","type":"uint96"},{"internalType":"uint64","name":"reqCount","type":"uint64"},{"internalType":"address","name":"subOwner","type":"address"},{"internalType":"address[]","name":"consumers","type":"address[]"}],"stateMutability":"view","type":"function"},{"inputs":[],"name":"i_base_fee","outputs":[{"internalType":"uint96","name":"","type":"uint96"}],"stateMutability":"view","type":"function"},{"inputs":[],"name":"i_gas_price","outputs":[{"internalType":"uint96","name":"","type":"uint96"}],"stateMutability":"view","type":"function"},{"inputs":[],"name":"i_wei_per_unit_link","outputs":[{"internalType":"int256","name":"","type":"int256"}],"stateMutability":"view","type":"function"},{"inputs":[{"internalType":"address","name":"","type":"address"},{"internalType":"uint256","name":"amount","type":"uint256"},{"internalType":"bytes","name":"data","type":"bytes"}],"name":"onTokenTransfer","outputs":[],"stateMutability":"nonpayable","type":"function"},{"inputs":[],"name":"owner","outputs":[{"internalType":"address","name":"","type":"address"}],"stateMutability":"view","type":"function"},{"inputs":[{"internalType":"uint256","name":"subId","type":"uint256"}],"name":"ownerCancelSubscription","outputs":[],"stateMutability":"nonpayable","type":"function"},{"inputs":[{"internalType":"uint256","name":"","type":"uint256"}],"name":"pendingRequestExists","outputs":[{"internalType":"bool","name":"","type":"bool"}],"stateMutability":"pure","type":"function"},{"inputs":[{"internalType":"address","name":"to","type":"address"}],"name":"recoverFunds","outputs":[],"stateMutability":"nonpayable","type":"function"},{"inputs":[{"internalType":"address payable","name":"to","type":"address"}],"name":"recoverNativeFunds","outputs":[],"stateMutability":"nonpayable","type":"function"},{"inputs":[{"internalType":"uint256","name":"_subId","type":"uint256"},{"internalType":"address","name":"_consumer","type":"address"}],"name":"removeConsumer","outputs":[],"stateMutability":"nonpayable","type":"function"},{"inputs":[{"components":[{"internalType":"bytes32","name":"keyHash","type":"bytes32"},{"internalType":"uint256","name":"subId","type":"uint256"},{"internalType":"uint16","name":"requestConfirmations","type":"uint16"},{"internalType":"uint32","name":"callbackGasLimit","type":"uint32"},{"internalType":"uint32","name":"numWords","type":"uint32"},{"internalType":"bytes","name":"extraArgs","type":"bytes"}],"internalType":"struct VRFV2PlusClient.RandomWordsRequest","name":"_req","type":"tuple"}],"name":"requestRandomWords","outputs":[{"internalType":"uint256","name":"","type":"uint256"}],"stateMutability":"nonpayable","type":"function"},{"inputs":[{"internalType":"uint256","name":"subId","type":"uint256"},{"internalType":"address","name":"newOwner","type":"address"}],"name":"requestSubscriptionOwnerTransfer","outputs":[],"stateMutability":"nonpayable","type":"function"},{"inputs":[],"name":"s_config","outputs":[{"internalType":"uint16","name":"minimumRequestConfirmations","type":"uint16"},{"internalType":"uint32","name":"maxGasLimit","type":"uint32"},{"internalType":"bool","name":"reentrancyLock","type":"bool"},{"internalType":"uint32","name":"stalenessSeconds","type":"uint32"},{"internalType":"uint32","name":"gasAfterPaymentCalculation","type":"uint32"},{"internalType":"uint32","name":"fulfillmentFlatFeeNativePPM","type":"uint32"},{"internalType":"uint32","name":"fulfillmentFlatFeeLinkDiscountPPM","type":"uint32"},{"internalType":"uint8","name":"nativePremiumPercentage","type":"uint8"},{"internalType":"uint8","name":"linkPremiumPercentage","type":"uint8"}],"stateMutability":"view","type":"function"},{"inputs":[],"name":"s_currentSubNonce","outputs":[{"internalType":"uint64","name":"","type":"uint64"}],"stateMutability":"view","type":"function"},{"inputs":[],"name":"s_totalBalance","outputs":[{"internalType":"uint96","name":"","type":"uint96"}],"stateMutability":"view","type":"function"},{"inputs":[],"name":"s_totalNativeBalance","outputs":[{"internalType":"uint96","name":"","type":"uint96"}],"stateMutability":"view","type":"function"},{"inputs":[],"name":"setConfig","outputs":[],"stateMutability":"nonpayable","type":"function"},{"inputs":[{"internalType":"address","name":"link","type":"address"},{"internalType":"address","name":"linkNativeFeed","type":"address"}],"name":"setLINKAndLINKNativeFeed","outputs":[],"stateMutability":"nonpayable","type":"function"},{"inputs":[{"internalType":"address","name":"to","type":"address"}],"name":"transferOwnership","outputs":[],"stateMutability":"nonpayable","type":"function"},{"inputs":[{"internalType":"address","name":"recipient","type":"address"}],"name":"withdraw","outputs":[],"stateMutability":"nonpayable","type":"function"},{"inputs":[{"internalType":"address payable","name":"recipient","type":"address"}],"name":"withdrawNative","outputs":[],"stateMutability":"nonpayable","type":"function"}],"devdoc":{"kind":"dev","methods":{"acceptSubscriptionOwnerTransfer(uint256)":{"details":"will revert if original owner of subId has not requested that msg.sender become the new owner.","params":{"subId":"- ID of the subscription"}},"addConsumer(uint256,address)":{"params":{"consumer":"- New consumer which can use the subscription","subId":"- ID of the subscription"}},"cancelSubscription(uint256,address)":{"params":{"subId":"- ID of the subscription","to":"- Where to send the remaining LINK to"}},"createSubscription()":{"details":"You can manage the consumer set dynamically with addConsumer/removeConsumer.Note to fund the subscription with LINK, use transferAndCall. For exampleLINKTOKEN.transferAndCall(address(COORDINATOR),amount,abi.encode(subId));Note to fund the subscription with Native, use fundSubscriptionWithNative. Be sureto send Native with the call, for example:COORDINATOR.fundSubscriptionWithNative{value: amount}(subId);","returns":{"subId":"- A unique subscription id."}},"fulfillRandomWords(uint256,address)":{"details":"This mock uses a simplified formula for calculating payment amount and gas usage, and doesnot account for all edge cases handled in the real VRF coordinator. When making requestsagainst the real coordinator a small amount of additional LINK is required.","params":{"_consumer":"the VRF randomness consumer to send the result to","_requestId":"the request to fulfill"}},"fulfillRandomWordsWithOverride(uint256,address,uint256[])":{"params":{"_consumer":"the VRF randomness consumer to send the result to","_requestId":"the request to fulfill","_words":"user-provided random words"}},"fundSubscription(uint256,uint256)":{"params":{"_amount":"the amount to fund","_subId":"the subscription to fund"}},"fundSubscriptionWithNative(uint256)":{"params":{"subId":"- ID of the subscription"}},"getActiveSubscriptionIds(uint256,uint256)":{"details":"the order of IDs in the list is **not guaranteed**, therefore, if making successive calls, oneshould consider keeping the blockheight constant to ensure a holistic picture of the contract state","params":{"maxCount":"maximum number of subscriptions to return, 0 to return all","startIndex":"index of the subscription to start from"}},"getSubscription(uint256)":{"params":{"subId":"- ID of the subscription"},"returns":{"balance":"- LINK balance of the subscription in juels.","consumers":"- list of consumer address which are able to use this subscription.","nativeBalance":"- native balance of the subscription in wei.","reqCount":"- Requests count of subscription.","subOwner":"- owner of the subscription."}},"ownerCancelSubscription(uint256)":{"details":"notably can be called even if there are pending requests, outstanding ones may fail onchain","params":{"subId":"subscription id"}},"recoverFunds(address)":{"params":{"to":"address to send link to"}},"recoverNativeFunds(address)":{"params":{"to":"address to send native to"}},"removeConsumer(uint256,address)":{"params":{"consumer":"- Consumer to remove from the subscription","subId":"- ID of the subscription"}},"requestSubscriptionOwnerTransfer(uint256,address)":{"params":{"newOwner":"- proposed new owner of the subscription","subId":"- ID of the subscription"}},"setLINKAndLINKNativeFeed(address,address)":{"params":{"link":"- address of link token","linkNativeFeed":"address of the link native feed"}}},"version":1},"evm":{"bytecode":{"linkReferences":{},"object":"60e06040526001600e556064600f553480156200001b57600080fd5b50604051620039ac380380620039ac8339810160408190526200003e91620002a7565b3380600081620000955760405162461bcd60e51b815260206004820152601860248201527f43616e6e6f7420736574206f776e657220746f207a65726f000000000000000060448201526064015b60405180910390fd5b600080546001600160a01b0319166001600160a01b0384811691909117909155811615620000c857620000c881620000f6565b5050506001600160601b03808416608052821660a05260c0819052620000ed620001a1565b505050620002e8565b336001600160a01b03821603620001505760405162461bcd60e51b815260206004820152601760248201527f43616e6e6f74207472616e7366657220746f2073656c6600000000000000000060448201526064016200008c565b600180546001600160a01b0319166001600160a01b0383811691821790925560008054604051929316917fed8889f560326eb138920d842192f0eb3dd22b4f139c87a2c57538e05bae12789190a350565b620001ab6200022c565b6040805161012081018252600080825260208201819052818301819052606082018190526080820181905260a0820181905260c0820181905260e08201819052610100909101819052600c80546001600160c81b031916905590517f4b2974a542484cba2783812ff8033f7fc682cac2fe0905c28c5e27869b3155be9190a1565b6000546001600160a01b03163314620002885760405162461bcd60e51b815260206004820152601660248201527f4f6e6c792063616c6c61626c65206279206f776e65720000000000000000000060448201526064016200008c565b565b80516001600160601b0381168114620002a257600080fd5b919050565b600080600060608486031215620002bd57600080fd5b620002c8846200028a565b9250620002d8602085016200028a565b9150604084015190509250925092565b60805160a05160c05161367f6200032d6000396000818161035f0152610b8f01526000818161078a0152610b160152600081816104180152610b61015261367f6000f3fe60806040526004361061020f5760003560e01c80638b673e7a11610118578063aefb212f116100a0578063dac83d291161006f578063dac83d2914610727578063dc311dd314610747578063dcab3dcf14610778578063e72f6e30146107ac578063f2fde38b146107cc57600080fd5b8063aefb212f1461069a578063b2a7cac5146106c7578063bec4c08c146106e7578063cb6317971461070757600080fd5b80639b1c385e116100e75780639b1c385e146105ed5780639d40a6fd1461060d578063a21a23e414610645578063a4c0ed361461065a578063aa433aff1461067a57600080fd5b80638b673e7a146105875780638da5cb5b1461059c578063953e9c75146105ba57806395b55cfc146105da57600080fd5b806341af6c871161019b57806372e9d5651161016a57806372e9d565146104f257806379ba509714610512578063808974ff146105275780638402595e1461054757806386fe91c71461056757600080fd5b806341af6c871461045a57806351cff8d91461048a57806364d51a2a146104aa57806365982744146104d257600080fd5b806313478329116101e2578063134783291461034d57806318e3dd271461038f5780631b6b6d23146103ce5780631eebc117146104065780632f622e6b1461043a57600080fd5b8063088070f51461021457806308e3898e146102eb5780630ae095401461030d578063115e3c0d1461032d575b600080fd5b34801561022057600080fd5b50600c546102899061ffff81169063ffffffff62010000820481169160ff600160301b82048116926701000000000000008304811692600160581b8104821692600160781b8204831692600160981b83041691600160b81b8104821691600160c01b9091041689565b6040805161ffff909a168a5263ffffffff98891660208b01529615159689019690965293861660608801529185166080870152841660a08601529290921660c084015260ff91821660e084015216610100820152610120015b60405180910390f35b3480156102f757600080fd5b5061030b610306366004612e94565b6107ec565b005b34801561031957600080fd5b5061030b610328366004612f57565b610c7c565b34801561033957600080fd5b5061030b610348366004612f87565b610d7c565b34801561035957600080fd5b506103817f000000000000000000000000000000000000000000000000000000000000000081565b6040519081526020016102e2565b34801561039b57600080fd5b50600a546103b690600160601b90046001600160601b031681565b6040516001600160601b0390911681526020016102e2565b3480156103da57600080fd5b506002546103ee906001600160a01b031681565b6040516001600160a01b0390911681526020016102e2565b34801561041257600080fd5b506103b67f000000000000000000000000000000000000000000000000000000000000000081565b34801561044657600080fd5b5061030b610455366004612fa9565b610e90565b34801561046657600080fd5b5061047a610475366004612fc6565b610fe4565b60405190151581526020016102e2565b34801561049657600080fd5b5061030b6104a5366004612fa9565b610fff565b3480156104b657600080fd5b506104bf606481565b60405161ffff90911681526020016102e2565b3480156104de57600080fd5b5061030b6104ed366004612fdf565b611181565b3480156104fe57600080fd5b506003546103ee906001600160a01b031681565b34801561051e57600080fd5b5061030b6111e1565b34801561053357600080fd5b5061030b610542366004612f57565b611290565b34801561055357600080fd5b5061030b610562366004612fa9565b6112b4565b34801561057357600080fd5b50600a546103b6906001600160601b031681565b34801561059357600080fd5b5061030b6113cf565b3480156105a857600080fd5b506000546001600160a01b03166103ee565b3480156105c657600080fd5b5061047a6105d5366004612f57565b611458565b61030b6105e8366004612fc6565b611486565b3480156105f957600080fd5b5061038161060836600461300d565b6115aa565b34801561061957600080fd5b5060075461062d906001600160401b031681565b6040516001600160401b0390911681526020016102e2565b34801561065157600080fd5b5061038161180e565b34801561066657600080fd5b5061030b610675366004613047565b6119e4565b34801561068657600080fd5b5061030b610695366004612fc6565b611b55565b3480156106a657600080fd5b506106ba6106b5366004612f87565b611b9d565b6040516102e2919061310a565b3480156106d357600080fd5b5061030b6106e2366004612fc6565b611c9e565b3480156106f357600080fd5b5061030b610702366004612f57565b611da2565b34801561071357600080fd5b5061030b610722366004612f57565b611e95565b34801561073357600080fd5b5061030b610742366004612f57565b612123565b34801561075357600080fd5b50610767610762366004612fc6565b6121bd565b6040516102e295949392919061311d565b34801561078457600080fd5b506103b67f000000000000000000000000000000000000000000000000000000000000000081565b3480156107b857600080fd5b5061030b6107c7366004612fa9565b6122ab565b3480156107d857600080fd5b5061030b6107e7366004612fa9565b612475565b60005a6000858152601060205260408120549192500361081f576040516341abc80160e01b815260040160405180910390fd5b6000848152601060209081526040808320815160808101835281548152600182015463ffffffff80821695830195909552640100000000900490931691830191909152600281018054606084019190610877906131a3565b80601f01602080910402602001604051908101604052809291908181526020018280546108a3906131a3565b80156108f05780601f106108c5576101008083540402835291602001916108f0565b820191906000526020600020905b8154815290600101906020018083116108d357829003601f168201915b505050505081525050905082516000036109c957806040015163ffffffff166001600160401b0381111561092657610926612e4e565b60405190808252806020026020018201604052801561094f578160200160208202803683370190505b50925060005b816040015163ffffffff168110156109c35760408051602081018890529081018290526060016040516020818303038152906040528051906020012060001c8482815181106109a6576109a66131dd565b6020908102919091010152806109bb81613209565b915050610955565b506109f4565b806040015163ffffffff168351146109f457604051631f9efadb60e11b815260040160405180910390fd5b600080631fe543e360e01b8786604051602401610a12929190613222565b60408051601f19818403018152918152602080830180516001600160e01b03166001600160e01b031990951694909417909352600c805466ff0000000000001916600160301b1790559185015191519092506000916001600160a01b0389169163ffffffff90911690610a86908590613267565b60006040518083038160008787f1925050503d8060008114610ac4576040519150601f19603f3d011682016040523d82523d6000602084013e610ac9565b606091505b5050600c805466ff0000000000001916905560608501518051919250600091610af490600190613283565b81518110610b0457610b046131dd565b60209101015160f81c600114905060007f00000000000000000000000000000000000000000000000000000000000000006001600160601b03165a610b499089613283565b610b539190613296565b610b86906001600160601b037f0000000000000000000000000000000000000000000000000000000000000000166132ad565b905081610bcd577f0000000000000000000000000000000000000000000000000000000000000000610bc082670de0b6b3a7640000613296565b610bca91906132c0565b90505b85518190610bde9082908590612489565b60008b815260106020526040812081815560018101805467ffffffffffffffff1916905590610c106002830182612d6b565b50508651604080518d81526001600160601b03841660208201528515158183015286151560608201526000608082015290518d917faeb4b4786571e184246d39587f659abf0e26f41f6a3358692250382c0cdb47b7919081900360a00190a35050505050505050505050565b81610c86816125e6565b610c8e612650565b600080610c9a8561267d565b915091506000846001600160a01b0316826001600160601b031660405160006040518083038185875af1925050503d8060008114610cf4576040519150601f19603f3d011682016040523d82523d6000602084013e610cf9565b606091505b5050905080610d1b5760405163950b247960e01b815260040160405180910390fd5b604080516001600160a01b03871681526001600160601b03808616602083015284169181019190915286907f8c74ce8b8cf87f5eb001275c8be27eb34ea2b62bfab6814fcc62192bb63e81c4906060015b60405180910390a2505050505050565b6000828152600560205260409020546001600160a01b0316610db157604051630fb532db60e11b815260040160405180910390fd5b600082815260066020526040812080546001600160601b031691839190610dd883856132e2565b92506101000a8154816001600160601b0302191690836001600160601b0316021790555081600a60008282829054906101000a90046001600160601b0316610e2091906132e2565b92506101000a8154816001600160601b0302191690836001600160601b03160217905550827f1ced9348ff549fceab2ac57cd3a9de38edaaab274b725ee82c23e8fc8c4eec7a828484610e7391906132ad565b6040805192835260208301919091520160405180910390a2505050565b610e98612650565b610ea061282f565b600b54600160601b90046001600160601b0316600003610ed357604051631e9acf1760e31b815260040160405180910390fd5b600b8054600160601b90046001600160601b0316908190600c610ef68380613302565b92506101000a8154816001600160601b0302191690836001600160601b0316021790555080600a600c8282829054906101000a90046001600160601b0316610f3e9190613302565b92506101000a8154816001600160601b0302191690836001600160601b031602179055506000826001600160a01b0316826001600160601b031660405160006040518083038185875af1925050503d8060008114610fb8576040519150601f19603f3d011682016040523d82523d6000602084013e610fbd565b606091505b5050905080610fdf5760405163950b247960e01b815260040160405180910390fd5b505050565b600060405163d623472560e01b815260040160405180910390fd5b611007612650565b61100f61282f565b6002546001600160a01b03166110385760405163c1f0c0a160e01b815260040160405180910390fd5b600b546001600160601b031660000361106457604051631e9acf1760e31b815260040160405180910390fd5b600b80546001600160601b031690819060006110808380613302565b92506101000a8154816001600160601b0302191690836001600160601b0316021790555080600a60008282829054906101000a90046001600160601b03166110c89190613302565b82546101009290920a6001600160601b0381810219909316918316021790915560025460405163a9059cbb60e01b81526001600160a01b03868116600483015292851660248201529116915063a9059cbb906044016020604051808303816000875af115801561113c573d6000803e3d6000fd5b505050506040513d601f19601f820116820180604052508101906111609190613330565b61117d57604051631e9acf1760e31b815260040160405180910390fd5b5050565b61118961282f565b6002546001600160a01b0316156111b357604051631688c53760e11b815260040160405180910390fd5b600280546001600160a01b039384166001600160a01b03199182161790915560038054929093169116179055565b6001546001600160a01b031633146112395760405162461bcd60e51b815260206004820152601660248201527526bab9ba10313290383937b837b9b2b21037bbb732b960511b60448201526064015b60405180910390fd5b60008054336001600160a01b0319808316821784556001805490911690556040516001600160a01b0390921692909183917f8be0079c531659141344cd1fd0a4f28419497f9722a3daafe3b4186f6b6457e091a350565b611298612650565b60408051600081526020810190915261117d90839083906107ec565b6112bc61282f565b600a544790600160601b90046001600160601b0316818111156112fc576040516354ced18160e11b81526004810182905260248101839052604401611230565b81811015610fdf5760006113108284613283565b90506000846001600160a01b03168260405160006040518083038185875af1925050503d806000811461135f576040519150601f19603f3d011682016040523d82523d6000602084013e611364565b606091505b50509050806113865760405163950b247960e01b815260040160405180910390fd5b604080516001600160a01b0387168152602081018490527f4aed7c8eed0496c8c19ea2681fcca25741c1602342e38b045d9f1e8e905d2e9c910160405180910390a15050505050565b6113d761282f565b6040805161012081018252600080825260208201819052818301819052606082018190526080820181905260a0820181905260c0820181905260e08201819052610100909101819052600c80546001600160c81b031916905590517f4b2974a542484cba2783812ff8033f7fc682cac2fe0905c28c5e27869b3155be9190a1565b6001600160a01b038116600090815260046020908152604080832085845290915290205460ff165b92915050565b61148e612650565b6000818152600560205260409020546001600160a01b03166114c357604051630fb532db60e11b815260040160405180910390fd5b60008181526006602052604090208054600160601b90046001600160601b0316903490600c6114f283856132e2565b92506101000a8154816001600160601b0302191690836001600160601b0316021790555034600a600c8282829054906101000a90046001600160601b031661153a91906132e2565b92506101000a8154816001600160601b0302191690836001600160601b03160217905550817f7603b205d03651ee812f803fccde89f1012e545a9c99f0abfea9cedd0fd8e90282348461158d91906132ad565b604080519283526020830191909152015b60405180910390a25050565b60006115b4612650565b8160200135336115c48282611458565b6115f3576040516379bfd40160e01b8152600481018390526001600160a01b0382166024820152604401611230565b602080850135600081815260059092526040909120546001600160a01b031661162f57604051630fb532db60e11b815260040160405180910390fd5b600e80546000918261164083613209565b90915550600f8054919250600091908261165983613209565b909155509050600061167e61167961167460a08b018b61334d565b612882565b61290a565b90506040518060800160405280896020013581526020018960600160208101906116a8919061339a565b63ffffffff1681526020016116c360a08b0160808c0161339a565b63ffffffff1681526020016116db60a08b018b61334d565b8080601f01602080910402602001604051908101604052809392919081815260200183838082843760009201829052509390945250508581526010602090815260409182902084518155908401516001820180549386015163ffffffff9081166401000000000267ffffffffffffffff199095169216919091179290921790915560608301519091506002820190611773908261340e565b50905050336001600160a01b0316886020013589600001357feb0e3652e0f44f417695e6e90f2f42c99b65cd7169074c5a654b16b9748c3a4e86868d60400160208101906117c191906134cd565b8e60600160208101906117d4919061339a565b8f60800160208101906117e7919061339a565b896040516117fa969594939291906134f1565b60405180910390a450909695505050505050565b6000611818612650565b6007546001600160401b031633611830600143613283565b6040516bffffffffffffffffffffffff19606093841b81166020830152914060348201523090921b1660548201526001600160c01b031960c083901b16606882015260700160408051601f198184030181529190528051602090910120915061189a816001613555565b6007805467ffffffffffffffff19166001600160401b03928316179055604080516000808252608082018352602080830182815283850183815260608086018581528a86526006855287862093518454935191516001600160601b039182166001600160c01b031990951694909417600160601b9190921602176001600160c01b0316600160c01b9290981691909102969096179055835194850184523385528481018281528585018481528884526005835294909220855181546001600160a01b03199081166001600160a01b0392831617835593516001830180549095169116179092559251805192949391926119999260028501920190612da5565b506119a99150600890508461297b565b5060405133815283907f1d3015d7ba850fa198dc7b1a3f5d42779313a681035f77c8c03764c61005518d9060200160405180910390a2505090565b6119ec612650565b6002546001600160a01b03163314611a17576040516344b0e3c360e01b815260040160405180910390fd5b60208114611a3857604051638129bbcd60e01b815260040160405180910390fd5b6000611a4682840184612fc6565b6000818152600560205260409020549091506001600160a01b0316611a7e57604051630fb532db60e11b815260040160405180910390fd5b600081815260066020526040812080546001600160601b031691869190611aa583856132e2565b92506101000a8154816001600160601b0302191690836001600160601b0316021790555084600a60008282829054906101000a90046001600160601b0316611aed91906132e2565b92506101000a8154816001600160601b0302191690836001600160601b03160217905550817f1ced9348ff549fceab2ac57cd3a9de38edaaab274b725ee82c23e8fc8c4eec7a828784611b4091906132ad565b60408051928352602083019190915201610d6c565b611b5d61282f565b6000818152600560205260409020546001600160a01b031680611b9357604051630fb532db60e11b815260040160405180910390fd5b61117d8282612987565b60606000611bab6008612b2d565b9050808410611bcd57604051631390f2a160e01b815260040160405180910390fd5b6000611bd984866132ad565b905081811180611be7575083155b611bf15780611bf3565b815b90506000611c018683613283565b9050806001600160401b03811115611c1b57611c1b612e4e565b604051908082528060200260200182016040528015611c44578160200160208202803683370190505b50935060005b81811015611c9457611c67611c5f88836132ad565b600890612b37565b858281518110611c7957611c796131dd565b6020908102919091010152611c8d81613209565b9050611c4a565b5050505092915050565b611ca6612650565b6000818152600560205260409020546001600160a01b031680611cdc57604051630fb532db60e11b815260040160405180910390fd5b6000828152600560205260409020600101546001600160a01b03163314611d35576000828152600560205260409081902060010154905163d084e97560e01b81526001600160a01b039091166004820152602401611230565b6000828152600560209081526040918290208054336001600160a01b03199182168117835560019092018054909116905582516001600160a01b03851681529182015283917fd4114ab6e9af9f597c52041f32d62dc57c5c4e4c0d4427006069635e216c9386910161159e565b81611dac816125e6565b611db4612650565b6001600160a01b03821660009081526004602090815260408083208684529091529020805460ff1615611de75750505050565b6000848152600560205260409020600201805460631901611e1b576040516305a48e0f60e01b815260040160405180910390fd5b8154600160ff199091168117835581549081018255600082815260209081902090910180546001600160a01b0319166001600160a01b03871690811790915560405190815286917f1e980d04aa7648e205713e5e8ea3808672ac163d10936d36f91b2c88ac1575e191015b60405180910390a25050505050565b81611e9f816125e6565b8282611eab8282611458565b611eda576040516379bfd40160e01b8152600481018390526001600160a01b0382166024820152604401611230565b611ee2612650565b6001600160a01b038416600090815260046020908152604080832088845290915290205460ff16611f38576040516379bfd40160e01b8152600481018690526001600160a01b0385166024820152604401611230565b600085815260056020908152604080832060020180548251818502810185019093528083529192909190830182828015611f9b57602002820191906000526020600020905b81546001600160a01b03168152600190910190602001808311611f7d575b50505050509050600060018251611fb29190613283565b905060005b82518110156120bb57866001600160a01b0316838281518110611fdc57611fdc6131dd565b60200260200101516001600160a01b0316036120ab576000838381518110612006576120066131dd565b6020026020010151905080600560008b81526020019081526020016000206002018381548110612038576120386131dd565b600091825260208083209190910180546001600160a01b0319166001600160a01b0394909416939093179092558a815260059091526040902060020180548061208357612083613575565b600082815260209020810160001990810180546001600160a01b0319169055019055506120bb565b6120b481613209565b9050611fb7565b506001600160a01b03861660008181526004602090815260408083208b8452825291829020805460ff19169055905191825288917f32158c6058347c1601b2d12bc696ac6901d8a9a9aa3ba10c27ab0a983e8425a7910160405180910390a250505050505050565b8161212d816125e6565b612135612650565b600083815260056020526040902060018101546001600160a01b038481169116146121b7576001810180546001600160a01b0319166001600160a01b03851690811790915560408051338152602081019290925285917f21a4dad170a6bf476c31bbcf4a16628295b0e450672eec25d7c93308e05344a1910160405180910390a25b50505050565b600081815260056020526040812054819081906001600160a01b03166060816121f957604051630fb532db60e11b815260040160405180910390fd5b600086815260066020908152604080832054600583529281902060020180548251818502810185019093528083526001600160601b0380861695600160601b810490911694600160c01b9091046001600160401b031693889392909183919083018282801561229157602002820191906000526020600020905b81546001600160a01b03168152600190910190602001808311612273575b505050505090509450945094509450945091939590929450565b6122b361282f565b6002546001600160a01b03166122dc5760405163c1f0c0a160e01b815260040160405180910390fd5b6002546040516370a0823160e01b81523060048201526000916001600160a01b0316906370a0823190602401602060405180830381865afa158015612325573d6000803e3d6000fd5b505050506040513d601f19601f82011682018060405250810190612349919061358b565b600a549091506001600160601b031681811115612383576040516354ced18160e11b81526004810182905260248101839052604401611230565b81811015610fdf5760006123978284613283565b60025460405163a9059cbb60e01b81526001600160a01b0387811660048301526024820184905292935091169063a9059cbb906044016020604051808303816000875af11580156123ec573d6000803e3d6000fd5b505050506040513d601f19601f820116820180604052508101906124109190613330565b61242d57604051631f01ff1360e21b815260040160405180910390fd5b604080516001600160a01b0386168152602081018390527f59bfc682b673f8cbf945f1e454df9334834abf7dfe7f92237ca29ecb9b436600910160405180910390a150505050565b61247d61282f565b61248681612b43565b50565b6000818152600660205260409020821561254d5780546001600160601b03600160601b90910481169085168110156124d457604051631e9acf1760e31b815260040160405180910390fd5b6124de8582613302565b82546bffffffffffffffffffffffff60601b1916600160601b6001600160601b039283168102919091178455600b805488939192600c926125239286929004166132e2565b92506101000a8154816001600160601b0302191690836001600160601b03160217905550506121b7565b80546001600160601b0390811690851681101561257d57604051631e9acf1760e31b815260040160405180910390fd5b6125878582613302565b82546bffffffffffffffffffffffff19166001600160601b03918216178355600b805487926000916125bb918591166132e2565b92506101000a8154816001600160601b0302191690836001600160601b031602179055505050505050565b6000818152600560205260409020546001600160a01b03168061261c57604051630fb532db60e11b815260040160405180910390fd5b336001600160a01b0382161461117d57604051636c51fda960e11b81526001600160a01b0382166004820152602401611230565b600c54600160301b900460ff161561267b5760405163769dd35360e11b815260040160405180910390fd5b565b60008181526005602090815260408083206006909252822054600290910180546001600160601b0380841694600160601b90940416925b8181101561272957600460008483815481106126d2576126d26131dd565b60009182526020808320909101546001600160a01b0316835282810193909352604091820181208982529092529020805470ffffffffffffffffffffffffffffffffff1916905561272281613209565b90506126b4565b50600085815260056020526040812080546001600160a01b031990811682556001820180549091169055906127616002830182612e0a565b505060008581526006602052604081205561277d600886612bec565b506001600160601b038416156127d057600a80548591906000906127ab9084906001600160601b0316613302565b92506101000a8154816001600160601b0302191690836001600160601b031602179055505b6001600160601b038316156128285782600a600c8282829054906101000a90046001600160601b03166128039190613302565b92506101000a8154816001600160601b0302191690836001600160601b031602179055505b5050915091565b6000546001600160a01b0316331461267b5760405162461bcd60e51b815260206004820152601660248201527527b7363c9031b0b63630b1363290313c9037bbb732b960511b6044820152606401611230565b60408051602081019091526000815260008290036128af5750604080516020810190915260008152611480565b63125fa26760e31b6128c183856135a4565b6001600160e01b031916146128e957604051632923fee760e11b815260040160405180910390fd5b6128f682600481866135d4565b81019061290391906135fe565b9392505050565b60607f92fd13387c7fe7befbc38d303d6468778fb9731bc4583f17d92989c6fcfdeaaa8260405160240161294391511515815260200190565b60408051601f198184030181529190526020810180516001600160e01b03166001600160e01b03199093169290921790915292915050565b60006129038383612bf8565b6000806129938461267d565b60025491935091506001600160a01b0316158015906129ba57506001600160601b03821615155b15612a5b5760025460405163a9059cbb60e01b81526001600160a01b0385811660048301526001600160601b03851660248301529091169063a9059cbb906044016020604051808303816000875af1158015612a1a573d6000803e3d6000fd5b505050506040513d601f19601f82011682018060405250810190612a3e9190613330565b612a5b57604051631e9acf1760e31b815260040160405180910390fd5b6000836001600160a01b0316826001600160601b031660405160006040518083038185875af1925050503d8060008114612ab1576040519150601f19603f3d011682016040523d82523d6000602084013e612ab6565b606091505b5050905080612ad85760405163950b247960e01b815260040160405180910390fd5b604080516001600160a01b03861681526001600160601b03808616602083015284169181019190915285907f8c74ce8b8cf87f5eb001275c8be27eb34ea2b62bfab6814fcc62192bb63e81c490606001611e86565b6000611480825490565b60006129038383612c47565b336001600160a01b03821603612b9b5760405162461bcd60e51b815260206004820152601760248201527f43616e6e6f74207472616e7366657220746f2073656c660000000000000000006044820152606401611230565b600180546001600160a01b0319166001600160a01b0383811691821790925560008054604051929316917fed8889f560326eb138920d842192f0eb3dd22b4f139c87a2c57538e05bae12789190a350565b60006129038383612c71565b6000818152600183016020526040812054612c3f57508154600181810184556000848152602080822090930184905584548482528286019093526040902091909155611480565b506000611480565b6000826000018281548110612c5e57612c5e6131dd565b9060005260206000200154905092915050565b60008181526001830160205260408120548015612d5a576000612c95600183613283565b8554909150600090612ca990600190613283565b9050818114612d0e576000866000018281548110612cc957612cc96131dd565b9060005260206000200154905080876000018481548110612cec57612cec6131dd565b6000918252602080832090910192909255918252600188019052604090208390555b8554869080612d1f57612d1f613575565b600190038181906000526020600020016000905590558560010160008681526020019081526020016000206000905560019350505050611480565b6000915050611480565b5092915050565b508054612d77906131a3565b6000825580601f10612d87575050565b601f0160209004906000526020600020908101906124869190612e24565b828054828255906000526020600020908101928215612dfa579160200282015b82811115612dfa57825182546001600160a01b0319166001600160a01b03909116178255602090920191600190910190612dc5565b50612e06929150612e24565b5090565b508054600082559060005260206000209081019061248691905b5b80821115612e065760008155600101612e25565b6001600160a01b038116811461248657600080fd5b634e487b7160e01b600052604160045260246000fd5b604051601f8201601f191681016001600160401b0381118282101715612e8c57612e8c612e4e565b604052919050565b600080600060608486031215612ea957600080fd5b83359250602080850135612ebc81612e39565b925060408501356001600160401b0380821115612ed857600080fd5b818701915087601f830112612eec57600080fd5b813581811115612efe57612efe612e4e565b8060051b9150612f0f848301612e64565b818152918301840191848101908a841115612f2957600080fd5b938501935b83851015612f4757843582529385019390850190612f2e565b8096505050505050509250925092565b60008060408385031215612f6a57600080fd5b823591506020830135612f7c81612e39565b809150509250929050565b60008060408385031215612f9a57600080fd5b50508035926020909101359150565b600060208284031215612fbb57600080fd5b813561290381612e39565b600060208284031215612fd857600080fd5b5035919050565b60008060408385031215612ff257600080fd5b8235612ffd81612e39565b91506020830135612f7c81612e39565b60006020828403121561301f57600080fd5b81356001600160401b0381111561303557600080fd5b820160c0818503121561290357600080fd5b6000806000806060858703121561305d57600080fd5b843561306881612e39565b93506020850135925060408501356001600160401b038082111561308b57600080fd5b818701915087601f83011261309f57600080fd5b8135818111156130ae57600080fd5b8860208285010111156130c057600080fd5b95989497505060200194505050565b600081518084526020808501945080840160005b838110156130ff578151875295820195908201906001016130e3565b509495945050505050565b60208152600061290360208301846130cf565b6001600160601b03868116825285166020808301919091526001600160401b03851660408301526001600160a01b03848116606084015260a0608084018190528451908401819052600092858101929160c0860190855b81811015613192578551851683529483019491830191600101613174565b50909b9a5050505050505050505050565b600181811c908216806131b757607f821691505b6020821081036131d757634e487b7160e01b600052602260045260246000fd5b50919050565b634e487b7160e01b600052603260045260246000fd5b634e487b7160e01b600052601160045260246000fd5b60006001820161321b5761321b6131f3565b5060010190565b82815260406020820152600061323b60408301846130cf565b949350505050565b60005b8381101561325e578181015183820152602001613246565b50506000910152565b60008251613279818460208701613243565b9190910192915050565b81810381811115611480576114806131f3565b8082028115828204841417611480576114806131f3565b80820180821115611480576114806131f3565b6000826132dd57634e487b7160e01b600052601260045260246000fd5b500490565b6001600160601b03818116838216019080821115612d6457612d646131f3565b6001600160601b03828116828216039080821115612d6457612d646131f3565b801515811461248657600080fd5b60006020828403121561334257600080fd5b815161290381613322565b6000808335601e1984360301811261336457600080fd5b8301803591506001600160401b0382111561337e57600080fd5b60200191503681900382131561339357600080fd5b9250929050565b6000602082840312156133ac57600080fd5b813563ffffffff8116811461290357600080fd5b601f821115610fdf57600081815260208120601f850160051c810160208610156133e75750805b601f850160051c820191505b81811015613406578281556001016133f3565b505050505050565b81516001600160401b0381111561342757613427612e4e565b61343b8161343584546131a3565b846133c0565b602080601f83116001811461347057600084156134585750858301515b600019600386901b1c1916600185901b178555613406565b600085815260208120601f198616915b8281101561349f57888601518255948401946001909101908401613480565b50858210156134bd5787850151600019600388901b60f8161c191681555b5050505050600190811b01905550565b6000602082840312156134df57600080fd5b813561ffff8116811461290357600080fd5b86815285602082015261ffff85166040820152600063ffffffff808616606084015280851660808401525060c060a083015282518060c084015261353c8160e0850160208701613243565b601f01601f19169190910160e001979650505050505050565b6001600160401b03818116838216019080821115612d6457612d646131f3565b634e487b7160e01b600052603160045260246000fd5b60006020828403121561359d57600080fd5b5051919050565b6001600160e01b031981358181169160048510156135cc5780818660040360031b1b83161692505b505092915050565b600080858511156135e457600080fd5b838611156135f157600080fd5b5050820193919092039150565b60006020828403121561361057600080fd5b604051602081018181106001600160401b038211171561363257613632612e4e565b604052823561364081613322565b8152939250505056fea264697066735822122073215a99276330c7bd5e223a17f7321448c5051399b38ef6032224961be41b4164736f6c63430008130033","opcodes":"PUSH1 0xE0 PUSH1 0x40 MSTORE PUSH1 0x1 PUSH1 0xE SSTORE PUSH1 0x64 PUSH1 0xF SSTORE CALLVALUE DUP1 ISZERO PUSH3 0x1B JUMPI PUSH1 0x0 DUP1 REVERT JUMPDEST POP PUSH1 0x40 MLOAD PUSH3 0x39AC CODESIZE SUB DUP1 PUSH3 0x39AC DUP4 CODECOPY DUP2 ADD PUSH1 0x40 DUP2 SWAP1 MSTORE PUSH3 0x3E SWAP2 PUSH3 0x2A7 JUMP JUMPDEST CALLER DUP1 PUSH1 0x0 DUP2 PUSH3 0x95 JUMPI PUSH1 0x40 MLOAD PUSH3 0x461BCD PUSH1 0xE5 SHL DUP2 MSTORE PUSH1 0x20 PUSH1 0x4 DUP3 ADD MSTORE PUSH1 0x18 PUSH1 0x24 DUP3 ADD MSTORE PUSH32 0x43616E6E6F7420736574206F776E657220746F207A65726F0000000000000000 PUSH1 0x44 DUP3 ADD MSTORE PUSH1 0x64 ADD JUMPDEST PUSH1 0x40 MLOAD DUP1 SWAP2 SUB SWAP1 REVERT JUMPDEST PUSH1 0x0 DUP1 SLOAD PUSH1 0x1 PUSH1 0x1 PUSH1 0xA0 SHL SUB NOT AND PUSH1 0x1 PUSH1 0x1 PUSH1 0xA0 SHL SUB DUP5 DUP2 AND SWAP2 SWAP1 SWAP2 OR SWAP1 SWAP2 SSTORE DUP2 AND ISZERO PUSH3 0xC8 JUMPI PUSH3 0xC8 DUP2 PUSH3 0xF6 JUMP JUMPDEST POP POP POP PUSH1 0x1 PUSH1 0x1 PUSH1 0x60 SHL SUB DUP1 DUP5 AND PUSH1 0x80 MSTORE DUP3 AND PUSH1 0xA0 MSTORE PUSH1 0xC0 DUP2 SWAP1 MSTORE PUSH3 0xED PUSH3 0x1A1 JUMP JUMPDEST POP POP POP PUSH3 0x2E8 JUMP JUMPDEST CALLER PUSH1 0x1 PUSH1 0x1 PUSH1 0xA0 SHL SUB DUP3 AND SUB PUSH3 0x150 JUMPI PUSH1 0x40 MLOAD PUSH3 0x461BCD PUSH1 0xE5 SHL DUP2 MSTORE PUSH1 0x20 PUSH1 0x4 DUP3 ADD MSTORE PUSH1 0x17 PUSH1 0x24 DUP3 ADD MSTORE PUSH32 0x43616E6E6F74207472616E7366657220746F2073656C66000000000000000000 PUSH1 0x44 DUP3 ADD MSTORE PUSH1 0x64 ADD PUSH3 0x8C JUMP JUMPDEST PUSH1 0x1 DUP1 SLOAD PUSH1 0x1 PUSH1 0x1 PUSH1 0xA0 SHL SUB NOT AND PUSH1 0x1 PUSH1 0x1 PUSH1 0xA0 SHL SUB DUP4 DUP2 AND SWAP2 DUP3 OR SWAP1 SWAP3 SSTORE PUSH1 0x0 DUP1 SLOAD PUSH1 0x40 MLOAD SWAP3 SWAP4 AND SWAP2 PUSH32 0xED8889F560326EB138920D842192F0EB3DD22B4F139C87A2C57538E05BAE1278 SWAP2 SWAP1 LOG3 POP JUMP JUMPDEST PUSH3 0x1AB PUSH3 0x22C JUMP JUMPDEST PUSH1 0x40 DUP1 MLOAD PUSH2 0x120 DUP2 ADD DUP3 MSTORE PUSH1 0x0 DUP1 DUP3 MSTORE PUSH1 0x20 DUP3 ADD DUP2 SWAP1 MSTORE DUP2 DUP4 ADD DUP2 SWAP1 MSTORE PUSH1 0x60 DUP3 ADD DUP2 SWAP1 MSTORE PUSH1 0x80 DUP3 ADD DUP2 SWAP1 MSTORE PUSH1 0xA0 DUP3 ADD DUP2 SWAP1 MSTORE PUSH1 0xC0 DUP3 ADD DUP2 SWAP1 MSTORE PUSH1 0xE0 DUP3 ADD DUP2 SWAP1 MSTORE PUSH2 0x100 SWAP1 SWAP2 ADD DUP2 SWAP1 MSTORE PUSH1 0xC DUP1 SLOAD PUSH1 0x1 PUSH1 0x1 PUSH1 0xC8 SHL SUB NOT AND SWAP1 SSTORE SWAP1 MLOAD PUSH32 0x4B2974A542484CBA2783812FF8033F7FC682CAC2FE0905C28C5E27869B3155BE SWAP2 SWAP1 LOG1 JUMP JUMPDEST PUSH1 0x0 SLOAD PUSH1 0x1 PUSH1 0x1 PUSH1 0xA0 SHL SUB AND CALLER EQ PUSH3 0x288 JUMPI PUSH1 0x40 MLOAD PUSH3 0x461BCD PUSH1 0xE5 SHL DUP2 MSTORE PUSH1 0x20 PUSH1 0x4 DUP3 ADD MSTORE PUSH1 0x16 PUSH1 0x24 DUP3 ADD MSTORE PUSH32 0x4F6E6C792063616C6C61626C65206279206F776E657200000000000000000000 PUSH1 0x44 DUP3 ADD MSTORE PUSH1 0x64 ADD PUSH3 0x8C JUMP JUMPDEST JUMP JUMPDEST DUP1 MLOAD PUSH1 0x1 PUSH1 0x1 PUSH1 0x60 SHL SUB DUP2 AND DUP2 EQ PUSH3 0x2A2 JUMPI PUSH1 0x0 DUP1 REVERT JUMPDEST SWAP2 SWAP1 POP JUMP JUMPDEST PUSH1 0x0 DUP1 PUSH1 0x0 PUSH1 0x60 DUP5 DUP7 SUB SLT ISZERO PUSH3 0x2BD JUMPI PUSH1 0x0 DUP1 REVERT JUMPDEST PUSH3 0x2C8 DUP5 PUSH3 0x28A JUMP JUMPDEST SWAP3 POP PUSH3 0x2D8 PUSH1 0x20 DUP6 ADD PUSH3 0x28A JUMP JUMPDEST SWAP2 POP PUSH1 0x40 DUP5 ADD MLOAD SWAP1 POP SWAP3 POP SWAP3 POP SWAP3 JUMP JUMPDEST PUSH1 0x80 MLOAD PUSH1 0xA0 MLOAD PUSH1 0xC0 MLOAD PUSH2 0x367F PUSH3 0x32D PUSH1 0x0 CODECOPY PUSH1 0x0 DUP2 DUP2 PUSH2 0x35F ADD MSTORE PUSH2 0xB8F ADD MSTORE PUSH1 0x0 DUP2 DUP2 PUSH2 0x78A ADD MSTORE PUSH2 0xB16 ADD MSTORE PUSH1 0x0 DUP2 DUP2 PUSH2 0x418 ADD MSTORE PUSH2 0xB61 ADD MSTORE PUSH2 0x367F PUSH1 0x0 RETURN INVALID PUSH1 0x80 PUSH1 0x40 MSTORE PUSH1 0x4 CALLDATASIZE LT PUSH2 0x20F JUMPI PUSH1 0x0 CALLDATALOAD PUSH1 0xE0 SHR DUP1 PUSH4 0x8B673E7A GT PUSH2 0x118 JUMPI DUP1 PUSH4 0xAEFB212F GT PUSH2 0xA0 JUMPI DUP1 PUSH4 0xDAC83D29 GT PUSH2 0x6F JUMPI DUP1 PUSH4 0xDAC83D29 EQ PUSH2 0x727 JUMPI DUP1 PUSH4 0xDC311DD3 EQ PUSH2 0x747 JUMPI DUP1 PUSH4 0xDCAB3DCF EQ PUSH2 0x778 JUMPI DUP1 PUSH4 0xE72F6E30 EQ PUSH2 0x7AC JUMPI DUP1 PUSH4 0xF2FDE38B EQ PUSH2 0x7CC JUMPI PUSH1 0x0 DUP1 REVERT JUMPDEST DUP1 PUSH4 0xAEFB212F EQ PUSH2 0x69A JUMPI DUP1 PUSH4 0xB2A7CAC5 EQ PUSH2 0x6C7 JUMPI DUP1 PUSH4 0xBEC4C08C EQ PUSH2 0x6E7 JUMPI DUP1 PUSH4 0xCB631797 EQ PUSH2 0x707 JUMPI PUSH1 0x0 DUP1 REVERT JUMPDEST DUP1 PUSH4 0x9B1C385E GT PUSH2 0xE7 JUMPI DUP1 PUSH4 0x9B1C385E EQ PUSH2 0x5ED JUMPI DUP1 PUSH4 0x9D40A6FD EQ PUSH2 0x60D JUMPI DUP1 PUSH4 0xA21A23E4 EQ PUSH2 0x645 JUMPI DUP1 PUSH4 0xA4C0ED36 EQ PUSH2 0x65A JUMPI DUP1 PUSH4 0xAA433AFF EQ PUSH2 0x67A JUMPI PUSH1 0x0 DUP1 REVERT JUMPDEST DUP1 PUSH4 0x8B673E7A EQ PUSH2 0x587 JUMPI DUP1 PUSH4 0x8DA5CB5B EQ PUSH2 0x59C JUMPI DUP1 PUSH4 0x953E9C75 EQ PUSH2 0x5BA JUMPI DUP1 PUSH4 0x95B55CFC EQ PUSH2 0x5DA JUMPI PUSH1 0x0 DUP1 REVERT JUMPDEST DUP1 PUSH4 0x41AF6C87 GT PUSH2 0x19B JUMPI DUP1 PUSH4 0x72E9D565 GT PUSH2 0x16A JUMPI DUP1 PUSH4 0x72E9D565 EQ PUSH2 0x4F2 JUMPI DUP1 PUSH4 0x79BA5097 EQ PUSH2 0x512 JUMPI DUP1 PUSH4 0x808974FF EQ PUSH2 0x527 JUMPI DUP1 PUSH4 0x8402595E EQ PUSH2 0x547 JUMPI DUP1 PUSH4 0x86FE91C7 EQ PUSH2 0x567 JUMPI PUSH1 0x0 DUP1 REVERT JUMPDEST DUP1 PUSH4 0x41AF6C87 EQ PUSH2 0x45A JUMPI DUP1 PUSH4 0x51CFF8D9 EQ PUSH2 0x48A JUMPI DUP1 PUSH4 0x64D51A2A EQ PUSH2 0x4AA JUMPI DUP1 PUSH4 0x65982744 EQ PUSH2 0x4D2 JUMPI PUSH1 0x0 DUP1 REVERT JUMPDEST DUP1 PUSH4 0x13478329 GT PUSH2 0x1E2 JUMPI DUP1 PUSH4 0x13478329 EQ PUSH2 0x34D JUMPI DUP1 PUSH4 0x18E3DD27 EQ PUSH2 0x38F JUMPI DUP1 PUSH4 0x1B6B6D23 EQ PUSH2 0x3CE JUMPI DUP1 PUSH4 0x1EEBC117 EQ PUSH2 0x406 JUMPI DUP1 PUSH4 0x2F622E6B EQ PUSH2 0x43A JUMPI PUSH1 0x0 DUP1 REVERT JUMPDEST DUP1 PUSH4 0x88070F5 EQ PUSH2 0x214 JUMPI DUP1 PUSH4 0x8E3898E EQ PUSH2 0x2EB JUMPI DUP1 PUSH4 0xAE09540 EQ PUSH2 0x30D JUMPI DUP1 PUSH4 0x115E3C0D EQ PUSH2 0x32D JUMPI JUMPDEST PUSH1 0x0 DUP1 REVERT JUMPDEST CALLVALUE DUP1 ISZERO PUSH2 0x220 JUMPI PUSH1 0x0 DUP1 REVERT JUMPDEST POP PUSH1 0xC SLOAD PUSH2 0x289 SWAP1 PUSH2 0xFFFF DUP2 AND SWAP1 PUSH4 0xFFFFFFFF PUSH3 0x10000 DUP3 DIV DUP2 AND SWAP2 PUSH1 0xFF PUSH1 0x1 PUSH1 0x30 SHL DUP3 DIV DUP2 AND SWAP3 PUSH8 0x100000000000000 DUP4 DIV DUP2 AND SWAP3 PUSH1 0x1 PUSH1 0x58 SHL DUP2 DIV DUP3 AND SWAP3 PUSH1 0x1 PUSH1 0x78 SHL DUP3 DIV DUP4 AND SWAP3 PUSH1 0x1 PUSH1 0x98 SHL DUP4 DIV AND SWAP2 PUSH1 0x1 PUSH1 0xB8 SHL DUP2 DIV DUP3 AND SWAP2 PUSH1 0x1 PUSH1 0xC0 SHL SWAP1 SWAP2 DIV AND DUP10 JUMP JUMPDEST PUSH1 0x40 DUP1 MLOAD PUSH2 0xFFFF SWAP1 SWAP11 AND DUP11 MSTORE PUSH4 0xFFFFFFFF SWAP9 DUP10 AND PUSH1 0x20 DUP12 ADD MSTORE SWAP7 ISZERO ISZERO SWAP7 DUP10 ADD SWAP7 SWAP1 SWAP7 MSTORE SWAP4 DUP7 AND PUSH1 0x60 DUP9 ADD MSTORE SWAP2 DUP6 AND PUSH1 0x80 DUP8 ADD MSTORE DUP5 AND PUSH1 0xA0 DUP7 ADD MSTORE SWAP3 SWAP1 SWAP3 AND PUSH1 0xC0 DUP5 ADD MSTORE PUSH1 0xFF SWAP2 DUP3 AND PUSH1 0xE0 DUP5 ADD MSTORE AND PUSH2 0x100 DUP3 ADD MSTORE PUSH2 0x120 ADD JUMPDEST PUSH1 0x40 MLOAD DUP1 SWAP2 SUB SWAP1 RETURN JUMPDEST CALLVALUE DUP1 ISZERO PUSH2 0x2F7 JUMPI PUSH1 0x0 DUP1 REVERT JUMPDEST POP PUSH2 0x30B PUSH2 0x306 CALLDATASIZE PUSH1 0x4 PUSH2 0x2E94 JUMP JUMPDEST PUSH2 0x7EC JUMP JUMPDEST STOP JUMPDEST CALLVALUE DUP1 ISZERO PUSH2 0x319 JUMPI PUSH1 0x0 DUP1 REVERT JUMPDEST POP PUSH2 0x30B PUSH2 0x328 CALLDATASIZE PUSH1 0x4 PUSH2 0x2F57 JUMP JUMPDEST PUSH2 0xC7C JUMP JUMPDEST CALLVALUE DUP1 ISZERO PUSH2 0x339 JUMPI PUSH1 0x0 DUP1 REVERT JUMPDEST POP PUSH2 0x30B PUSH2 0x348 CALLDATASIZE PUSH1 0x4 PUSH2 0x2F87 JUMP JUMPDEST PUSH2 0xD7C JUMP JUMPDEST CALLVALUE DUP1 ISZERO PUSH2 0x359 JUMPI PUSH1 0x0 DUP1 REVERT JUMPDEST POP PUSH2 0x381 PUSH32 0x0 DUP2 JUMP JUMPDEST PUSH1 0x40 MLOAD SWAP1 DUP2 MSTORE PUSH1 0x20 ADD PUSH2 0x2E2 JUMP JUMPDEST CALLVALUE DUP1 ISZERO PUSH2 0x39B JUMPI PUSH1 0x0 DUP1 REVERT JUMPDEST POP PUSH1 0xA SLOAD PUSH2 0x3B6 SWAP1 PUSH1 0x1 PUSH1 0x60 SHL SWAP1 DIV PUSH1 0x1 PUSH1 0x1 PUSH1 0x60 SHL SUB AND DUP2 JUMP JUMPDEST PUSH1 0x40 MLOAD PUSH1 0x1 PUSH1 0x1 PUSH1 0x60 SHL SUB SWAP1 SWAP2 AND DUP2 MSTORE PUSH1 0x20 ADD PUSH2 0x2E2 JUMP JUMPDEST CALLVALUE DUP1 ISZERO PUSH2 0x3DA JUMPI PUSH1 0x0 DUP1 REVERT JUMPDEST POP PUSH1 0x2 SLOAD PUSH2 0x3EE SWAP1 PUSH1 0x1 PUSH1 0x1 PUSH1 0xA0 SHL SUB AND DUP2 JUMP JUMPDEST PUSH1 0x40 MLOAD PUSH1 0x1 PUSH1 0x1 PUSH1 0xA0 SHL SUB SWAP1 SWAP2 AND DUP2 MSTORE PUSH1 0x20 ADD PUSH2 0x2E2 JUMP JUMPDEST CALLVALUE DUP1 ISZERO PUSH2 0x412 JUMPI PUSH1 0x0 DUP1 REVERT JUMPDEST POP PUSH2 0x3B6 PUSH32 0x0 DUP2 JUMP JUMPDEST CALLVALUE DUP1 ISZERO PUSH2 0x446 JUMPI PUSH1 0x0 DUP1 REVERT JUMPDEST POP PUSH2 0x30B PUSH2 0x455 CALLDATASIZE PUSH1 0x4 PUSH2 0x2FA9 JUMP JUMPDEST PUSH2 0xE90 JUMP JUMPDEST CALLVALUE DUP1 ISZERO PUSH2 0x466 JUMPI PUSH1 0x0 DUP1 REVERT JUMPDEST POP PUSH2 0x47A PUSH2 0x475 CALLDATASIZE PUSH1 0x4 PUSH2 0x2FC6 JUMP JUMPDEST PUSH2 0xFE4 JUMP JUMPDEST PUSH1 0x40 MLOAD SWAP1 ISZERO ISZERO DUP2 MSTORE PUSH1 0x20 ADD PUSH2 0x2E2 JUMP JUMPDEST CALLVALUE DUP1 ISZERO PUSH2 0x496 JUMPI PUSH1 0x0 DUP1 REVERT JUMPDEST POP PUSH2 0x30B PUSH2 0x4A5 CALLDATASIZE PUSH1 0x4 PUSH2 0x2FA9 JUMP JUMPDEST PUSH2 0xFFF JUMP JUMPDEST CALLVALUE DUP1 ISZERO PUSH2 0x4B6 JUMPI PUSH1 0x0 DUP1 REVERT JUMPDEST POP PUSH2 0x4BF PUSH1 0x64 DUP2 JUMP JUMPDEST PUSH1 0x40 MLOAD PUSH2 0xFFFF SWAP1 SWAP2 AND DUP2 MSTORE PUSH1 0x20 ADD PUSH2 0x2E2 JUMP JUMPDEST CALLVALUE DUP1 ISZERO PUSH2 0x4DE JUMPI PUSH1 0x0 DUP1 REVERT JUMPDEST POP PUSH2 0x30B PUSH2 0x4ED CALLDATASIZE PUSH1 0x4 PUSH2 0x2FDF JUMP JUMPDEST PUSH2 0x1181 JUMP JUMPDEST CALLVALUE DUP1 ISZERO PUSH2 0x4FE JUMPI PUSH1 0x0 DUP1 REVERT JUMPDEST POP PUSH1 0x3 SLOAD PUSH2 0x3EE SWAP1 PUSH1 0x1 PUSH1 0x1 PUSH1 0xA0 SHL SUB AND DUP2 JUMP JUMPDEST CALLVALUE DUP1 ISZERO PUSH2 0x51E JUMPI PUSH1 0x0 DUP1 REVERT JUMPDEST POP PUSH2 0x30B PUSH2 0x11E1 JUMP JUMPDEST CALLVALUE DUP1 ISZERO PUSH2 0x533 JUMPI PUSH1 0x0 DUP1 REVERT JUMPDEST POP PUSH2 0x30B PUSH2 0x542 CALLDATASIZE PUSH1 0x4 PUSH2 0x2F57 JUMP JUMPDEST PUSH2 0x1290 JUMP JUMPDEST CALLVALUE DUP1 ISZERO PUSH2 0x553 JUMPI PUSH1 0x0 DUP1 REVERT JUMPDEST POP PUSH2 0x30B PUSH2 0x562 CALLDATASIZE PUSH1 0x4 PUSH2 0x2FA9 JUMP JUMPDEST PUSH2 0x12B4 JUMP JUMPDEST CALLVALUE DUP1 ISZERO PUSH2 0x573 JUMPI PUSH1 0x0 DUP1 REVERT JUMPDEST POP PUSH1 0xA SLOAD PUSH2 0x3B6 SWAP1 PUSH1 0x1 PUSH1 0x1 PUSH1 0x60 SHL SUB AND DUP2 JUMP JUMPDEST CALLVALUE DUP1 ISZERO PUSH2 0x593 JUMPI PUSH1 0x0 DUP1 REVERT JUMPDEST POP PUSH2 0x30B PUSH2 0x13CF JUMP JUMPDEST CALLVALUE DUP1 ISZERO PUSH2 0x5A8 JUMPI PUSH1 0x0 DUP1 REVERT JUMPDEST POP PUSH1 0x0 SLOAD PUSH1 0x1 PUSH1 0x1 PUSH1 0xA0 SHL SUB AND PUSH2 0x3EE JUMP JUMPDEST CALLVALUE DUP1 ISZERO PUSH2 0x5C6 JUMPI PUSH1 0x0 DUP1 REVERT JUMPDEST POP PUSH2 0x47A PUSH2 0x5D5 CALLDATASIZE PUSH1 0x4 PUSH2 0x2F57 JUMP JUMPDEST PUSH2 0x1458 JUMP JUMPDEST PUSH2 0x30B PUSH2 0x5E8 CALLDATASIZE PUSH1 0x4 PUSH2 0x2FC6 JUMP JUMPDEST PUSH2 0x1486 JUMP JUMPDEST CALLVALUE DUP1 ISZERO PUSH2 0x5F9 JUMPI PUSH1 0x0 DUP1 REVERT JUMPDEST POP PUSH2 0x381 PUSH2 0x608 CALLDATASIZE PUSH1 0x4 PUSH2 0x300D JUMP JUMPDEST PUSH2 0x15AA JUMP JUMPDEST CALLVALUE DUP1 ISZERO PUSH2 0x619 JUMPI PUSH1 0x0 DUP1 REVERT JUMPDEST POP PUSH1 0x7 SLOAD PUSH2 0x62D SWAP1 PUSH1 0x1 PUSH1 0x1 PUSH1 0x40 SHL SUB AND DUP2 JUMP JUMPDEST PUSH1 0x40 MLOAD PUSH1 0x1 PUSH1 0x1 PUSH1 0x40 SHL SUB SWAP1 SWAP2 AND DUP2 MSTORE PUSH1 0x20 ADD PUSH2 0x2E2 JUMP JUMPDEST CALLVALUE DUP1 ISZERO PUSH2 0x651 JUMPI PUSH1 0x0 DUP1 REVERT JUMPDEST POP PUSH2 0x381 PUSH2 0x180E JUMP JUMPDEST CALLVALUE DUP1 ISZERO PUSH2 0x666 JUMPI PUSH1 0x0 DUP1 REVERT JUMPDEST POP PUSH2 0x30B PUSH2 0x675 CALLDATASIZE PUSH1 0x4 PUSH2 0x3047 JUMP JUMPDEST PUSH2 0x19E4 JUMP JUMPDEST CALLVALUE DUP1 ISZERO PUSH2 0x686 JUMPI PUSH1 0x0 DUP1 REVERT JUMPDEST POP PUSH2 0x30B PUSH2 0x695 CALLDATASIZE PUSH1 0x4 PUSH2 0x2FC6 JUMP JUMPDEST PUSH2 0x1B55 JUMP JUMPDEST CALLVALUE DUP1 ISZERO PUSH2 0x6A6 JUMPI PUSH1 0x0 DUP1 REVERT JUMPDEST POP PUSH2 0x6BA PUSH2 0x6B5 CALLDATASIZE PUSH1 0x4 PUSH2 0x2F87 JUMP JUMPDEST PUSH2 0x1B9D JUMP JUMPDEST PUSH1 0x40 MLOAD PUSH2 0x2E2 SWAP2 SWAP1 PUSH2 0x310A JUMP JUMPDEST CALLVALUE DUP1 ISZERO PUSH2 0x6D3 JUMPI PUSH1 0x0 DUP1 REVERT JUMPDEST POP PUSH2 0x30B PUSH2 0x6E2 CALLDATASIZE PUSH1 0x4 PUSH2 0x2FC6 JUMP JUMPDEST PUSH2 0x1C9E JUMP JUMPDEST CALLVALUE DUP1 ISZERO PUSH2 0x6F3 JUMPI PUSH1 0x0 DUP1 REVERT JUMPDEST POP PUSH2 0x30B PUSH2 0x702 CALLDATASIZE PUSH1 0x4 PUSH2 0x2F57 JUMP JUMPDEST PUSH2 0x1DA2 JUMP JUMPDEST CALLVALUE DUP1 ISZERO PUSH2 0x713 JUMPI PUSH1 0x0 DUP1 REVERT JUMPDEST POP PUSH2 0x30B PUSH2 0x722 CALLDATASIZE PUSH1 0x4 PUSH2 0x2F57 JUMP JUMPDEST PUSH2 0x1E95 JUMP JUMPDEST CALLVALUE DUP1 ISZERO PUSH2 0x733 JUMPI PUSH1 0x0 DUP1 REVERT JUMPDEST POP PUSH2 0x30B PUSH2 0x742 CALLDATASIZE PUSH1 0x4 PUSH2 0x2F57 JUMP JUMPDEST PUSH2 0x2123 JUMP JUMPDEST CALLVALUE DUP1 ISZERO PUSH2 0x753 JUMPI PUSH1 0x0 DUP1 REVERT JUMPDEST POP PUSH2 0x767 PUSH2 0x762 CALLDATASIZE PUSH1 0x4 PUSH2 0x2FC6 JUMP JUMPDEST PUSH2 0x21BD JUMP JUMPDEST PUSH1 0x40 MLOAD PUSH2 0x2E2 SWAP6 SWAP5 SWAP4 SWAP3 SWAP2 SWAP1 PUSH2 0x311D JUMP JUMPDEST CALLVALUE DUP1 ISZERO PUSH2 0x784 JUMPI PUSH1 0x0 DUP1 REVERT JUMPDEST POP PUSH2 0x3B6 PUSH32 0x0 DUP2 JUMP JUMPDEST CALLVALUE DUP1 ISZERO PUSH2 0x7B8 JUMPI PUSH1 0x0 DUP1 REVERT JUMPDEST POP PUSH2 0x30B PUSH2 0x7C7 CALLDATASIZE PUSH1 0x4 PUSH2 0x2FA9 JUMP JUMPDEST PUSH2 0x22AB JUMP JUMPDEST CALLVALUE DUP1 ISZERO PUSH2 0x7D8 JUMPI PUSH1 0x0 DUP1 REVERT JUMPDEST POP PUSH2 0x30B PUSH2 0x7E7 CALLDATASIZE PUSH1 0x4 PUSH2 0x2FA9 JUMP JUMPDEST PUSH2 0x2475 JUMP JUMPDEST PUSH1 0x0 GAS PUSH1 0x0 DUP6 DUP2 MSTORE PUSH1 0x10 PUSH1 0x20 MSTORE PUSH1 0x40 DUP2 KECCAK256 SLOAD SWAP2 SWAP3 POP SUB PUSH2 0x81F JUMPI PUSH1 0x40 MLOAD PUSH4 0x41ABC801 PUSH1 0xE0 SHL DUP2 MSTORE PUSH1 0x4 ADD PUSH1 0x40 MLOAD DUP1 SWAP2 SUB SWAP1 REVERT JUMPDEST PUSH1 0x0 DUP5 DUP2 MSTORE PUSH1 0x10 PUSH1 0x20 SWAP1 DUP2 MSTORE PUSH1 0x40 DUP1 DUP4 KECCAK256 DUP2 MLOAD PUSH1 0x80 DUP2 ADD DUP4 MSTORE DUP2 SLOAD DUP2 MSTORE PUSH1 0x1 DUP3 ADD SLOAD PUSH4 0xFFFFFFFF DUP1 DUP3 AND SWAP6 DUP4 ADD SWAP6 SWAP1 SWAP6 MSTORE PUSH5 0x100000000 SWAP1 DIV SWAP1 SWAP4 AND SWAP2 DUP4 ADD SWAP2 SWAP1 SWAP2 MSTORE PUSH1 0x2 DUP2 ADD DUP1 SLOAD PUSH1 0x60 DUP5 ADD SWAP2 SWAP1 PUSH2 0x877 SWAP1 PUSH2 0x31A3 JUMP JUMPDEST DUP1 PUSH1 0x1F ADD PUSH1 0x20 DUP1 SWAP2 DIV MUL PUSH1 0x20 ADD PUSH1 0x40 MLOAD SWAP1 DUP2 ADD PUSH1 0x40 MSTORE DUP1 SWAP3 SWAP2 SWAP1 DUP2 DUP2 MSTORE PUSH1 0x20 ADD DUP3 DUP1 SLOAD PUSH2 0x8A3 SWAP1 PUSH2 0x31A3 JUMP JUMPDEST DUP1 ISZERO PUSH2 0x8F0 JUMPI DUP1 PUSH1 0x1F LT PUSH2 0x8C5 JUMPI PUSH2 0x100 DUP1 DUP4 SLOAD DIV MUL DUP4 MSTORE SWAP2 PUSH1 0x20 ADD SWAP2 PUSH2 0x8F0 JUMP JUMPDEST DUP3 ADD SWAP2 SWAP1 PUSH1 0x0 MSTORE PUSH1 0x20 PUSH1 0x0 KECCAK256 SWAP1 JUMPDEST DUP2 SLOAD DUP2 MSTORE SWAP1 PUSH1 0x1 ADD SWAP1 PUSH1 0x20 ADD DUP1 DUP4 GT PUSH2 0x8D3 JUMPI DUP3 SWAP1 SUB PUSH1 0x1F AND DUP3 ADD SWAP2 JUMPDEST POP POP POP POP POP DUP2 MSTORE POP POP SWAP1 POP DUP3 MLOAD PUSH1 0x0 SUB PUSH2 0x9C9 JUMPI DUP1 PUSH1 0x40 ADD MLOAD PUSH4 0xFFFFFFFF AND PUSH1 0x1 PUSH1 0x1 PUSH1 0x40 SHL SUB DUP2 GT ISZERO PUSH2 0x926 JUMPI PUSH2 0x926 PUSH2 0x2E4E JUMP JUMPDEST PUSH1 0x40 MLOAD SWAP1 DUP1 DUP3 MSTORE DUP1 PUSH1 0x20 MUL PUSH1 0x20 ADD DUP3 ADD PUSH1 0x40 MSTORE DUP1 ISZERO PUSH2 0x94F JUMPI DUP2 PUSH1 0x20 ADD PUSH1 0x20 DUP3 MUL DUP1 CALLDATASIZE DUP4 CALLDATACOPY ADD SWAP1 POP JUMPDEST POP SWAP3 POP PUSH1 0x0 JUMPDEST DUP2 PUSH1 0x40 ADD MLOAD PUSH4 0xFFFFFFFF AND DUP2 LT ISZERO PUSH2 0x9C3 JUMPI PUSH1 0x40 DUP1 MLOAD PUSH1 0x20 DUP2 ADD DUP9 SWAP1 MSTORE SWAP1 DUP2 ADD DUP3 SWAP1 MSTORE PUSH1 0x60 ADD PUSH1 0x40 MLOAD PUSH1 0x20 DUP2 DUP4 SUB SUB DUP2 MSTORE SWAP1 PUSH1 0x40 MSTORE DUP1 MLOAD SWAP1 PUSH1 0x20 ADD KECCAK256 PUSH1 0x0 SHR DUP5 DUP3 DUP2 MLOAD DUP2 LT PUSH2 0x9A6 JUMPI PUSH2 0x9A6 PUSH2 0x31DD JUMP JUMPDEST PUSH1 0x20 SWAP1 DUP2 MUL SWAP2 SWAP1 SWAP2 ADD ADD MSTORE DUP1 PUSH2 0x9BB DUP2 PUSH2 0x3209 JUMP JUMPDEST SWAP2 POP POP PUSH2 0x955 JUMP JUMPDEST POP PUSH2 0x9F4 JUMP JUMPDEST DUP1 PUSH1 0x40 ADD MLOAD PUSH4 0xFFFFFFFF AND DUP4 MLOAD EQ PUSH2 0x9F4 JUMPI PUSH1 0x40 MLOAD PUSH4 0x1F9EFADB PUSH1 0xE1 SHL DUP2 MSTORE PUSH1 0x4 ADD PUSH1 0x40 MLOAD DUP1 SWAP2 SUB SWAP1 REVERT JUMPDEST PUSH1 0x0 DUP1 PUSH4 0x1FE543E3 PUSH1 0xE0 SHL DUP8 DUP7 PUSH1 0x40 MLOAD PUSH1 0x24 ADD PUSH2 0xA12 SWAP3 SWAP2 SWAP1 PUSH2 0x3222 JUMP JUMPDEST PUSH1 0x40 DUP1 MLOAD PUSH1 0x1F NOT DUP2 DUP5 SUB ADD DUP2 MSTORE SWAP2 DUP2 MSTORE PUSH1 0x20 DUP1 DUP4 ADD DUP1 MLOAD PUSH1 0x1 PUSH1 0x1 PUSH1 0xE0 SHL SUB AND PUSH1 0x1 PUSH1 0x1 PUSH1 0xE0 SHL SUB NOT SWAP1 SWAP6 AND SWAP5 SWAP1 SWAP5 OR SWAP1 SWAP4 MSTORE PUSH1 0xC DUP1 SLOAD PUSH7 0xFF000000000000 NOT AND PUSH1 0x1 PUSH1 0x30 SHL OR SWAP1 SSTORE SWAP2 DUP6 ADD MLOAD SWAP2 MLOAD SWAP1 SWAP3 POP PUSH1 0x0 SWAP2 PUSH1 0x1 PUSH1 0x1 PUSH1 0xA0 SHL SUB DUP10 AND SWAP2 PUSH4 0xFFFFFFFF SWAP1 SWAP2 AND SWAP1 PUSH2 0xA86 SWAP1 DUP6 SWAP1 PUSH2 0x3267 JUMP JUMPDEST PUSH1 0x0 PUSH1 0x40 MLOAD DUP1 DUP4 SUB DUP2 PUSH1 0x0 DUP8 DUP8 CALL SWAP3 POP POP POP RETURNDATASIZE DUP1 PUSH1 0x0 DUP2 EQ PUSH2 0xAC4 JUMPI PUSH1 0x40 MLOAD SWAP2 POP PUSH1 0x1F NOT PUSH1 0x3F RETURNDATASIZE ADD AND DUP3 ADD PUSH1 0x40 MSTORE RETURNDATASIZE DUP3 MSTORE RETURNDATASIZE PUSH1 0x0 PUSH1 0x20 DUP5 ADD RETURNDATACOPY PUSH2 0xAC9 JUMP JUMPDEST PUSH1 0x60 SWAP2 POP JUMPDEST POP POP PUSH1 0xC DUP1 SLOAD PUSH7 0xFF000000000000 NOT AND SWAP1 SSTORE PUSH1 0x60 DUP6 ADD MLOAD DUP1 MLOAD SWAP2 SWAP3 POP PUSH1 0x0 SWAP2 PUSH2 0xAF4 SWAP1 PUSH1 0x1 SWAP1 PUSH2 0x3283 JUMP JUMPDEST DUP2 MLOAD DUP2 LT PUSH2 0xB04 JUMPI PUSH2 0xB04 PUSH2 0x31DD JUMP JUMPDEST PUSH1 0x20 SWAP2 ADD ADD MLOAD PUSH1 0xF8 SHR PUSH1 0x1 EQ SWAP1 POP PUSH1 0x0 PUSH32 0x0 PUSH1 0x1 PUSH1 0x1 PUSH1 0x60 SHL SUB AND GAS PUSH2 0xB49 SWAP1 DUP10 PUSH2 0x3283 JUMP JUMPDEST PUSH2 0xB53 SWAP2 SWAP1 PUSH2 0x3296 JUMP JUMPDEST PUSH2 0xB86 SWAP1 PUSH1 0x1 PUSH1 0x1 PUSH1 0x60 SHL SUB PUSH32 0x0 AND PUSH2 0x32AD JUMP JUMPDEST SWAP1 POP DUP2 PUSH2 0xBCD JUMPI PUSH32 0x0 PUSH2 0xBC0 DUP3 PUSH8 0xDE0B6B3A7640000 PUSH2 0x3296 JUMP JUMPDEST PUSH2 0xBCA SWAP2 SWAP1 PUSH2 0x32C0 JUMP JUMPDEST SWAP1 POP JUMPDEST DUP6 MLOAD DUP2 SWAP1 PUSH2 0xBDE SWAP1 DUP3 SWAP1 DUP6 SWAP1 PUSH2 0x2489 JUMP JUMPDEST PUSH1 0x0 DUP12 DUP2 MSTORE PUSH1 0x10 PUSH1 0x20 MSTORE PUSH1 0x40 DUP2 KECCAK256 DUP2 DUP2 SSTORE PUSH1 0x1 DUP2 ADD DUP1 SLOAD PUSH8 0xFFFFFFFFFFFFFFFF NOT AND SWAP1 SSTORE SWAP1 PUSH2 0xC10 PUSH1 0x2 DUP4 ADD DUP3 PUSH2 0x2D6B JUMP JUMPDEST POP POP DUP7 MLOAD PUSH1 0x40 DUP1 MLOAD DUP14 DUP2 MSTORE PUSH1 0x1 PUSH1 0x1 PUSH1 0x60 SHL SUB DUP5 AND PUSH1 0x20 DUP3 ADD MSTORE DUP6 ISZERO ISZERO DUP2 DUP4 ADD MSTORE DUP7 ISZERO ISZERO PUSH1 0x60 DUP3 ADD MSTORE PUSH1 0x0 PUSH1 0x80 DUP3 ADD MSTORE SWAP1 MLOAD DUP14 SWAP2 PUSH32 0xAEB4B4786571E184246D39587F659ABF0E26F41F6A3358692250382C0CDB47B7 SWAP2 SWAP1 DUP2 SWAP1 SUB PUSH1 0xA0 ADD SWAP1 LOG3 POP POP POP POP POP POP POP POP POP POP POP JUMP JUMPDEST DUP2 PUSH2 0xC86 DUP2 PUSH2 0x25E6 JUMP JUMPDEST PUSH2 0xC8E PUSH2 0x2650 JUMP JUMPDEST PUSH1 0x0 DUP1 PUSH2 0xC9A DUP6 PUSH2 0x267D JUMP JUMPDEST SWAP2 POP SWAP2 POP PUSH1 0x0 DUP5 PUSH1 0x1 PUSH1 0x1 PUSH1 0xA0 SHL SUB AND DUP3 PUSH1 0x1 PUSH1 0x1 PUSH1 0x60 SHL SUB AND PUSH1 0x40 MLOAD PUSH1 0x0 PUSH1 0x40 MLOAD DUP1 DUP4 SUB DUP2 DUP6 DUP8 GAS CALL SWAP3 POP POP POP RETURNDATASIZE DUP1 PUSH1 0x0 DUP2 EQ PUSH2 0xCF4 JUMPI PUSH1 0x40 MLOAD SWAP2 POP PUSH1 0x1F NOT PUSH1 0x3F RETURNDATASIZE ADD AND DUP3 ADD PUSH1 0x40 MSTORE RETURNDATASIZE DUP3 MSTORE RETURNDATASIZE PUSH1 0x0 PUSH1 0x20 DUP5 ADD RETURNDATACOPY PUSH2 0xCF9 JUMP JUMPDEST PUSH1 0x60 SWAP2 POP JUMPDEST POP POP SWAP1 POP DUP1 PUSH2 0xD1B JUMPI PUSH1 0x40 MLOAD PUSH4 0x950B2479 PUSH1 0xE0 SHL DUP2 MSTORE PUSH1 0x4 ADD PUSH1 0x40 MLOAD DUP1 SWAP2 SUB SWAP1 REVERT JUMPDEST PUSH1 0x40 DUP1 MLOAD PUSH1 0x1 PUSH1 0x1 PUSH1 0xA0 SHL SUB DUP8 AND DUP2 MSTORE PUSH1 0x1 PUSH1 0x1 PUSH1 0x60 SHL SUB DUP1 DUP7 AND PUSH1 0x20 DUP4 ADD MSTORE DUP5 AND SWAP2 DUP2 ADD SWAP2 SWAP1 SWAP2 MSTORE DUP7 SWAP1 PUSH32 0x8C74CE8B8CF87F5EB001275C8BE27EB34EA2B62BFAB6814FCC62192BB63E81C4 SWAP1 PUSH1 0x60 ADD JUMPDEST PUSH1 0x40 MLOAD DUP1 SWAP2 SUB SWAP1 LOG2 POP POP POP POP POP POP JUMP JUMPDEST PUSH1 0x0 DUP3 DUP2 MSTORE PUSH1 0x5 PUSH1 0x20 MSTORE PUSH1 0x40 SWAP1 KECCAK256 SLOAD PUSH1 0x1 PUSH1 0x1 PUSH1 0xA0 SHL SUB AND PUSH2 0xDB1 JUMPI PUSH1 0x40 MLOAD PUSH4 0xFB532DB PUSH1 0xE1 SHL DUP2 MSTORE PUSH1 0x4 ADD PUSH1 0x40 MLOAD DUP1 SWAP2 SUB SWAP1 REVERT JUMPDEST PUSH1 0x0 DUP3 DUP2 MSTORE PUSH1 0x6 PUSH1 0x20 MSTORE PUSH1 0x40 DUP2 KECCAK256 DUP1 SLOAD PUSH1 0x1 PUSH1 0x1 PUSH1 0x60 SHL SUB AND SWAP2 DUP4 SWAP2 SWAP1 PUSH2 0xDD8 DUP4 DUP6 PUSH2 0x32E2 JUMP JUMPDEST SWAP3 POP PUSH2 0x100 EXP DUP2 SLOAD DUP2 PUSH1 0x1 PUSH1 0x1 PUSH1 0x60 SHL SUB MUL NOT AND SWAP1 DUP4 PUSH1 0x1 PUSH1 0x1 PUSH1 0x60 SHL SUB AND MUL OR SWAP1 SSTORE POP DUP2 PUSH1 0xA PUSH1 0x0 DUP3 DUP3 DUP3 SWAP1 SLOAD SWAP1 PUSH2 0x100 EXP SWAP1 DIV PUSH1 0x1 PUSH1 0x1 PUSH1 0x60 SHL SUB AND PUSH2 0xE20 SWAP2 SWAP1 PUSH2 0x32E2 JUMP JUMPDEST SWAP3 POP PUSH2 0x100 EXP DUP2 SLOAD DUP2 PUSH1 0x1 PUSH1 0x1 PUSH1 0x60 SHL SUB MUL NOT AND SWAP1 DUP4 PUSH1 0x1 PUSH1 0x1 PUSH1 0x60 SHL SUB AND MUL OR SWAP1 SSTORE POP DUP3 PUSH32 0x1CED9348FF549FCEAB2AC57CD3A9DE38EDAAAB274B725EE82C23E8FC8C4EEC7A DUP3 DUP5 DUP5 PUSH2 0xE73 SWAP2 SWAP1 PUSH2 0x32AD JUMP JUMPDEST PUSH1 0x40 DUP1 MLOAD SWAP3 DUP4 MSTORE PUSH1 0x20 DUP4 ADD SWAP2 SWAP1 SWAP2 MSTORE ADD PUSH1 0x40 MLOAD DUP1 SWAP2 SUB SWAP1 LOG2 POP POP POP JUMP JUMPDEST PUSH2 0xE98 PUSH2 0x2650 JUMP JUMPDEST PUSH2 0xEA0 PUSH2 0x282F JUMP JUMPDEST PUSH1 0xB SLOAD PUSH1 0x1 PUSH1 0x60 SHL SWAP1 DIV PUSH1 0x1 PUSH1 0x1 PUSH1 0x60 SHL SUB AND PUSH1 0x0 SUB PUSH2 0xED3 JUMPI PUSH1 0x40 MLOAD PUSH4 0x1E9ACF17 PUSH1 0xE3 SHL DUP2 MSTORE PUSH1 0x4 ADD PUSH1 0x40 MLOAD DUP1 SWAP2 SUB SWAP1 REVERT JUMPDEST PUSH1 0xB DUP1 SLOAD PUSH1 0x1 PUSH1 0x60 SHL SWAP1 DIV PUSH1 0x1 PUSH1 0x1 PUSH1 0x60 SHL SUB AND SWAP1 DUP2 SWAP1 PUSH1 0xC PUSH2 0xEF6 DUP4 DUP1 PUSH2 0x3302 JUMP JUMPDEST SWAP3 POP PUSH2 0x100 EXP DUP2 SLOAD DUP2 PUSH1 0x1 PUSH1 0x1 PUSH1 0x60 SHL SUB MUL NOT AND SWAP1 DUP4 PUSH1 0x1 PUSH1 0x1 PUSH1 0x60 SHL SUB AND MUL OR SWAP1 SSTORE POP DUP1 PUSH1 0xA PUSH1 0xC DUP3 DUP3 DUP3 SWAP1 SLOAD SWAP1 PUSH2 0x100 EXP SWAP1 DIV PUSH1 0x1 PUSH1 0x1 PUSH1 0x60 SHL SUB AND PUSH2 0xF3E SWAP2 SWAP1 PUSH2 0x3302 JUMP JUMPDEST SWAP3 POP PUSH2 0x100 EXP DUP2 SLOAD DUP2 PUSH1 0x1 PUSH1 0x1 PUSH1 0x60 SHL SUB MUL NOT AND SWAP1 DUP4 PUSH1 0x1 PUSH1 0x1 PUSH1 0x60 SHL SUB AND MUL OR SWAP1 SSTORE POP PUSH1 0x0 DUP3 PUSH1 0x1 PUSH1 0x1 PUSH1 0xA0 SHL SUB AND DUP3 PUSH1 0x1 PUSH1 0x1 PUSH1 0x60 SHL SUB AND PUSH1 0x40 MLOAD PUSH1 0x0 PUSH1 0x40 MLOAD DUP1 DUP4 SUB DUP2 DUP6 DUP8 GAS CALL SWAP3 POP POP POP RETURNDATASIZE DUP1 PUSH1 0x0 DUP2 EQ PUSH2 0xFB8 JUMPI PUSH1 0x40 MLOAD SWAP2 POP PUSH1 0x1F NOT PUSH1 0x3F RETURNDATASIZE ADD AND DUP3 ADD PUSH1 0x40 MSTORE RETURNDATASIZE DUP3 MSTORE RETURNDATASIZE PUSH1 0x0 PUSH1 0x20 DUP5 ADD RETURNDATACOPY PUSH2 0xFBD JUMP JUMPDEST PUSH1 0x60 SWAP2 POP JUMPDEST POP POP SWAP1 POP DUP1 PUSH2 0xFDF JUMPI PUSH1 0x40 MLOAD PUSH4 0x950B2479 PUSH1 0xE0 SHL DUP2 MSTORE PUSH1 0x4 ADD PUSH1 0x40 MLOAD DUP1 SWAP2 SUB SWAP1 REVERT JUMPDEST POP POP POP JUMP JUMPDEST PUSH1 0x0 PUSH1 0x40 MLOAD PUSH4 0xD6234725 PUSH1 0xE0 SHL DUP2 MSTORE PUSH1 0x4 ADD PUSH1 0x40 MLOAD DUP1 SWAP2 SUB SWAP1 REVERT JUMPDEST PUSH2 0x1007 PUSH2 0x2650 JUMP JUMPDEST PUSH2 0x100F PUSH2 0x282F JUMP JUMPDEST PUSH1 0x2 SLOAD PUSH1 0x1 PUSH1 0x1 PUSH1 0xA0 SHL SUB AND PUSH2 0x1038 JUMPI PUSH1 0x40 MLOAD PUSH4 0xC1F0C0A1 PUSH1 0xE0 SHL DUP2 MSTORE PUSH1 0x4 ADD PUSH1 0x40 MLOAD DUP1 SWAP2 SUB SWAP1 REVERT JUMPDEST PUSH1 0xB SLOAD PUSH1 0x1 PUSH1 0x1 PUSH1 0x60 SHL SUB AND PUSH1 0x0 SUB PUSH2 0x1064 JUMPI PUSH1 0x40 MLOAD PUSH4 0x1E9ACF17 PUSH1 0xE3 SHL DUP2 MSTORE PUSH1 0x4 ADD PUSH1 0x40 MLOAD DUP1 SWAP2 SUB SWAP1 REVERT JUMPDEST PUSH1 0xB DUP1 SLOAD PUSH1 0x1 PUSH1 0x1 PUSH1 0x60 SHL SUB AND SWAP1 DUP2 SWAP1 PUSH1 0x0 PUSH2 0x1080 DUP4 DUP1 PUSH2 0x3302 JUMP JUMPDEST SWAP3 POP PUSH2 0x100 EXP DUP2 SLOAD DUP2 PUSH1 0x1 PUSH1 0x1 PUSH1 0x60 SHL SUB MUL NOT AND SWAP1 DUP4 PUSH1 0x1 PUSH1 0x1 PUSH1 0x60 SHL SUB AND MUL OR SWAP1 SSTORE POP DUP1 PUSH1 0xA PUSH1 0x0 DUP3 DUP3 DUP3 SWAP1 SLOAD SWAP1 PUSH2 0x100 EXP SWAP1 DIV PUSH1 0x1 PUSH1 0x1 PUSH1 0x60 SHL SUB AND PUSH2 0x10C8 SWAP2 SWAP1 PUSH2 0x3302 JUMP JUMPDEST DUP3 SLOAD PUSH2 0x100 SWAP3 SWAP1 SWAP3 EXP PUSH1 0x1 PUSH1 0x1 PUSH1 0x60 SHL SUB DUP2 DUP2 MUL NOT SWAP1 SWAP4 AND SWAP2 DUP4 AND MUL OR SWAP1 SWAP2 SSTORE PUSH1 0x2 SLOAD PUSH1 0x40 MLOAD PUSH4 0xA9059CBB PUSH1 0xE0 SHL DUP2 MSTORE PUSH1 0x1 PUSH1 0x1 PUSH1 0xA0 SHL SUB DUP7 DUP2 AND PUSH1 0x4 DUP4 ADD MSTORE SWAP3 DUP6 AND PUSH1 0x24 DUP3 ADD MSTORE SWAP2 AND SWAP2 POP PUSH4 0xA9059CBB SWAP1 PUSH1 0x44 ADD PUSH1 0x20 PUSH1 0x40 MLOAD DUP1 DUP4 SUB DUP2 PUSH1 0x0 DUP8 GAS CALL ISZERO DUP1 ISZERO PUSH2 0x113C JUMPI RETURNDATASIZE PUSH1 0x0 DUP1 RETURNDATACOPY RETURNDATASIZE PUSH1 0x0 REVERT JUMPDEST POP POP POP POP PUSH1 0x40 MLOAD RETURNDATASIZE PUSH1 0x1F NOT PUSH1 0x1F DUP3 ADD AND DUP3 ADD DUP1 PUSH1 0x40 MSTORE POP DUP2 ADD SWAP1 PUSH2 0x1160 SWAP2 SWAP1 PUSH2 0x3330 JUMP JUMPDEST PUSH2 0x117D JUMPI PUSH1 0x40 MLOAD PUSH4 0x1E9ACF17 PUSH1 0xE3 SHL DUP2 MSTORE PUSH1 0x4 ADD PUSH1 0x40 MLOAD DUP1 SWAP2 SUB SWAP1 REVERT JUMPDEST POP POP JUMP JUMPDEST PUSH2 0x1189 PUSH2 0x282F JUMP JUMPDEST PUSH1 0x2 SLOAD PUSH1 0x1 PUSH1 0x1 PUSH1 0xA0 SHL SUB AND ISZERO PUSH2 0x11B3 JUMPI PUSH1 0x40 MLOAD PUSH4 0x1688C537 PUSH1 0xE1 SHL DUP2 MSTORE PUSH1 0x4 ADD PUSH1 0x40 MLOAD DUP1 SWAP2 SUB SWAP1 REVERT JUMPDEST PUSH1 0x2 DUP1 SLOAD PUSH1 0x1 PUSH1 0x1 PUSH1 0xA0 SHL SUB SWAP4 DUP5 AND PUSH1 0x1 PUSH1 0x1 PUSH1 0xA0 SHL SUB NOT SWAP2 DUP3 AND OR SWAP1 SWAP2 SSTORE PUSH1 0x3 DUP1 SLOAD SWAP3 SWAP1 SWAP4 AND SWAP2 AND OR SWAP1 SSTORE JUMP JUMPDEST PUSH1 0x1 SLOAD PUSH1 0x1 PUSH1 0x1 PUSH1 0xA0 SHL SUB AND CALLER EQ PUSH2 0x1239 JUMPI PUSH1 0x40 MLOAD PUSH3 0x461BCD PUSH1 0xE5 SHL DUP2 MSTORE PUSH1 0x20 PUSH1 0x4 DUP3 ADD MSTORE PUSH1 0x16 PUSH1 0x24 DUP3 ADD MSTORE PUSH22 0x26BAB9BA10313290383937B837B9B2B21037BBB732B9 PUSH1 0x51 SHL PUSH1 0x44 DUP3 ADD MSTORE PUSH1 0x64 ADD JUMPDEST PUSH1 0x40 MLOAD DUP1 SWAP2 SUB SWAP1 REVERT JUMPDEST PUSH1 0x0 DUP1 SLOAD CALLER PUSH1 0x1 PUSH1 0x1 PUSH1 0xA0 SHL SUB NOT DUP1 DUP4 AND DUP3 OR DUP5 SSTORE PUSH1 0x1 DUP1 SLOAD SWAP1 SWAP2 AND SWAP1 SSTORE PUSH1 0x40 MLOAD PUSH1 0x1 PUSH1 0x1 PUSH1 0xA0 SHL SUB SWAP1 SWAP3 AND SWAP3 SWAP1 SWAP2 DUP4 SWAP2 PUSH32 0x8BE0079C531659141344CD1FD0A4F28419497F9722A3DAAFE3B4186F6B6457E0 SWAP2 LOG3 POP JUMP JUMPDEST PUSH2 0x1298 PUSH2 0x2650 JUMP JUMPDEST PUSH1 0x40 DUP1 MLOAD PUSH1 0x0 DUP2 MSTORE PUSH1 0x20 DUP2 ADD SWAP1 SWAP2 MSTORE PUSH2 0x117D SWAP1 DUP4 SWAP1 DUP4 SWAP1 PUSH2 0x7EC JUMP JUMPDEST PUSH2 0x12BC PUSH2 0x282F JUMP JUMPDEST PUSH1 0xA SLOAD SELFBALANCE SWAP1 PUSH1 0x1 PUSH1 0x60 SHL SWAP1 DIV PUSH1 0x1 PUSH1 0x1 PUSH1 0x60 SHL SUB AND DUP2 DUP2 GT ISZERO PUSH2 0x12FC JUMPI PUSH1 0x40 MLOAD PUSH4 0x54CED181 PUSH1 0xE1 SHL DUP2 MSTORE PUSH1 0x4 DUP2 ADD DUP3 SWAP1 MSTORE PUSH1 0x24 DUP2 ADD DUP4 SWAP1 MSTORE PUSH1 0x44 ADD PUSH2 0x1230 JUMP JUMPDEST DUP2 DUP2 LT ISZERO PUSH2 0xFDF JUMPI PUSH1 0x0 PUSH2 0x1310 DUP3 DUP5 PUSH2 0x3283 JUMP JUMPDEST SWAP1 POP PUSH1 0x0 DUP5 PUSH1 0x1 PUSH1 0x1 PUSH1 0xA0 SHL SUB AND DUP3 PUSH1 0x40 MLOAD PUSH1 0x0 PUSH1 0x40 MLOAD DUP1 DUP4 SUB DUP2 DUP6 DUP8 GAS CALL SWAP3 POP POP POP RETURNDATASIZE DUP1 PUSH1 0x0 DUP2 EQ PUSH2 0x135F JUMPI PUSH1 0x40 MLOAD SWAP2 POP PUSH1 0x1F NOT PUSH1 0x3F RETURNDATASIZE ADD AND DUP3 ADD PUSH1 0x40 MSTORE RETURNDATASIZE DUP3 MSTORE RETURNDATASIZE PUSH1 0x0 PUSH1 0x20 DUP5 ADD RETURNDATACOPY PUSH2 0x1364 JUMP JUMPDEST PUSH1 0x60 SWAP2 POP JUMPDEST POP POP SWAP1 POP DUP1 PUSH2 0x1386 JUMPI PUSH1 0x40 MLOAD PUSH4 0x950B2479 PUSH1 0xE0 SHL DUP2 MSTORE PUSH1 0x4 ADD PUSH1 0x40 MLOAD DUP1 SWAP2 SUB SWAP1 REVERT JUMPDEST PUSH1 0x40 DUP1 MLOAD PUSH1 0x1 PUSH1 0x1 PUSH1 0xA0 SHL SUB DUP8 AND DUP2 MSTORE PUSH1 0x20 DUP2 ADD DUP5 SWAP1 MSTORE PUSH32 0x4AED7C8EED0496C8C19EA2681FCCA25741C1602342E38B045D9F1E8E905D2E9C SWAP2 ADD PUSH1 0x40 MLOAD DUP1 SWAP2 SUB SWAP1 LOG1 POP POP POP POP POP JUMP JUMPDEST PUSH2 0x13D7 PUSH2 0x282F JUMP JUMPDEST PUSH1 0x40 DUP1 MLOAD PUSH2 0x120 DUP2 ADD DUP3 MSTORE PUSH1 0x0 DUP1 DUP3 MSTORE PUSH1 0x20 DUP3 ADD DUP2 SWAP1 MSTORE DUP2 DUP4 ADD DUP2 SWAP1 MSTORE PUSH1 0x60 DUP3 ADD DUP2 SWAP1 MSTORE PUSH1 0x80 DUP3 ADD DUP2 SWAP1 MSTORE PUSH1 0xA0 DUP3 ADD DUP2 SWAP1 MSTORE PUSH1 0xC0 DUP3 ADD DUP2 SWAP1 MSTORE PUSH1 0xE0 DUP3 ADD DUP2 SWAP1 MSTORE PUSH2 0x100 SWAP1 SWAP2 ADD DUP2 SWAP1 MSTORE PUSH1 0xC DUP1 SLOAD PUSH1 0x1 PUSH1 0x1 PUSH1 0xC8 SHL SUB NOT AND SWAP1 SSTORE SWAP1 MLOAD PUSH32 0x4B2974A542484CBA2783812FF8033F7FC682CAC2FE0905C28C5E27869B3155BE SWAP2 SWAP1 LOG1 JUMP JUMPDEST PUSH1 0x1 PUSH1 0x1 PUSH1 0xA0 SHL SUB DUP2 AND PUSH1 0x0 SWAP1 DUP2 MSTORE PUSH1 0x4 PUSH1 0x20 SWAP1 DUP2 MSTORE PUSH1 0x40 DUP1 DUP4 KECCAK256 DUP6 DUP5 MSTORE SWAP1 SWAP2 MSTORE SWAP1 KECCAK256 SLOAD PUSH1 0xFF AND JUMPDEST SWAP3 SWAP2 POP POP JUMP JUMPDEST PUSH2 0x148E PUSH2 0x2650 JUMP JUMPDEST PUSH1 0x0 DUP2 DUP2 MSTORE PUSH1 0x5 PUSH1 0x20 MSTORE PUSH1 0x40 SWAP1 KECCAK256 SLOAD PUSH1 0x1 PUSH1 0x1 PUSH1 0xA0 SHL SUB AND PUSH2 0x14C3 JUMPI PUSH1 0x40 MLOAD PUSH4 0xFB532DB PUSH1 0xE1 SHL DUP2 MSTORE PUSH1 0x4 ADD PUSH1 0x40 MLOAD DUP1 SWAP2 SUB SWAP1 REVERT JUMPDEST PUSH1 0x0 DUP2 DUP2 MSTORE PUSH1 0x6 PUSH1 0x20 MSTORE PUSH1 0x40 SWAP1 KECCAK256 DUP1 SLOAD PUSH1 0x1 PUSH1 0x60 SHL SWAP1 DIV PUSH1 0x1 PUSH1 0x1 PUSH1 0x60 SHL SUB AND SWAP1 CALLVALUE SWAP1 PUSH1 0xC PUSH2 0x14F2 DUP4 DUP6 PUSH2 0x32E2 JUMP JUMPDEST SWAP3 POP PUSH2 0x100 EXP DUP2 SLOAD DUP2 PUSH1 0x1 PUSH1 0x1 PUSH1 0x60 SHL SUB MUL NOT AND SWAP1 DUP4 PUSH1 0x1 PUSH1 0x1 PUSH1 0x60 SHL SUB AND MUL OR SWAP1 SSTORE POP CALLVALUE PUSH1 0xA PUSH1 0xC DUP3 DUP3 DUP3 SWAP1 SLOAD SWAP1 PUSH2 0x100 EXP SWAP1 DIV PUSH1 0x1 PUSH1 0x1 PUSH1 0x60 SHL SUB AND PUSH2 0x153A SWAP2 SWAP1 PUSH2 0x32E2 JUMP JUMPDEST SWAP3 POP PUSH2 0x100 EXP DUP2 SLOAD DUP2 PUSH1 0x1 PUSH1 0x1 PUSH1 0x60 SHL SUB MUL NOT AND SWAP1 DUP4 PUSH1 0x1 PUSH1 0x1 PUSH1 0x60 SHL SUB AND MUL OR SWAP1 SSTORE POP DUP2 PUSH32 0x7603B205D03651EE812F803FCCDE89F1012E545A9C99F0ABFEA9CEDD0FD8E902 DUP3 CALLVALUE DUP5 PUSH2 0x158D SWAP2 SWAP1 PUSH2 0x32AD JUMP JUMPDEST PUSH1 0x40 DUP1 MLOAD SWAP3 DUP4 MSTORE PUSH1 0x20 DUP4 ADD SWAP2 SWAP1 SWAP2 MSTORE ADD JUMPDEST PUSH1 0x40 MLOAD DUP1 SWAP2 SUB SWAP1 LOG2 POP POP JUMP JUMPDEST PUSH1 0x0 PUSH2 0x15B4 PUSH2 0x2650 JUMP JUMPDEST DUP2 PUSH1 0x20 ADD CALLDATALOAD CALLER PUSH2 0x15C4 DUP3 DUP3 PUSH2 0x1458 JUMP JUMPDEST PUSH2 0x15F3 JUMPI PUSH1 0x40 MLOAD PUSH4 0x79BFD401 PUSH1 0xE0 SHL DUP2 MSTORE PUSH1 0x4 DUP2 ADD DUP4 SWAP1 MSTORE PUSH1 0x1 PUSH1 0x1 PUSH1 0xA0 SHL SUB DUP3 AND PUSH1 0x24 DUP3 ADD MSTORE PUSH1 0x44 ADD PUSH2 0x1230 JUMP JUMPDEST PUSH1 0x20 DUP1 DUP6 ADD CALLDATALOAD PUSH1 0x0 DUP2 DUP2 MSTORE PUSH1 0x5 SWAP1 SWAP3 MSTORE PUSH1 0x40 SWAP1 SWAP2 KECCAK256 SLOAD PUSH1 0x1 PUSH1 0x1 PUSH1 0xA0 SHL SUB AND PUSH2 0x162F JUMPI PUSH1 0x40 MLOAD PUSH4 0xFB532DB PUSH1 0xE1 SHL DUP2 MSTORE PUSH1 0x4 ADD PUSH1 0x40 MLOAD DUP1 SWAP2 SUB SWAP1 REVERT JUMPDEST PUSH1 0xE DUP1 SLOAD PUSH1 0x0 SWAP2 DUP3 PUSH2 0x1640 DUP4 PUSH2 0x3209 JUMP JUMPDEST SWAP1 SWAP2 SSTORE POP PUSH1 0xF DUP1 SLOAD SWAP2 SWAP3 POP PUSH1 0x0 SWAP2 SWAP1 DUP3 PUSH2 0x1659 DUP4 PUSH2 0x3209 JUMP JUMPDEST SWAP1 SWAP2 SSTORE POP SWAP1 POP PUSH1 0x0 PUSH2 0x167E PUSH2 0x1679 PUSH2 0x1674 PUSH1 0xA0 DUP12 ADD DUP12 PUSH2 0x334D JUMP JUMPDEST PUSH2 0x2882 JUMP JUMPDEST PUSH2 0x290A JUMP JUMPDEST SWAP1 POP PUSH1 0x40 MLOAD DUP1 PUSH1 0x80 ADD PUSH1 0x40 MSTORE DUP1 DUP10 PUSH1 0x20 ADD CALLDATALOAD DUP2 MSTORE PUSH1 0x20 ADD DUP10 PUSH1 0x60 ADD PUSH1 0x20 DUP2 ADD SWAP1 PUSH2 0x16A8 SWAP2 SWAP1 PUSH2 0x339A JUMP JUMPDEST PUSH4 0xFFFFFFFF AND DUP2 MSTORE PUSH1 0x20 ADD PUSH2 0x16C3 PUSH1 0xA0 DUP12 ADD PUSH1 0x80 DUP13 ADD PUSH2 0x339A JUMP JUMPDEST PUSH4 0xFFFFFFFF AND DUP2 MSTORE PUSH1 0x20 ADD PUSH2 0x16DB PUSH1 0xA0 DUP12 ADD DUP12 PUSH2 0x334D JUMP JUMPDEST DUP1 DUP1 PUSH1 0x1F ADD PUSH1 0x20 DUP1 SWAP2 DIV MUL PUSH1 0x20 ADD PUSH1 0x40 MLOAD SWAP1 DUP2 ADD PUSH1 0x40 MSTORE DUP1 SWAP4 SWAP3 SWAP2 SWAP1 DUP2 DUP2 MSTORE PUSH1 0x20 ADD DUP4 DUP4 DUP1 DUP3 DUP5 CALLDATACOPY PUSH1 0x0 SWAP3 ADD DUP3 SWAP1 MSTORE POP SWAP4 SWAP1 SWAP5 MSTORE POP POP DUP6 DUP2 MSTORE PUSH1 0x10 PUSH1 0x20 SWAP1 DUP2 MSTORE PUSH1 0x40 SWAP2 DUP3 SWAP1 KECCAK256 DUP5 MLOAD DUP2 SSTORE SWAP1 DUP5 ADD MLOAD PUSH1 0x1 DUP3 ADD DUP1 SLOAD SWAP4 DUP7 ADD MLOAD PUSH4 0xFFFFFFFF SWAP1 DUP2 AND PUSH5 0x100000000 MUL PUSH8 0xFFFFFFFFFFFFFFFF NOT SWAP1 SWAP6 AND SWAP3 AND SWAP2 SWAP1 SWAP2 OR SWAP3 SWAP1 SWAP3 OR SWAP1 SWAP2 SSTORE PUSH1 0x60 DUP4 ADD MLOAD SWAP1 SWAP2 POP PUSH1 0x2 DUP3 ADD SWAP1 PUSH2 0x1773 SWAP1 DUP3 PUSH2 0x340E JUMP JUMPDEST POP SWAP1 POP POP CALLER PUSH1 0x1 PUSH1 0x1 PUSH1 0xA0 SHL SUB AND DUP9 PUSH1 0x20 ADD CALLDATALOAD DUP10 PUSH1 0x0 ADD CALLDATALOAD PUSH32 0xEB0E3652E0F44F417695E6E90F2F42C99B65CD7169074C5A654B16B9748C3A4E DUP7 DUP7 DUP14 PUSH1 0x40 ADD PUSH1 0x20 DUP2 ADD SWAP1 PUSH2 0x17C1 SWAP2 SWAP1 PUSH2 0x34CD JUMP JUMPDEST DUP15 PUSH1 0x60 ADD PUSH1 0x20 DUP2 ADD SWAP1 PUSH2 0x17D4 SWAP2 SWAP1 PUSH2 0x339A JUMP JUMPDEST DUP16 PUSH1 0x80 ADD PUSH1 0x20 DUP2 ADD SWAP1 PUSH2 0x17E7 SWAP2 SWAP1 PUSH2 0x339A JUMP JUMPDEST DUP10 PUSH1 0x40 MLOAD PUSH2 0x17FA SWAP7 SWAP6 SWAP5 SWAP4 SWAP3 SWAP2 SWAP1 PUSH2 0x34F1 JUMP JUMPDEST PUSH1 0x40 MLOAD DUP1 SWAP2 SUB SWAP1 LOG4 POP SWAP1 SWAP7 SWAP6 POP POP POP POP POP POP JUMP JUMPDEST PUSH1 0x0 PUSH2 0x1818 PUSH2 0x2650 JUMP JUMPDEST PUSH1 0x7 SLOAD PUSH1 0x1 PUSH1 0x1 PUSH1 0x40 SHL SUB AND CALLER PUSH2 0x1830 PUSH1 0x1 NUMBER PUSH2 0x3283 JUMP JUMPDEST PUSH1 0x40 MLOAD PUSH12 0xFFFFFFFFFFFFFFFFFFFFFFFF NOT PUSH1 0x60 SWAP4 DUP5 SHL DUP2 AND PUSH1 0x20 DUP4 ADD MSTORE SWAP2 BLOCKHASH PUSH1 0x34 DUP3 ADD MSTORE ADDRESS SWAP1 SWAP3 SHL AND PUSH1 0x54 DUP3 ADD MSTORE PUSH1 0x1 PUSH1 0x1 PUSH1 0xC0 SHL SUB NOT PUSH1 0xC0 DUP4 SWAP1 SHL AND PUSH1 0x68 DUP3 ADD MSTORE PUSH1 0x70 ADD PUSH1 0x40 DUP1 MLOAD PUSH1 0x1F NOT DUP2 DUP5 SUB ADD DUP2 MSTORE SWAP2 SWAP1 MSTORE DUP1 MLOAD PUSH1 0x20 SWAP1 SWAP2 ADD KECCAK256 SWAP2 POP PUSH2 0x189A DUP2 PUSH1 0x1 PUSH2 0x3555 JUMP JUMPDEST PUSH1 0x7 DUP1 SLOAD PUSH8 0xFFFFFFFFFFFFFFFF NOT AND PUSH1 0x1 PUSH1 0x1 PUSH1 0x40 SHL SUB SWAP3 DUP4 AND OR SWAP1 SSTORE PUSH1 0x40 DUP1 MLOAD PUSH1 0x0 DUP1 DUP3 MSTORE PUSH1 0x80 DUP3 ADD DUP4 MSTORE PUSH1 0x20 DUP1 DUP4 ADD DUP3 DUP2 MSTORE DUP4 DUP6 ADD DUP4 DUP2 MSTORE PUSH1 0x60 DUP1 DUP7 ADD DUP6 DUP2 MSTORE DUP11 DUP7 MSTORE PUSH1 0x6 DUP6 MSTORE DUP8 DUP7 KECCAK256 SWAP4 MLOAD DUP5 SLOAD SWAP4 MLOAD SWAP2 MLOAD PUSH1 0x1 PUSH1 0x1 PUSH1 0x60 SHL SUB SWAP2 DUP3 AND PUSH1 0x1 PUSH1 0x1 PUSH1 0xC0 SHL SUB NOT SWAP1 SWAP6 AND SWAP5 SWAP1 SWAP5 OR PUSH1 0x1 PUSH1 0x60 SHL SWAP2 SWAP1 SWAP3 AND MUL OR PUSH1 0x1 PUSH1 0x1 PUSH1 0xC0 SHL SUB AND PUSH1 0x1 PUSH1 0xC0 SHL SWAP3 SWAP1 SWAP9 AND SWAP2 SWAP1 SWAP2 MUL SWAP7 SWAP1 SWAP7 OR SWAP1 SSTORE DUP4 MLOAD SWAP5 DUP6 ADD DUP5 MSTORE CALLER DUP6 MSTORE DUP5 DUP2 ADD DUP3 DUP2 MSTORE DUP6 DUP6 ADD DUP5 DUP2 MSTORE DUP9 DUP5 MSTORE PUSH1 0x5 DUP4 MSTORE SWAP5 SWAP1 SWAP3 KECCAK256 DUP6 MLOAD DUP2 SLOAD PUSH1 0x1 PUSH1 0x1 PUSH1 0xA0 SHL SUB NOT SWAP1 DUP2 AND PUSH1 0x1 PUSH1 0x1 PUSH1 0xA0 SHL SUB SWAP3 DUP4 AND OR DUP4 SSTORE SWAP4 MLOAD PUSH1 0x1 DUP4 ADD DUP1 SLOAD SWAP1 SWAP6 AND SWAP2 AND OR SWAP1 SWAP3 SSTORE SWAP3 MLOAD DUP1 MLOAD SWAP3 SWAP5 SWAP4 SWAP2 SWAP3 PUSH2 0x1999 SWAP3 PUSH1 0x2 DUP6 ADD SWAP3 ADD SWAP1 PUSH2 0x2DA5 JUMP JUMPDEST POP PUSH2 0x19A9 SWAP2 POP PUSH1 0x8 SWAP1 POP DUP5 PUSH2 0x297B JUMP JUMPDEST POP PUSH1 0x40 MLOAD CALLER DUP2 MSTORE DUP4 SWAP1 PUSH32 0x1D3015D7BA850FA198DC7B1A3F5D42779313A681035F77C8C03764C61005518D SWAP1 PUSH1 0x20 ADD PUSH1 0x40 MLOAD DUP1 SWAP2 SUB SWAP1 LOG2 POP POP SWAP1 JUMP JUMPDEST PUSH2 0x19EC PUSH2 0x2650 JUMP JUMPDEST PUSH1 0x2 SLOAD PUSH1 0x1 PUSH1 0x1 PUSH1 0xA0 SHL SUB AND CALLER EQ PUSH2 0x1A17 JUMPI PUSH1 0x40 MLOAD PUSH4 0x44B0E3C3 PUSH1 0xE0 SHL DUP2 MSTORE PUSH1 0x4 ADD PUSH1 0x40 MLOAD DUP1 SWAP2 SUB SWAP1 REVERT JUMPDEST PUSH1 0x20 DUP2 EQ PUSH2 0x1A38 JUMPI PUSH1 0x40 MLOAD PUSH4 0x8129BBCD PUSH1 0xE0 SHL DUP2 MSTORE PUSH1 0x4 ADD PUSH1 0x40 MLOAD DUP1 SWAP2 SUB SWAP1 REVERT JUMPDEST PUSH1 0x0 PUSH2 0x1A46 DUP3 DUP5 ADD DUP5 PUSH2 0x2FC6 JUMP JUMPDEST PUSH1 0x0 DUP2 DUP2 MSTORE PUSH1 0x5 PUSH1 0x20 MSTORE PUSH1 0x40 SWAP1 KECCAK256 SLOAD SWAP1 SWAP2 POP PUSH1 0x1 PUSH1 0x1 PUSH1 0xA0 SHL SUB AND PUSH2 0x1A7E JUMPI PUSH1 0x40 MLOAD PUSH4 0xFB532DB PUSH1 0xE1 SHL DUP2 MSTORE PUSH1 0x4 ADD PUSH1 0x40 MLOAD DUP1 SWAP2 SUB SWAP1 REVERT JUMPDEST PUSH1 0x0 DUP2 DUP2 MSTORE PUSH1 0x6 PUSH1 0x20 MSTORE PUSH1 0x40 DUP2 KECCAK256 DUP1 SLOAD PUSH1 0x1 PUSH1 0x1 PUSH1 0x60 SHL SUB AND SWAP2 DUP7 SWAP2 SWAP1 PUSH2 0x1AA5 DUP4 DUP6 PUSH2 0x32E2 JUMP JUMPDEST SWAP3 POP PUSH2 0x100 EXP DUP2 SLOAD DUP2 PUSH1 0x1 PUSH1 0x1 PUSH1 0x60 SHL SUB MUL NOT AND SWAP1 DUP4 PUSH1 0x1 PUSH1 0x1 PUSH1 0x60 SHL SUB AND MUL OR SWAP1 SSTORE POP DUP5 PUSH1 0xA PUSH1 0x0 DUP3 DUP3 DUP3 SWAP1 SLOAD SWAP1 PUSH2 0x100 EXP SWAP1 DIV PUSH1 0x1 PUSH1 0x1 PUSH1 0x60 SHL SUB AND PUSH2 0x1AED SWAP2 SWAP1 PUSH2 0x32E2 JUMP JUMPDEST SWAP3 POP PUSH2 0x100 EXP DUP2 SLOAD DUP2 PUSH1 0x1 PUSH1 0x1 PUSH1 0x60 SHL SUB MUL NOT AND SWAP1 DUP4 PUSH1 0x1 PUSH1 0x1 PUSH1 0x60 SHL SUB AND MUL OR SWAP1 SSTORE POP DUP2 PUSH32 0x1CED9348FF549FCEAB2AC57CD3A9DE38EDAAAB274B725EE82C23E8FC8C4EEC7A DUP3 DUP8 DUP5 PUSH2 0x1B40 SWAP2 SWAP1 PUSH2 0x32AD JUMP JUMPDEST PUSH1 0x40 DUP1 MLOAD SWAP3 DUP4 MSTORE PUSH1 0x20 DUP4 ADD SWAP2 SWAP1 SWAP2 MSTORE ADD PUSH2 0xD6C JUMP JUMPDEST PUSH2 0x1B5D PUSH2 0x282F JUMP JUMPDEST PUSH1 0x0 DUP2 DUP2 MSTORE PUSH1 0x5 PUSH1 0x20 MSTORE PUSH1 0x40 SWAP1 KECCAK256 SLOAD PUSH1 0x1 PUSH1 0x1 PUSH1 0xA0 SHL SUB AND DUP1 PUSH2 0x1B93 JUMPI PUSH1 0x40 MLOAD PUSH4 0xFB532DB PUSH1 0xE1 SHL DUP2 MSTORE PUSH1 0x4 ADD PUSH1 0x40 MLOAD DUP1 SWAP2 SUB SWAP1 REVERT JUMPDEST PUSH2 0x117D DUP3 DUP3 PUSH2 0x2987 JUMP JUMPDEST PUSH1 0x60 PUSH1 0x0 PUSH2 0x1BAB PUSH1 0x8 PUSH2 0x2B2D JUMP JUMPDEST SWAP1 POP DUP1 DUP5 LT PUSH2 0x1BCD JUMPI PUSH1 0x40 MLOAD PUSH4 0x1390F2A1 PUSH1 0xE0 SHL DUP2 MSTORE PUSH1 0x4 ADD PUSH1 0x40 MLOAD DUP1 SWAP2 SUB SWAP1 REVERT JUMPDEST PUSH1 0x0 PUSH2 0x1BD9 DUP5 DUP7 PUSH2 0x32AD JUMP JUMPDEST SWAP1 POP DUP2 DUP2 GT DUP1 PUSH2 0x1BE7 JUMPI POP DUP4 ISZERO JUMPDEST PUSH2 0x1BF1 JUMPI DUP1 PUSH2 0x1BF3 JUMP JUMPDEST DUP2 JUMPDEST SWAP1 POP PUSH1 0x0 PUSH2 0x1C01 DUP7 DUP4 PUSH2 0x3283 JUMP JUMPDEST SWAP1 POP DUP1 PUSH1 0x1 PUSH1 0x1 PUSH1 0x40 SHL SUB DUP2 GT ISZERO PUSH2 0x1C1B JUMPI PUSH2 0x1C1B PUSH2 0x2E4E JUMP JUMPDEST PUSH1 0x40 MLOAD SWAP1 DUP1 DUP3 MSTORE DUP1 PUSH1 0x20 MUL PUSH1 0x20 ADD DUP3 ADD PUSH1 0x40 MSTORE DUP1 ISZERO PUSH2 0x1C44 JUMPI DUP2 PUSH1 0x20 ADD PUSH1 0x20 DUP3 MUL DUP1 CALLDATASIZE DUP4 CALLDATACOPY ADD SWAP1 POP JUMPDEST POP SWAP4 POP PUSH1 0x0 JUMPDEST DUP2 DUP2 LT ISZERO PUSH2 0x1C94 JUMPI PUSH2 0x1C67 PUSH2 0x1C5F DUP9 DUP4 PUSH2 0x32AD JUMP JUMPDEST PUSH1 0x8 SWAP1 PUSH2 0x2B37 JUMP JUMPDEST DUP6 DUP3 DUP2 MLOAD DUP2 LT PUSH2 0x1C79 JUMPI PUSH2 0x1C79 PUSH2 0x31DD JUMP JUMPDEST PUSH1 0x20 SWAP1 DUP2 MUL SWAP2 SWAP1 SWAP2 ADD ADD MSTORE PUSH2 0x1C8D DUP2 PUSH2 0x3209 JUMP JUMPDEST SWAP1 POP PUSH2 0x1C4A JUMP JUMPDEST POP POP POP POP SWAP3 SWAP2 POP POP JUMP JUMPDEST PUSH2 0x1CA6 PUSH2 0x2650 JUMP JUMPDEST PUSH1 0x0 DUP2 DUP2 MSTORE PUSH1 0x5 PUSH1 0x20 MSTORE PUSH1 0x40 SWAP1 KECCAK256 SLOAD PUSH1 0x1 PUSH1 0x1 PUSH1 0xA0 SHL SUB AND DUP1 PUSH2 0x1CDC JUMPI PUSH1 0x40 MLOAD PUSH4 0xFB532DB PUSH1 0xE1 SHL DUP2 MSTORE PUSH1 0x4 ADD PUSH1 0x40 MLOAD DUP1 SWAP2 SUB SWAP1 REVERT JUMPDEST PUSH1 0x0 DUP3 DUP2 MSTORE PUSH1 0x5 PUSH1 0x20 MSTORE PUSH1 0x40 SWAP1 KECCAK256 PUSH1 0x1 ADD SLOAD PUSH1 0x1 PUSH1 0x1 PUSH1 0xA0 SHL SUB AND CALLER EQ PUSH2 0x1D35 JUMPI PUSH1 0x0 DUP3 DUP2 MSTORE PUSH1 0x5 PUSH1 0x20 MSTORE PUSH1 0x40 SWAP1 DUP2 SWAP1 KECCAK256 PUSH1 0x1 ADD SLOAD SWAP1 MLOAD PUSH4 0xD084E975 PUSH1 0xE0 SHL DUP2 MSTORE PUSH1 0x1 PUSH1 0x1 PUSH1 0xA0 SHL SUB SWAP1 SWAP2 AND PUSH1 0x4 DUP3 ADD MSTORE PUSH1 0x24 ADD PUSH2 0x1230 JUMP JUMPDEST PUSH1 0x0 DUP3 DUP2 MSTORE PUSH1 0x5 PUSH1 0x20 SWAP1 DUP2 MSTORE PUSH1 0x40 SWAP2 DUP3 SWAP1 KECCAK256 DUP1 SLOAD CALLER PUSH1 0x1 PUSH1 0x1 PUSH1 0xA0 SHL SUB NOT SWAP2 DUP3 AND DUP2 OR DUP4 SSTORE PUSH1 0x1 SWAP1 SWAP3 ADD DUP1 SLOAD SWAP1 SWAP2 AND SWAP1 SSTORE DUP3 MLOAD PUSH1 0x1 PUSH1 0x1 PUSH1 0xA0 SHL SUB DUP6 AND DUP2 MSTORE SWAP2 DUP3 ADD MSTORE DUP4 SWAP2 PUSH32 0xD4114AB6E9AF9F597C52041F32D62DC57C5C4E4C0D4427006069635E216C9386 SWAP2 ADD PUSH2 0x159E JUMP JUMPDEST DUP2 PUSH2 0x1DAC DUP2 PUSH2 0x25E6 JUMP JUMPDEST PUSH2 0x1DB4 PUSH2 0x2650 JUMP JUMPDEST PUSH1 0x1 PUSH1 0x1 PUSH1 0xA0 SHL SUB DUP3 AND PUSH1 0x0 SWAP1 DUP2 MSTORE PUSH1 0x4 PUSH1 0x20 SWAP1 DUP2 MSTORE PUSH1 0x40 DUP1 DUP4 KECCAK256 DUP7 DUP5 MSTORE SWAP1 SWAP2 MSTORE SWAP1 KECCAK256 DUP1 SLOAD PUSH1 0xFF AND ISZERO PUSH2 0x1DE7 JUMPI POP POP POP POP JUMP JUMPDEST PUSH1 0x0 DUP5 DUP2 MSTORE PUSH1 0x5 PUSH1 0x20 MSTORE PUSH1 0x40 SWAP1 KECCAK256 PUSH1 0x2 ADD DUP1 SLOAD PUSH1 0x63 NOT ADD PUSH2 0x1E1B JUMPI PUSH1 0x40 MLOAD PUSH4 0x5A48E0F PUSH1 0xE0 SHL DUP2 MSTORE PUSH1 0x4 ADD PUSH1 0x40 MLOAD DUP1 SWAP2 SUB SWAP1 REVERT JUMPDEST DUP2 SLOAD PUSH1 0x1 PUSH1 0xFF NOT SWAP1 SWAP2 AND DUP2 OR DUP4 SSTORE DUP2 SLOAD SWAP1 DUP2 ADD DUP3 SSTORE PUSH1 0x0 DUP3 DUP2 MSTORE PUSH1 0x20 SWAP1 DUP2 SWAP1 KECCAK256 SWAP1 SWAP2 ADD DUP1 SLOAD PUSH1 0x1 PUSH1 0x1 PUSH1 0xA0 SHL SUB NOT AND PUSH1 0x1 PUSH1 0x1 PUSH1 0xA0 SHL SUB DUP8 AND SWAP1 DUP2 OR SWAP1 SWAP2 SSTORE PUSH1 0x40 MLOAD SWAP1 DUP2 MSTORE DUP7 SWAP2 PUSH32 0x1E980D04AA7648E205713E5E8EA3808672AC163D10936D36F91B2C88AC1575E1 SWAP2 ADD JUMPDEST PUSH1 0x40 MLOAD DUP1 SWAP2 SUB SWAP1 LOG2 POP POP POP POP POP JUMP JUMPDEST DUP2 PUSH2 0x1E9F DUP2 PUSH2 0x25E6 JUMP JUMPDEST DUP3 DUP3 PUSH2 0x1EAB DUP3 DUP3 PUSH2 0x1458 JUMP JUMPDEST PUSH2 0x1EDA JUMPI PUSH1 0x40 MLOAD PUSH4 0x79BFD401 PUSH1 0xE0 SHL DUP2 MSTORE PUSH1 0x4 DUP2 ADD DUP4 SWAP1 MSTORE PUSH1 0x1 PUSH1 0x1 PUSH1 0xA0 SHL SUB DUP3 AND PUSH1 0x24 DUP3 ADD MSTORE PUSH1 0x44 ADD PUSH2 0x1230 JUMP JUMPDEST PUSH2 0x1EE2 PUSH2 0x2650 JUMP JUMPDEST PUSH1 0x1 PUSH1 0x1 PUSH1 0xA0 SHL SUB DUP5 AND PUSH1 0x0 SWAP1 DUP2 MSTORE PUSH1 0x4 PUSH1 0x20 SWAP1 DUP2 MSTORE PUSH1 0x40 DUP1 DUP4 KECCAK256 DUP9 DUP5 MSTORE SWAP1 SWAP2 MSTORE SWAP1 KECCAK256 SLOAD PUSH1 0xFF AND PUSH2 0x1F38 JUMPI PUSH1 0x40 MLOAD PUSH4 0x79BFD401 PUSH1 0xE0 SHL DUP2 MSTORE PUSH1 0x4 DUP2 ADD DUP7 SWAP1 MSTORE PUSH1 0x1 PUSH1 0x1 PUSH1 0xA0 SHL SUB DUP6 AND PUSH1 0x24 DUP3 ADD MSTORE PUSH1 0x44 ADD PUSH2 0x1230 JUMP JUMPDEST PUSH1 0x0 DUP6 DUP2 MSTORE PUSH1 0x5 PUSH1 0x20 SWAP1 DUP2 MSTORE PUSH1 0x40 DUP1 DUP4 KECCAK256 PUSH1 0x2 ADD DUP1 SLOAD DUP3 MLOAD DUP2 DUP6 MUL DUP2 ADD DUP6 ADD SWAP1 SWAP4 MSTORE DUP1 DUP4 MSTORE SWAP2 SWAP3 SWAP1 SWAP2 SWAP1 DUP4 ADD DUP3 DUP3 DUP1 ISZERO PUSH2 0x1F9B JUMPI PUSH1 0x20 MUL DUP3 ADD SWAP2 SWAP1 PUSH1 0x0 MSTORE PUSH1 0x20 PUSH1 0x0 KECCAK256 SWAP1 JUMPDEST DUP2 SLOAD PUSH1 0x1 PUSH1 0x1 PUSH1 0xA0 SHL SUB AND DUP2 MSTORE PUSH1 0x1 SWAP1 SWAP2 ADD SWAP1 PUSH1 0x20 ADD DUP1 DUP4 GT PUSH2 0x1F7D JUMPI JUMPDEST POP POP POP POP POP SWAP1 POP PUSH1 0x0 PUSH1 0x1 DUP3 MLOAD PUSH2 0x1FB2 SWAP2 SWAP1 PUSH2 0x3283 JUMP JUMPDEST SWAP1 POP PUSH1 0x0 JUMPDEST DUP3 MLOAD DUP2 LT ISZERO PUSH2 0x20BB JUMPI DUP7 PUSH1 0x1 PUSH1 0x1 PUSH1 0xA0 SHL SUB AND DUP4 DUP3 DUP2 MLOAD DUP2 LT PUSH2 0x1FDC JUMPI PUSH2 0x1FDC PUSH2 0x31DD JUMP JUMPDEST PUSH1 0x20 MUL PUSH1 0x20 ADD ADD MLOAD PUSH1 0x1 PUSH1 0x1 PUSH1 0xA0 SHL SUB AND SUB PUSH2 0x20AB JUMPI PUSH1 0x0 DUP4 DUP4 DUP2 MLOAD DUP2 LT PUSH2 0x2006 JUMPI PUSH2 0x2006 PUSH2 0x31DD JUMP JUMPDEST PUSH1 0x20 MUL PUSH1 0x20 ADD ADD MLOAD SWAP1 POP DUP1 PUSH1 0x5 PUSH1 0x0 DUP12 DUP2 MSTORE PUSH1 0x20 ADD SWAP1 DUP2 MSTORE PUSH1 0x20 ADD PUSH1 0x0 KECCAK256 PUSH1 0x2 ADD DUP4 DUP2 SLOAD DUP2 LT PUSH2 0x2038 JUMPI PUSH2 0x2038 PUSH2 0x31DD JUMP JUMPDEST PUSH1 0x0 SWAP2 DUP3 MSTORE PUSH1 0x20 DUP1 DUP4 KECCAK256 SWAP2 SWAP1 SWAP2 ADD DUP1 SLOAD PUSH1 0x1 PUSH1 0x1 PUSH1 0xA0 SHL SUB NOT AND PUSH1 0x1 PUSH1 0x1 PUSH1 0xA0 SHL SUB SWAP5 SWAP1 SWAP5 AND SWAP4 SWAP1 SWAP4 OR SWAP1 SWAP3 SSTORE DUP11 DUP2 MSTORE PUSH1 0x5 SWAP1 SWAP2 MSTORE PUSH1 0x40 SWAP1 KECCAK256 PUSH1 0x2 ADD DUP1 SLOAD DUP1 PUSH2 0x2083 JUMPI PUSH2 0x2083 PUSH2 0x3575 JUMP JUMPDEST PUSH1 0x0 DUP3 DUP2 MSTORE PUSH1 0x20 SWAP1 KECCAK256 DUP2 ADD PUSH1 0x0 NOT SWAP1 DUP2 ADD DUP1 SLOAD PUSH1 0x1 PUSH1 0x1 PUSH1 0xA0 SHL SUB NOT AND SWAP1 SSTORE ADD SWAP1 SSTORE POP PUSH2 0x20BB JUMP JUMPDEST PUSH2 0x20B4 DUP2 PUSH2 0x3209 JUMP JUMPDEST SWAP1 POP PUSH2 0x1FB7 JUMP JUMPDEST POP PUSH1 0x1 PUSH1 0x1 PUSH1 0xA0 SHL SUB DUP7 AND PUSH1 0x0 DUP2 DUP2 MSTORE PUSH1 0x4 PUSH1 0x20 SWAP1 DUP2 MSTORE PUSH1 0x40 DUP1 DUP4 KECCAK256 DUP12 DUP5 MSTORE DUP3 MSTORE SWAP2 DUP3 SWAP1 KECCAK256 DUP1 SLOAD PUSH1 0xFF NOT AND SWAP1 SSTORE SWAP1 MLOAD SWAP2 DUP3 MSTORE DUP9 SWAP2 PUSH32 0x32158C6058347C1601B2D12BC696AC6901D8A9A9AA3BA10C27AB0A983E8425A7 SWAP2 ADD PUSH1 0x40 MLOAD DUP1 SWAP2 SUB SWAP1 LOG2 POP POP POP POP POP POP POP JUMP JUMPDEST DUP2 PUSH2 0x212D DUP2 PUSH2 0x25E6 JUMP JUMPDEST PUSH2 0x2135 PUSH2 0x2650 JUMP JUMPDEST PUSH1 0x0 DUP4 DUP2 MSTORE PUSH1 0x5 PUSH1 0x20 MSTORE PUSH1 0x40 SWAP1 KECCAK256 PUSH1 0x1 DUP2 ADD SLOAD PUSH1 0x1 PUSH1 0x1 PUSH1 0xA0 SHL SUB DUP5 DUP2 AND SWAP2 AND EQ PUSH2 0x21B7 JUMPI PUSH1 0x1 DUP2 ADD DUP1 SLOAD PUSH1 0x1 PUSH1 0x1 PUSH1 0xA0 SHL SUB NOT AND PUSH1 0x1 PUSH1 0x1 PUSH1 0xA0 SHL SUB DUP6 AND SWAP1 DUP2 OR SWAP1 SWAP2 SSTORE PUSH1 0x40 DUP1 MLOAD CALLER DUP2 MSTORE PUSH1 0x20 DUP2 ADD SWAP3 SWAP1 SWAP3 MSTORE DUP6 SWAP2 PUSH32 0x21A4DAD170A6BF476C31BBCF4A16628295B0E450672EEC25D7C93308E05344A1 SWAP2 ADD PUSH1 0x40 MLOAD DUP1 SWAP2 SUB SWAP1 LOG2 JUMPDEST POP POP POP POP JUMP JUMPDEST PUSH1 0x0 DUP2 DUP2 MSTORE PUSH1 0x5 PUSH1 0x20 MSTORE PUSH1 0x40 DUP2 KECCAK256 SLOAD DUP2 SWAP1 DUP2 SWAP1 PUSH1 0x1 PUSH1 0x1 PUSH1 0xA0 SHL SUB AND PUSH1 0x60 DUP2 PUSH2 0x21F9 JUMPI PUSH1 0x40 MLOAD PUSH4 0xFB532DB PUSH1 0xE1 SHL DUP2 MSTORE PUSH1 0x4 ADD PUSH1 0x40 MLOAD DUP1 SWAP2 SUB SWAP1 REVERT JUMPDEST PUSH1 0x0 DUP7 DUP2 MSTORE PUSH1 0x6 PUSH1 0x20 SWAP1 DUP2 MSTORE PUSH1 0x40 DUP1 DUP4 KECCAK256 SLOAD PUSH1 0x5 DUP4 MSTORE SWAP3 DUP2 SWAP1 KECCAK256 PUSH1 0x2 ADD DUP1 SLOAD DUP3 MLOAD DUP2 DUP6 MUL DUP2 ADD DUP6 ADD SWAP1 SWAP4 MSTORE DUP1 DUP4 MSTORE PUSH1 0x1 PUSH1 0x1 PUSH1 0x60 SHL SUB DUP1 DUP7 AND SWAP6 PUSH1 0x1 PUSH1 0x60 SHL DUP2 DIV SWAP1 SWAP2 AND SWAP5 PUSH1 0x1 PUSH1 0xC0 SHL SWAP1 SWAP2 DIV PUSH1 0x1 PUSH1 0x1 PUSH1 0x40 SHL SUB AND SWAP4 DUP9 SWAP4 SWAP3 SWAP1 SWAP2 DUP4 SWAP2 SWAP1 DUP4 ADD DUP3 DUP3 DUP1 ISZERO PUSH2 0x2291 JUMPI PUSH1 0x20 MUL DUP3 ADD SWAP2 SWAP1 PUSH1 0x0 MSTORE PUSH1 0x20 PUSH1 0x0 KECCAK256 SWAP1 JUMPDEST DUP2 SLOAD PUSH1 0x1 PUSH1 0x1 PUSH1 0xA0 SHL SUB AND DUP2 MSTORE PUSH1 0x1 SWAP1 SWAP2 ADD SWAP1 PUSH1 0x20 ADD DUP1 DUP4 GT PUSH2 0x2273 JUMPI JUMPDEST POP POP POP POP POP SWAP1 POP SWAP5 POP SWAP5 POP SWAP5 POP SWAP5 POP SWAP5 POP SWAP2 SWAP4 SWAP6 SWAP1 SWAP3 SWAP5 POP JUMP JUMPDEST PUSH2 0x22B3 PUSH2 0x282F JUMP JUMPDEST PUSH1 0x2 SLOAD PUSH1 0x1 PUSH1 0x1 PUSH1 0xA0 SHL SUB AND PUSH2 0x22DC JUMPI PUSH1 0x40 MLOAD PUSH4 0xC1F0C0A1 PUSH1 0xE0 SHL DUP2 MSTORE PUSH1 0x4 ADD PUSH1 0x40 MLOAD DUP1 SWAP2 SUB SWAP1 REVERT JUMPDEST PUSH1 0x2 SLOAD PUSH1 0x40 MLOAD PUSH4 0x70A08231 PUSH1 0xE0 SHL DUP2 MSTORE ADDRESS PUSH1 0x4 DUP3 ADD MSTORE PUSH1 0x0 SWAP2 PUSH1 0x1 PUSH1 0x1 PUSH1 0xA0 SHL SUB AND SWAP1 PUSH4 0x70A08231 SWAP1 PUSH1 0x24 ADD PUSH1 0x20 PUSH1 0x40 MLOAD DUP1 DUP4 SUB DUP2 DUP7 GAS STATICCALL ISZERO DUP1 ISZERO PUSH2 0x2325 JUMPI RETURNDATASIZE PUSH1 0x0 DUP1 RETURNDATACOPY RETURNDATASIZE PUSH1 0x0 REVERT JUMPDEST POP POP POP POP PUSH1 0x40 MLOAD RETURNDATASIZE PUSH1 0x1F NOT PUSH1 0x1F DUP3 ADD AND DUP3 ADD DUP1 PUSH1 0x40 MSTORE POP DUP2 ADD SWAP1 PUSH2 0x2349 SWAP2 SWAP1 PUSH2 0x358B JUMP JUMPDEST PUSH1 0xA SLOAD SWAP1 SWAP2 POP PUSH1 0x1 PUSH1 0x1 PUSH1 0x60 SHL SUB AND DUP2 DUP2 GT ISZERO PUSH2 0x2383 JUMPI PUSH1 0x40 MLOAD PUSH4 0x54CED181 PUSH1 0xE1 SHL DUP2 MSTORE PUSH1 0x4 DUP2 ADD DUP3 SWAP1 MSTORE PUSH1 0x24 DUP2 ADD DUP4 SWAP1 MSTORE PUSH1 0x44 ADD PUSH2 0x1230 JUMP JUMPDEST DUP2 DUP2 LT ISZERO PUSH2 0xFDF JUMPI PUSH1 0x0 PUSH2 0x2397 DUP3 DUP5 PUSH2 0x3283 JUMP JUMPDEST PUSH1 0x2 SLOAD PUSH1 0x40 MLOAD PUSH4 0xA9059CBB PUSH1 0xE0 SHL DUP2 MSTORE PUSH1 0x1 PUSH1 0x1 PUSH1 0xA0 SHL SUB DUP8 DUP2 AND PUSH1 0x4 DUP4 ADD MSTORE PUSH1 0x24 DUP3 ADD DUP5 SWAP1 MSTORE SWAP3 SWAP4 POP SWAP2 AND SWAP1 PUSH4 0xA9059CBB SWAP1 PUSH1 0x44 ADD PUSH1 0x20 PUSH1 0x40 MLOAD DUP1 DUP4 SUB DUP2 PUSH1 0x0 DUP8 GAS CALL ISZERO DUP1 ISZERO PUSH2 0x23EC JUMPI RETURNDATASIZE PUSH1 0x0 DUP1 RETURNDATACOPY RETURNDATASIZE PUSH1 0x0 REVERT JUMPDEST POP POP POP POP PUSH1 0x40 MLOAD RETURNDATASIZE PUSH1 0x1F NOT PUSH1 0x1F DUP3 ADD AND DUP3 ADD DUP1 PUSH1 0x40 MSTORE POP DUP2 ADD SWAP1 PUSH2 0x2410 SWAP2 SWAP1 PUSH2 0x3330 JUMP JUMPDEST PUSH2 0x242D JUMPI PUSH1 0x40 MLOAD PUSH4 0x1F01FF13 PUSH1 0xE2 SHL DUP2 MSTORE PUSH1 0x4 ADD PUSH1 0x40 MLOAD DUP1 SWAP2 SUB SWAP1 REVERT JUMPDEST PUSH1 0x40 DUP1 MLOAD PUSH1 0x1 PUSH1 0x1 PUSH1 0xA0 SHL SUB DUP7 AND DUP2 MSTORE PUSH1 0x20 DUP2 ADD DUP4 SWAP1 MSTORE PUSH32 0x59BFC682B673F8CBF945F1E454DF9334834ABF7DFE7F92237CA29ECB9B436600 SWAP2 ADD PUSH1 0x40 MLOAD DUP1 SWAP2 SUB SWAP1 LOG1 POP POP POP POP JUMP JUMPDEST PUSH2 0x247D PUSH2 0x282F JUMP JUMPDEST PUSH2 0x2486 DUP2 PUSH2 0x2B43 JUMP JUMPDEST POP JUMP JUMPDEST PUSH1 0x0 DUP2 DUP2 MSTORE PUSH1 0x6 PUSH1 0x20 MSTORE PUSH1 0x40 SWAP1 KECCAK256 DUP3 ISZERO PUSH2 0x254D JUMPI DUP1 SLOAD PUSH1 0x1 PUSH1 0x1 PUSH1 0x60 SHL SUB PUSH1 0x1 PUSH1 0x60 SHL SWAP1 SWAP2 DIV DUP2 AND SWAP1 DUP6 AND DUP2 LT ISZERO PUSH2 0x24D4 JUMPI PUSH1 0x40 MLOAD PUSH4 0x1E9ACF17 PUSH1 0xE3 SHL DUP2 MSTORE PUSH1 0x4 ADD PUSH1 0x40 MLOAD DUP1 SWAP2 SUB SWAP1 REVERT JUMPDEST PUSH2 0x24DE DUP6 DUP3 PUSH2 0x3302 JUMP JUMPDEST DUP3 SLOAD PUSH12 0xFFFFFFFFFFFFFFFFFFFFFFFF PUSH1 0x60 SHL NOT AND PUSH1 0x1 PUSH1 0x60 SHL PUSH1 0x1 PUSH1 0x1 PUSH1 0x60 SHL SUB SWAP3 DUP4 AND DUP2 MUL SWAP2 SWAP1 SWAP2 OR DUP5 SSTORE PUSH1 0xB DUP1 SLOAD DUP9 SWAP4 SWAP2 SWAP3 PUSH1 0xC SWAP3 PUSH2 0x2523 SWAP3 DUP7 SWAP3 SWAP1 DIV AND PUSH2 0x32E2 JUMP JUMPDEST SWAP3 POP PUSH2 0x100 EXP DUP2 SLOAD DUP2 PUSH1 0x1 PUSH1 0x1 PUSH1 0x60 SHL SUB MUL NOT AND SWAP1 DUP4 PUSH1 0x1 PUSH1 0x1 PUSH1 0x60 SHL SUB AND MUL OR SWAP1 SSTORE POP POP PUSH2 0x21B7 JUMP JUMPDEST DUP1 SLOAD PUSH1 0x1 PUSH1 0x1 PUSH1 0x60 SHL SUB SWAP1 DUP2 AND SWAP1 DUP6 AND DUP2 LT ISZERO PUSH2 0x257D JUMPI PUSH1 0x40 MLOAD PUSH4 0x1E9ACF17 PUSH1 0xE3 SHL DUP2 MSTORE PUSH1 0x4 ADD PUSH1 0x40 MLOAD DUP1 SWAP2 SUB SWAP1 REVERT JUMPDEST PUSH2 0x2587 DUP6 DUP3 PUSH2 0x3302 JUMP JUMPDEST DUP3 SLOAD PUSH12 0xFFFFFFFFFFFFFFFFFFFFFFFF NOT AND PUSH1 0x1 PUSH1 0x1 PUSH1 0x60 SHL SUB SWAP2 DUP3 AND OR DUP4 SSTORE PUSH1 0xB DUP1 SLOAD DUP8 SWAP3 PUSH1 0x0 SWAP2 PUSH2 0x25BB SWAP2 DUP6 SWAP2 AND PUSH2 0x32E2 JUMP JUMPDEST SWAP3 POP PUSH2 0x100 EXP DUP2 SLOAD DUP2 PUSH1 0x1 PUSH1 0x1 PUSH1 0x60 SHL SUB MUL NOT AND SWAP1 DUP4 PUSH1 0x1 PUSH1 0x1 PUSH1 0x60 SHL SUB AND MUL OR SWAP1 SSTORE POP POP POP POP POP POP JUMP JUMPDEST PUSH1 0x0 DUP2 DUP2 MSTORE PUSH1 0x5 PUSH1 0x20 MSTORE PUSH1 0x40 SWAP1 KECCAK256 SLOAD PUSH1 0x1 PUSH1 0x1 PUSH1 0xA0 SHL SUB AND DUP1 PUSH2 0x261C JUMPI PUSH1 0x40 MLOAD PUSH4 0xFB532DB PUSH1 0xE1 SHL DUP2 MSTORE PUSH1 0x4 ADD PUSH1 0x40 MLOAD DUP1 SWAP2 SUB SWAP1 REVERT JUMPDEST CALLER PUSH1 0x1 PUSH1 0x1 PUSH1 0xA0 SHL SUB DUP3 AND EQ PUSH2 0x117D JUMPI PUSH1 0x40 MLOAD PUSH4 0x6C51FDA9 PUSH1 0xE1 SHL DUP2 MSTORE PUSH1 0x1 PUSH1 0x1 PUSH1 0xA0 SHL SUB DUP3 AND PUSH1 0x4 DUP3 ADD MSTORE PUSH1 0x24 ADD PUSH2 0x1230 JUMP JUMPDEST PUSH1 0xC SLOAD PUSH1 0x1 PUSH1 0x30 SHL SWAP1 DIV PUSH1 0xFF AND ISZERO PUSH2 0x267B JUMPI PUSH1 0x40 MLOAD PUSH4 0x769DD353 PUSH1 0xE1 SHL DUP2 MSTORE PUSH1 0x4 ADD PUSH1 0x40 MLOAD DUP1 SWAP2 SUB SWAP1 REVERT JUMPDEST JUMP JUMPDEST PUSH1 0x0 DUP2 DUP2 MSTORE PUSH1 0x5 PUSH1 0x20 SWAP1 DUP2 MSTORE PUSH1 0x40 DUP1 DUP4 KECCAK256 PUSH1 0x6 SWAP1 SWAP3 MSTORE DUP3 KECCAK256 SLOAD PUSH1 0x2 SWAP1 SWAP2 ADD DUP1 SLOAD PUSH1 0x1 PUSH1 0x1 PUSH1 0x60 SHL SUB DUP1 DUP5 AND SWAP5 PUSH1 0x1 PUSH1 0x60 SHL SWAP1 SWAP5 DIV AND SWAP3 JUMPDEST DUP2 DUP2 LT ISZERO PUSH2 0x2729 JUMPI PUSH1 0x4 PUSH1 0x0 DUP5 DUP4 DUP2 SLOAD DUP2 LT PUSH2 0x26D2 JUMPI PUSH2 0x26D2 PUSH2 0x31DD JUMP JUMPDEST PUSH1 0x0 SWAP2 DUP3 MSTORE PUSH1 0x20 DUP1 DUP4 KECCAK256 SWAP1 SWAP2 ADD SLOAD PUSH1 0x1 PUSH1 0x1 PUSH1 0xA0 SHL SUB AND DUP4 MSTORE DUP3 DUP2 ADD SWAP4 SWAP1 SWAP4 MSTORE PUSH1 0x40 SWAP2 DUP3 ADD DUP2 KECCAK256 DUP10 DUP3 MSTORE SWAP1 SWAP3 MSTORE SWAP1 KECCAK256 DUP1 SLOAD PUSH17 0xFFFFFFFFFFFFFFFFFFFFFFFFFFFFFFFFFF NOT AND SWAP1 SSTORE PUSH2 0x2722 DUP2 PUSH2 0x3209 JUMP JUMPDEST SWAP1 POP PUSH2 0x26B4 JUMP JUMPDEST POP PUSH1 0x0 DUP6 DUP2 MSTORE PUSH1 0x5 PUSH1 0x20 MSTORE PUSH1 0x40 DUP2 KECCAK256 DUP1 SLOAD PUSH1 0x1 PUSH1 0x1 PUSH1 0xA0 SHL SUB NOT SWAP1 DUP2 AND DUP3 SSTORE PUSH1 0x1 DUP3 ADD DUP1 SLOAD SWAP1 SWAP2 AND SWAP1 SSTORE SWAP1 PUSH2 0x2761 PUSH1 0x2 DUP4 ADD DUP3 PUSH2 0x2E0A JUMP JUMPDEST POP POP PUSH1 0x0 DUP6 DUP2 MSTORE PUSH1 0x6 PUSH1 0x20 MSTORE PUSH1 0x40 DUP2 KECCAK256 SSTORE PUSH2 0x277D PUSH1 0x8 DUP7 PUSH2 0x2BEC JUMP JUMPDEST POP PUSH1 0x1 PUSH1 0x1 PUSH1 0x60 SHL SUB DUP5 AND ISZERO PUSH2 0x27D0 JUMPI PUSH1 0xA DUP1 SLOAD DUP6 SWAP2 SWAP1 PUSH1 0x0 SWAP1 PUSH2 0x27AB SWAP1 DUP5 SWAP1 PUSH1 0x1 PUSH1 0x1 PUSH1 0x60 SHL SUB AND PUSH2 0x3302 JUMP JUMPDEST SWAP3 POP PUSH2 0x100 EXP DUP2 SLOAD DUP2 PUSH1 0x1 PUSH1 0x1 PUSH1 0x60 SHL SUB MUL NOT AND SWAP1 DUP4 PUSH1 0x1 PUSH1 0x1 PUSH1 0x60 SHL SUB AND MUL OR SWAP1 SSTORE POP JUMPDEST PUSH1 0x1 PUSH1 0x1 PUSH1 0x60 SHL SUB DUP4 AND ISZERO PUSH2 0x2828 JUMPI DUP3 PUSH1 0xA PUSH1 0xC DUP3 DUP3 DUP3 SWAP1 SLOAD SWAP1 PUSH2 0x100 EXP SWAP1 DIV PUSH1 0x1 PUSH1 0x1 PUSH1 0x60 SHL SUB AND PUSH2 0x2803 SWAP2 SWAP1 PUSH2 0x3302 JUMP JUMPDEST SWAP3 POP PUSH2 0x100 EXP DUP2 SLOAD DUP2 PUSH1 0x1 PUSH1 0x1 PUSH1 0x60 SHL SUB MUL NOT AND SWAP1 DUP4 PUSH1 0x1 PUSH1 0x1 PUSH1 0x60 SHL SUB AND MUL OR SWAP1 SSTORE POP JUMPDEST POP POP SWAP2 POP SWAP2 JUMP JUMPDEST PUSH1 0x0 SLOAD PUSH1 0x1 PUSH1 0x1 PUSH1 0xA0 SHL SUB AND CALLER EQ PUSH2 0x267B JUMPI PUSH1 0x40 MLOAD PUSH3 0x461BCD PUSH1 0xE5 SHL DUP2 MSTORE PUSH1 0x20 PUSH1 0x4 DUP3 ADD MSTORE PUSH1 0x16 PUSH1 0x24 DUP3 ADD MSTORE PUSH22 0x27B7363C9031B0B63630B1363290313C9037BBB732B9 PUSH1 0x51 SHL PUSH1 0x44 DUP3 ADD MSTORE PUSH1 0x64 ADD PUSH2 0x1230 JUMP JUMPDEST PUSH1 0x40 DUP1 MLOAD PUSH1 0x20 DUP2 ADD SWAP1 SWAP2 MSTORE PUSH1 0x0 DUP2 MSTORE PUSH1 0x0 DUP3 SWAP1 SUB PUSH2 0x28AF JUMPI POP PUSH1 0x40 DUP1 MLOAD PUSH1 0x20 DUP2 ADD SWAP1 SWAP2 MSTORE PUSH1 0x0 DUP2 MSTORE PUSH2 0x1480 JUMP JUMPDEST PUSH4 0x125FA267 PUSH1 0xE3 SHL PUSH2 0x28C1 DUP4 DUP6 PUSH2 0x35A4 JUMP JUMPDEST PUSH1 0x1 PUSH1 0x1 PUSH1 0xE0 SHL SUB NOT AND EQ PUSH2 0x28E9 JUMPI PUSH1 0x40 MLOAD PUSH4 0x2923FEE7 PUSH1 0xE1 SHL DUP2 MSTORE PUSH1 0x4 ADD PUSH1 0x40 MLOAD DUP1 SWAP2 SUB SWAP1 REVERT JUMPDEST PUSH2 0x28F6 DUP3 PUSH1 0x4 DUP2 DUP7 PUSH2 0x35D4 JUMP JUMPDEST DUP2 ADD SWAP1 PUSH2 0x2903 SWAP2 SWAP1 PUSH2 0x35FE JUMP JUMPDEST SWAP4 SWAP3 POP POP POP JUMP JUMPDEST PUSH1 0x60 PUSH32 0x92FD13387C7FE7BEFBC38D303D6468778FB9731BC4583F17D92989C6FCFDEAAA DUP3 PUSH1 0x40 MLOAD PUSH1 0x24 ADD PUSH2 0x2943 SWAP2 MLOAD ISZERO ISZERO DUP2 MSTORE PUSH1 0x20 ADD SWAP1 JUMP JUMPDEST PUSH1 0x40 DUP1 MLOAD PUSH1 0x1F NOT DUP2 DUP5 SUB ADD DUP2 MSTORE SWAP2 SWAP1 MSTORE PUSH1 0x20 DUP2 ADD DUP1 MLOAD PUSH1 0x1 PUSH1 0x1 PUSH1 0xE0 SHL SUB AND PUSH1 0x1 PUSH1 0x1 PUSH1 0xE0 SHL SUB NOT SWAP1 SWAP4 AND SWAP3 SWAP1 SWAP3 OR SWAP1 SWAP2 MSTORE SWAP3 SWAP2 POP POP JUMP JUMPDEST PUSH1 0x0 PUSH2 0x2903 DUP4 DUP4 PUSH2 0x2BF8 JUMP JUMPDEST PUSH1 0x0 DUP1 PUSH2 0x2993 DUP5 PUSH2 0x267D JUMP JUMPDEST PUSH1 0x2 SLOAD SWAP2 SWAP4 POP SWAP2 POP PUSH1 0x1 PUSH1 0x1 PUSH1 0xA0 SHL SUB AND ISZERO DUP1 ISZERO SWAP1 PUSH2 0x29BA JUMPI POP PUSH1 0x1 PUSH1 0x1 PUSH1 0x60 SHL SUB DUP3 AND ISZERO ISZERO JUMPDEST ISZERO PUSH2 0x2A5B JUMPI PUSH1 0x2 SLOAD PUSH1 0x40 MLOAD PUSH4 0xA9059CBB PUSH1 0xE0 SHL DUP2 MSTORE PUSH1 0x1 PUSH1 0x1 PUSH1 0xA0 SHL SUB DUP6 DUP2 AND PUSH1 0x4 DUP4 ADD MSTORE PUSH1 0x1 PUSH1 0x1 PUSH1 0x60 SHL SUB DUP6 AND PUSH1 0x24 DUP4 ADD MSTORE SWAP1 SWAP2 AND SWAP1 PUSH4 0xA9059CBB SWAP1 PUSH1 0x44 ADD PUSH1 0x20 PUSH1 0x40 MLOAD DUP1 DUP4 SUB DUP2 PUSH1 0x0 DUP8 GAS CALL ISZERO DUP1 ISZERO PUSH2 0x2A1A JUMPI RETURNDATASIZE PUSH1 0x0 DUP1 RETURNDATACOPY RETURNDATASIZE PUSH1 0x0 REVERT JUMPDEST POP POP POP POP PUSH1 0x40 MLOAD RETURNDATASIZE PUSH1 0x1F NOT PUSH1 0x1F DUP3 ADD AND DUP3 ADD DUP1 PUSH1 0x40 MSTORE POP DUP2 ADD SWAP1 PUSH2 0x2A3E SWAP2 SWAP1 PUSH2 0x3330 JUMP JUMPDEST PUSH2 0x2A5B JUMPI PUSH1 0x40 MLOAD PUSH4 0x1E9ACF17 PUSH1 0xE3 SHL DUP2 MSTORE PUSH1 0x4 ADD PUSH1 0x40 MLOAD DUP1 SWAP2 SUB SWAP1 REVERT JUMPDEST PUSH1 0x0 DUP4 PUSH1 0x1 PUSH1 0x1 PUSH1 0xA0 SHL SUB AND DUP3 PUSH1 0x1 PUSH1 0x1 PUSH1 0x60 SHL SUB AND PUSH1 0x40 MLOAD PUSH1 0x0 PUSH1 0x40 MLOAD DUP1 DUP4 SUB DUP2 DUP6 DUP8 GAS CALL SWAP3 POP POP POP RETURNDATASIZE DUP1 PUSH1 0x0 DUP2 EQ PUSH2 0x2AB1 JUMPI PUSH1 0x40 MLOAD SWAP2 POP PUSH1 0x1F NOT PUSH1 0x3F RETURNDATASIZE ADD AND DUP3 ADD PUSH1 0x40 MSTORE RETURNDATASIZE DUP3 MSTORE RETURNDATASIZE PUSH1 0x0 PUSH1 0x20 DUP5 ADD RETURNDATACOPY PUSH2 0x2AB6 JUMP JUMPDEST PUSH1 0x60 SWAP2 POP JUMPDEST POP POP SWAP1 POP DUP1 PUSH2 0x2AD8 JUMPI PUSH1 0x40 MLOAD PUSH4 0x950B2479 PUSH1 0xE0 SHL DUP2 MSTORE PUSH1 0x4 ADD PUSH1 0x40 MLOAD DUP1 SWAP2 SUB SWAP1 REVERT JUMPDEST PUSH1 0x40 DUP1 MLOAD PUSH1 0x1 PUSH1 0x1 PUSH1 0xA0 SHL SUB DUP7 AND DUP2 MSTORE PUSH1 0x1 PUSH1 0x1 PUSH1 0x60 SHL SUB DUP1 DUP7 AND PUSH1 0x20 DUP4 ADD MSTORE DUP5 AND SWAP2 DUP2 ADD SWAP2 SWAP1 SWAP2 MSTORE DUP6 SWAP1 PUSH32 0x8C74CE8B8CF87F5EB001275C8BE27EB34EA2B62BFAB6814FCC62192BB63E81C4 SWAP1 PUSH1 0x60 ADD PUSH2 0x1E86 JUMP JUMPDEST PUSH1 0x0 PUSH2 0x1480 DUP3 SLOAD SWAP1 JUMP JUMPDEST PUSH1 0x0 PUSH2 0x2903 DUP4 DUP4 PUSH2 0x2C47 JUMP JUMPDEST CALLER PUSH1 0x1 PUSH1 0x1 PUSH1 0xA0 SHL SUB DUP3 AND SUB PUSH2 0x2B9B JUMPI PUSH1 0x40 MLOAD PUSH3 0x461BCD PUSH1 0xE5 SHL DUP2 MSTORE PUSH1 0x20 PUSH1 0x4 DUP3 ADD MSTORE PUSH1 0x17 PUSH1 0x24 DUP3 ADD MSTORE PUSH32 0x43616E6E6F74207472616E7366657220746F2073656C66000000000000000000 PUSH1 0x44 DUP3 ADD MSTORE PUSH1 0x64 ADD PUSH2 0x1230 JUMP JUMPDEST PUSH1 0x1 DUP1 SLOAD PUSH1 0x1 PUSH1 0x1 PUSH1 0xA0 SHL SUB NOT AND PUSH1 0x1 PUSH1 0x1 PUSH1 0xA0 SHL SUB DUP4 DUP2 AND SWAP2 DUP3 OR SWAP1 SWAP3 SSTORE PUSH1 0x0 DUP1 SLOAD PUSH1 0x40 MLOAD SWAP3 SWAP4 AND SWAP2 PUSH32 0xED8889F560326EB138920D842192F0EB3DD22B4F139C87A2C57538E05BAE1278 SWAP2 SWAP1 LOG3 POP JUMP JUMPDEST PUSH1 0x0 PUSH2 0x2903 DUP4 DUP4 PUSH2 0x2C71 JUMP JUMPDEST PUSH1 0x0 DUP2 DUP2 MSTORE PUSH1 0x1 DUP4 ADD PUSH1 0x20 MSTORE PUSH1 0x40 DUP2 KECCAK256 SLOAD PUSH2 0x2C3F JUMPI POP DUP2 SLOAD PUSH1 0x1 DUP2 DUP2 ADD DUP5 SSTORE PUSH1 0x0 DUP5 DUP2 MSTORE PUSH1 0x20 DUP1 DUP3 KECCAK256 SWAP1 SWAP4 ADD DUP5 SWAP1 SSTORE DUP5 SLOAD DUP5 DUP3 MSTORE DUP3 DUP7 ADD SWAP1 SWAP4 MSTORE PUSH1 0x40 SWAP1 KECCAK256 SWAP2 SWAP1 SWAP2 SSTORE PUSH2 0x1480 JUMP JUMPDEST POP PUSH1 0x0 PUSH2 0x1480 JUMP JUMPDEST PUSH1 0x0 DUP3 PUSH1 0x0 ADD DUP3 DUP2 SLOAD DUP2 LT PUSH2 0x2C5E JUMPI PUSH2 0x2C5E PUSH2 0x31DD JUMP JUMPDEST SWAP1 PUSH1 0x0 MSTORE PUSH1 0x20 PUSH1 0x0 KECCAK256 ADD SLOAD SWAP1 POP SWAP3 SWAP2 POP POP JUMP JUMPDEST PUSH1 0x0 DUP2 DUP2 MSTORE PUSH1 0x1 DUP4 ADD PUSH1 0x20 MSTORE PUSH1 0x40 DUP2 KECCAK256 SLOAD DUP1 ISZERO PUSH2 0x2D5A JUMPI PUSH1 0x0 PUSH2 0x2C95 PUSH1 0x1 DUP4 PUSH2 0x3283 JUMP JUMPDEST DUP6 SLOAD SWAP1 SWAP2 POP PUSH1 0x0 SWAP1 PUSH2 0x2CA9 SWAP1 PUSH1 0x1 SWAP1 PUSH2 0x3283 JUMP JUMPDEST SWAP1 POP DUP2 DUP2 EQ PUSH2 0x2D0E JUMPI PUSH1 0x0 DUP7 PUSH1 0x0 ADD DUP3 DUP2 SLOAD DUP2 LT PUSH2 0x2CC9 JUMPI PUSH2 0x2CC9 PUSH2 0x31DD JUMP JUMPDEST SWAP1 PUSH1 0x0 MSTORE PUSH1 0x20 PUSH1 0x0 KECCAK256 ADD SLOAD SWAP1 POP DUP1 DUP8 PUSH1 0x0 ADD DUP5 DUP2 SLOAD DUP2 LT PUSH2 0x2CEC JUMPI PUSH2 0x2CEC PUSH2 0x31DD JUMP JUMPDEST PUSH1 0x0 SWAP2 DUP3 MSTORE PUSH1 0x20 DUP1 DUP4 KECCAK256 SWAP1 SWAP2 ADD SWAP3 SWAP1 SWAP3 SSTORE SWAP2 DUP3 MSTORE PUSH1 0x1 DUP9 ADD SWAP1 MSTORE PUSH1 0x40 SWAP1 KECCAK256 DUP4 SWAP1 SSTORE JUMPDEST DUP6 SLOAD DUP7 SWAP1 DUP1 PUSH2 0x2D1F JUMPI PUSH2 0x2D1F PUSH2 0x3575 JUMP JUMPDEST PUSH1 0x1 SWAP1 SUB DUP2 DUP2 SWAP1 PUSH1 0x0 MSTORE PUSH1 0x20 PUSH1 0x0 KECCAK256 ADD PUSH1 0x0 SWAP1 SSTORE SWAP1 SSTORE DUP6 PUSH1 0x1 ADD PUSH1 0x0 DUP7 DUP2 MSTORE PUSH1 0x20 ADD SWAP1 DUP2 MSTORE PUSH1 0x20 ADD PUSH1 0x0 KECCAK256 PUSH1 0x0 SWAP1 SSTORE PUSH1 0x1 SWAP4 POP POP POP POP PUSH2 0x1480 JUMP JUMPDEST PUSH1 0x0 SWAP2 POP POP PUSH2 0x1480 JUMP JUMPDEST POP SWAP3 SWAP2 POP POP JUMP JUMPDEST POP DUP1 SLOAD PUSH2 0x2D77 SWAP1 PUSH2 0x31A3 JUMP JUMPDEST PUSH1 0x0 DUP3 SSTORE DUP1 PUSH1 0x1F LT PUSH2 0x2D87 JUMPI POP POP JUMP JUMPDEST PUSH1 0x1F ADD PUSH1 0x20 SWAP1 DIV SWAP1 PUSH1 0x0 MSTORE PUSH1 0x20 PUSH1 0x0 KECCAK256 SWAP1 DUP2 ADD SWAP1 PUSH2 0x2486 SWAP2 SWAP1 PUSH2 0x2E24 JUMP JUMPDEST DUP3 DUP1 SLOAD DUP3 DUP3 SSTORE SWAP1 PUSH1 0x0 MSTORE PUSH1 0x20 PUSH1 0x0 KECCAK256 SWAP1 DUP2 ADD SWAP3 DUP3 ISZERO PUSH2 0x2DFA JUMPI SWAP2 PUSH1 0x20 MUL DUP3 ADD JUMPDEST DUP3 DUP2 GT ISZERO PUSH2 0x2DFA JUMPI DUP3 MLOAD DUP3 SLOAD PUSH1 0x1 PUSH1 0x1 PUSH1 0xA0 SHL SUB NOT AND PUSH1 0x1 PUSH1 0x1 PUSH1 0xA0 SHL SUB SWAP1 SWAP2 AND OR DUP3 SSTORE PUSH1 0x20 SWAP1 SWAP3 ADD SWAP2 PUSH1 0x1 SWAP1 SWAP2 ADD SWAP1 PUSH2 0x2DC5 JUMP JUMPDEST POP PUSH2 0x2E06 SWAP3 SWAP2 POP PUSH2 0x2E24 JUMP JUMPDEST POP SWAP1 JUMP JUMPDEST POP DUP1 SLOAD PUSH1 0x0 DUP3 SSTORE SWAP1 PUSH1 0x0 MSTORE PUSH1 0x20 PUSH1 0x0 KECCAK256 SWAP1 DUP2 ADD SWAP1 PUSH2 0x2486 SWAP2 SWAP1 JUMPDEST JUMPDEST DUP1 DUP3 GT ISZERO PUSH2 0x2E06 JUMPI PUSH1 0x0 DUP2 SSTORE PUSH1 0x1 ADD PUSH2 0x2E25 JUMP JUMPDEST PUSH1 0x1 PUSH1 0x1 PUSH1 0xA0 SHL SUB DUP2 AND DUP2 EQ PUSH2 0x2486 JUMPI PUSH1 0x0 DUP1 REVERT JUMPDEST PUSH4 0x4E487B71 PUSH1 0xE0 SHL PUSH1 0x0 MSTORE PUSH1 0x41 PUSH1 0x4 MSTORE PUSH1 0x24 PUSH1 0x0 REVERT JUMPDEST PUSH1 0x40 MLOAD PUSH1 0x1F DUP3 ADD PUSH1 0x1F NOT AND DUP2 ADD PUSH1 0x1 PUSH1 0x1 PUSH1 0x40 SHL SUB DUP2 GT DUP3 DUP3 LT OR ISZERO PUSH2 0x2E8C JUMPI PUSH2 0x2E8C PUSH2 0x2E4E JUMP JUMPDEST PUSH1 0x40 MSTORE SWAP2 SWAP1 POP JUMP JUMPDEST PUSH1 0x0 DUP1 PUSH1 0x0 PUSH1 0x60 DUP5 DUP7 SUB SLT ISZERO PUSH2 0x2EA9 JUMPI PUSH1 0x0 DUP1 REVERT JUMPDEST DUP4 CALLDATALOAD SWAP3 POP PUSH1 0x20 DUP1 DUP6 ADD CALLDATALOAD PUSH2 0x2EBC DUP2 PUSH2 0x2E39 JUMP JUMPDEST SWAP3 POP PUSH1 0x40 DUP6 ADD CALLDATALOAD PUSH1 0x1 PUSH1 0x1 PUSH1 0x40 SHL SUB DUP1 DUP3 GT ISZERO PUSH2 0x2ED8 JUMPI PUSH1 0x0 DUP1 REVERT JUMPDEST DUP2 DUP8 ADD SWAP2 POP DUP8 PUSH1 0x1F DUP4 ADD SLT PUSH2 0x2EEC JUMPI PUSH1 0x0 DUP1 REVERT JUMPDEST DUP2 CALLDATALOAD DUP2 DUP2 GT ISZERO PUSH2 0x2EFE JUMPI PUSH2 0x2EFE PUSH2 0x2E4E JUMP JUMPDEST DUP1 PUSH1 0x5 SHL SWAP2 POP PUSH2 0x2F0F DUP5 DUP4 ADD PUSH2 0x2E64 JUMP JUMPDEST DUP2 DUP2 MSTORE SWAP2 DUP4 ADD DUP5 ADD SWAP2 DUP5 DUP2 ADD SWAP1 DUP11 DUP5 GT ISZERO PUSH2 0x2F29 JUMPI PUSH1 0x0 DUP1 REVERT JUMPDEST SWAP4 DUP6 ADD SWAP4 JUMPDEST DUP4 DUP6 LT ISZERO PUSH2 0x2F47 JUMPI DUP5 CALLDATALOAD DUP3 MSTORE SWAP4 DUP6 ADD SWAP4 SWAP1 DUP6 ADD SWAP1 PUSH2 0x2F2E JUMP JUMPDEST DUP1 SWAP7 POP POP POP POP POP POP POP SWAP3 POP SWAP3 POP SWAP3 JUMP JUMPDEST PUSH1 0x0 DUP1 PUSH1 0x40 DUP4 DUP6 SUB SLT ISZERO PUSH2 0x2F6A JUMPI PUSH1 0x0 DUP1 REVERT JUMPDEST DUP3 CALLDATALOAD SWAP2 POP PUSH1 0x20 DUP4 ADD CALLDATALOAD PUSH2 0x2F7C DUP2 PUSH2 0x2E39 JUMP JUMPDEST DUP1 SWAP2 POP POP SWAP3 POP SWAP3 SWAP1 POP JUMP JUMPDEST PUSH1 0x0 DUP1 PUSH1 0x40 DUP4 DUP6 SUB SLT ISZERO PUSH2 0x2F9A JUMPI PUSH1 0x0 DUP1 REVERT JUMPDEST POP POP DUP1 CALLDATALOAD SWAP3 PUSH1 0x20 SWAP1 SWAP2 ADD CALLDATALOAD SWAP2 POP JUMP JUMPDEST PUSH1 0x0 PUSH1 0x20 DUP3 DUP5 SUB SLT ISZERO PUSH2 0x2FBB JUMPI PUSH1 0x0 DUP1 REVERT JUMPDEST DUP2 CALLDATALOAD PUSH2 0x2903 DUP2 PUSH2 0x2E39 JUMP JUMPDEST PUSH1 0x0 PUSH1 0x20 DUP3 DUP5 SUB SLT ISZERO PUSH2 0x2FD8 JUMPI PUSH1 0x0 DUP1 REVERT JUMPDEST POP CALLDATALOAD SWAP2 SWAP1 POP JUMP JUMPDEST PUSH1 0x0 DUP1 PUSH1 0x40 DUP4 DUP6 SUB SLT ISZERO PUSH2 0x2FF2 JUMPI PUSH1 0x0 DUP1 REVERT JUMPDEST DUP3 CALLDATALOAD PUSH2 0x2FFD DUP2 PUSH2 0x2E39 JUMP JUMPDEST SWAP2 POP PUSH1 0x20 DUP4 ADD CALLDATALOAD PUSH2 0x2F7C DUP2 PUSH2 0x2E39 JUMP JUMPDEST PUSH1 0x0 PUSH1 0x20 DUP3 DUP5 SUB SLT ISZERO PUSH2 0x301F JUMPI PUSH1 0x0 DUP1 REVERT JUMPDEST DUP2 CALLDATALOAD PUSH1 0x1 PUSH1 0x1 PUSH1 0x40 SHL SUB DUP2 GT ISZERO PUSH2 0x3035 JUMPI PUSH1 0x0 DUP1 REVERT JUMPDEST DUP3 ADD PUSH1 0xC0 DUP2 DUP6 SUB SLT ISZERO PUSH2 0x2903 JUMPI PUSH1 0x0 DUP1 REVERT JUMPDEST PUSH1 0x0 DUP1 PUSH1 0x0 DUP1 PUSH1 0x60 DUP6 DUP8 SUB SLT ISZERO PUSH2 0x305D JUMPI PUSH1 0x0 DUP1 REVERT JUMPDEST DUP5 CALLDATALOAD PUSH2 0x3068 DUP2 PUSH2 0x2E39 JUMP JUMPDEST SWAP4 POP PUSH1 0x20 DUP6 ADD CALLDATALOAD SWAP3 POP PUSH1 0x40 DUP6 ADD CALLDATALOAD PUSH1 0x1 PUSH1 0x1 PUSH1 0x40 SHL SUB DUP1 DUP3 GT ISZERO PUSH2 0x308B JUMPI PUSH1 0x0 DUP1 REVERT JUMPDEST DUP2 DUP8 ADD SWAP2 POP DUP8 PUSH1 0x1F DUP4 ADD SLT PUSH2 0x309F JUMPI PUSH1 0x0 DUP1 REVERT JUMPDEST DUP2 CALLDATALOAD DUP2 DUP2 GT ISZERO PUSH2 0x30AE JUMPI PUSH1 0x0 DUP1 REVERT JUMPDEST DUP9 PUSH1 0x20 DUP3 DUP6 ADD ADD GT ISZERO PUSH2 0x30C0 JUMPI PUSH1 0x0 DUP1 REVERT JUMPDEST SWAP6 SWAP9 SWAP5 SWAP8 POP POP PUSH1 0x20 ADD SWAP5 POP POP POP JUMP JUMPDEST PUSH1 0x0 DUP2 MLOAD DUP1 DUP5 MSTORE PUSH1 0x20 DUP1 DUP6 ADD SWAP5 POP DUP1 DUP5 ADD PUSH1 0x0 JUMPDEST DUP4 DUP2 LT ISZERO PUSH2 0x30FF JUMPI DUP2 MLOAD DUP8 MSTORE SWAP6 DUP3 ADD SWAP6 SWAP1 DUP3 ADD SWAP1 PUSH1 0x1 ADD PUSH2 0x30E3 JUMP JUMPDEST POP SWAP5 SWAP6 SWAP5 POP POP POP POP POP JUMP JUMPDEST PUSH1 0x20 DUP2 MSTORE PUSH1 0x0 PUSH2 0x2903 PUSH1 0x20 DUP4 ADD DUP5 PUSH2 0x30CF JUMP JUMPDEST PUSH1 0x1 PUSH1 0x1 PUSH1 0x60 SHL SUB DUP7 DUP2 AND DUP3 MSTORE DUP6 AND PUSH1 0x20 DUP1 DUP4 ADD SWAP2 SWAP1 SWAP2 MSTORE PUSH1 0x1 PUSH1 0x1 PUSH1 0x40 SHL SUB DUP6 AND PUSH1 0x40 DUP4 ADD MSTORE PUSH1 0x1 PUSH1 0x1 PUSH1 0xA0 SHL SUB DUP5 DUP2 AND PUSH1 0x60 DUP5 ADD MSTORE PUSH1 0xA0 PUSH1 0x80 DUP5 ADD DUP2 SWAP1 MSTORE DUP5 MLOAD SWAP1 DUP5 ADD DUP2 SWAP1 MSTORE PUSH1 0x0 SWAP3 DUP6 DUP2 ADD SWAP3 SWAP2 PUSH1 0xC0 DUP7 ADD SWAP1 DUP6 JUMPDEST DUP2 DUP2 LT ISZERO PUSH2 0x3192 JUMPI DUP6 MLOAD DUP6 AND DUP4 MSTORE SWAP5 DUP4 ADD SWAP5 SWAP2 DUP4 ADD SWAP2 PUSH1 0x1 ADD PUSH2 0x3174 JUMP JUMPDEST POP SWAP1 SWAP12 SWAP11 POP POP POP POP POP POP POP POP POP POP POP JUMP JUMPDEST PUSH1 0x1 DUP2 DUP2 SHR SWAP1 DUP3 AND DUP1 PUSH2 0x31B7 JUMPI PUSH1 0x7F DUP3 AND SWAP2 POP JUMPDEST PUSH1 0x20 DUP3 LT DUP2 SUB PUSH2 0x31D7 JUMPI PUSH4 0x4E487B71 PUSH1 0xE0 SHL PUSH1 0x0 MSTORE PUSH1 0x22 PUSH1 0x4 MSTORE PUSH1 0x24 PUSH1 0x0 REVERT JUMPDEST POP SWAP2 SWAP1 POP JUMP JUMPDEST PUSH4 0x4E487B71 PUSH1 0xE0 SHL PUSH1 0x0 MSTORE PUSH1 0x32 PUSH1 0x4 MSTORE PUSH1 0x24 PUSH1 0x0 REVERT JUMPDEST PUSH4 0x4E487B71 PUSH1 0xE0 SHL PUSH1 0x0 MSTORE PUSH1 0x11 PUSH1 0x4 MSTORE PUSH1 0x24 PUSH1 0x0 REVERT JUMPDEST PUSH1 0x0 PUSH1 0x1 DUP3 ADD PUSH2 0x321B JUMPI PUSH2 0x321B PUSH2 0x31F3 JUMP JUMPDEST POP PUSH1 0x1 ADD SWAP1 JUMP JUMPDEST DUP3 DUP2 MSTORE PUSH1 0x40 PUSH1 0x20 DUP3 ADD MSTORE PUSH1 0x0 PUSH2 0x323B PUSH1 0x40 DUP4 ADD DUP5 PUSH2 0x30CF JUMP JUMPDEST SWAP5 SWAP4 POP POP POP POP JUMP JUMPDEST PUSH1 0x0 JUMPDEST DUP4 DUP2 LT ISZERO PUSH2 0x325E JUMPI DUP2 DUP2 ADD MLOAD DUP4 DUP3 ADD MSTORE PUSH1 0x20 ADD PUSH2 0x3246 JUMP JUMPDEST POP POP PUSH1 0x0 SWAP2 ADD MSTORE JUMP JUMPDEST PUSH1 0x0 DUP3 MLOAD PUSH2 0x3279 DUP2 DUP5 PUSH1 0x20 DUP8 ADD PUSH2 0x3243 JUMP JUMPDEST SWAP2 SWAP1 SWAP2 ADD SWAP3 SWAP2 POP POP JUMP JUMPDEST DUP2 DUP2 SUB DUP2 DUP2 GT ISZERO PUSH2 0x1480 JUMPI PUSH2 0x1480 PUSH2 0x31F3 JUMP JUMPDEST DUP1 DUP3 MUL DUP2 ISZERO DUP3 DUP3 DIV DUP5 EQ OR PUSH2 0x1480 JUMPI PUSH2 0x1480 PUSH2 0x31F3 JUMP JUMPDEST DUP1 DUP3 ADD DUP1 DUP3 GT ISZERO PUSH2 0x1480 JUMPI PUSH2 0x1480 PUSH2 0x31F3 JUMP JUMPDEST PUSH1 0x0 DUP3 PUSH2 0x32DD JUMPI PUSH4 0x4E487B71 PUSH1 0xE0 SHL PUSH1 0x0 MSTORE PUSH1 0x12 PUSH1 0x4 MSTORE PUSH1 0x24 PUSH1 0x0 REVERT JUMPDEST POP DIV SWAP1 JUMP JUMPDEST PUSH1 0x1 PUSH1 0x1 PUSH1 0x60 SHL SUB DUP2 DUP2 AND DUP4 DUP3 AND ADD SWAP1 DUP1 DUP3 GT ISZERO PUSH2 0x2D64 JUMPI PUSH2 0x2D64 PUSH2 0x31F3 JUMP JUMPDEST PUSH1 0x1 PUSH1 0x1 PUSH1 0x60 SHL SUB DUP3 DUP2 AND DUP3 DUP3 AND SUB SWAP1 DUP1 DUP3 GT ISZERO PUSH2 0x2D64 JUMPI PUSH2 0x2D64 PUSH2 0x31F3 JUMP JUMPDEST DUP1 ISZERO ISZERO DUP2 EQ PUSH2 0x2486 JUMPI PUSH1 0x0 DUP1 REVERT JUMPDEST PUSH1 0x0 PUSH1 0x20 DUP3 DUP5 SUB SLT ISZERO PUSH2 0x3342 JUMPI PUSH1 0x0 DUP1 REVERT JUMPDEST DUP2 MLOAD PUSH2 0x2903 DUP2 PUSH2 0x3322 JUMP JUMPDEST PUSH1 0x0 DUP1 DUP4 CALLDATALOAD PUSH1 0x1E NOT DUP5 CALLDATASIZE SUB ADD DUP2 SLT PUSH2 0x3364 JUMPI PUSH1 0x0 DUP1 REVERT JUMPDEST DUP4 ADD DUP1 CALLDATALOAD SWAP2 POP PUSH1 0x1 PUSH1 0x1 PUSH1 0x40 SHL SUB DUP3 GT ISZERO PUSH2 0x337E JUMPI PUSH1 0x0 DUP1 REVERT JUMPDEST PUSH1 0x20 ADD SWAP2 POP CALLDATASIZE DUP2 SWAP1 SUB DUP3 SGT ISZERO PUSH2 0x3393 JUMPI PUSH1 0x0 DUP1 REVERT JUMPDEST SWAP3 POP SWAP3 SWAP1 POP JUMP JUMPDEST PUSH1 0x0 PUSH1 0x20 DUP3 DUP5 SUB SLT ISZERO PUSH2 0x33AC JUMPI PUSH1 0x0 DUP1 REVERT JUMPDEST DUP2 CALLDATALOAD PUSH4 0xFFFFFFFF DUP2 AND DUP2 EQ PUSH2 0x2903 JUMPI PUSH1 0x0 DUP1 REVERT JUMPDEST PUSH1 0x1F DUP3 GT ISZERO PUSH2 0xFDF JUMPI PUSH1 0x0 DUP2 DUP2 MSTORE PUSH1 0x20 DUP2 KECCAK256 PUSH1 0x1F DUP6 ADD PUSH1 0x5 SHR DUP2 ADD PUSH1 0x20 DUP7 LT ISZERO PUSH2 0x33E7 JUMPI POP DUP1 JUMPDEST PUSH1 0x1F DUP6 ADD PUSH1 0x5 SHR DUP3 ADD SWAP2 POP JUMPDEST DUP2 DUP2 LT ISZERO PUSH2 0x3406 JUMPI DUP3 DUP2 SSTORE PUSH1 0x1 ADD PUSH2 0x33F3 JUMP JUMPDEST POP POP POP POP POP POP JUMP JUMPDEST DUP2 MLOAD PUSH1 0x1 PUSH1 0x1 PUSH1 0x40 SHL SUB DUP2 GT ISZERO PUSH2 0x3427 JUMPI PUSH2 0x3427 PUSH2 0x2E4E JUMP JUMPDEST PUSH2 0x343B DUP2 PUSH2 0x3435 DUP5 SLOAD PUSH2 0x31A3 JUMP JUMPDEST DUP5 PUSH2 0x33C0 JUMP JUMPDEST PUSH1 0x20 DUP1 PUSH1 0x1F DUP4 GT PUSH1 0x1 DUP2 EQ PUSH2 0x3470 JUMPI PUSH1 0x0 DUP5 ISZERO PUSH2 0x3458 JUMPI POP DUP6 DUP4 ADD MLOAD JUMPDEST PUSH1 0x0 NOT PUSH1 0x3 DUP7 SWAP1 SHL SHR NOT AND PUSH1 0x1 DUP6 SWAP1 SHL OR DUP6 SSTORE PUSH2 0x3406 JUMP JUMPDEST PUSH1 0x0 DUP6 DUP2 MSTORE PUSH1 0x20 DUP2 KECCAK256 PUSH1 0x1F NOT DUP7 AND SWAP2 JUMPDEST DUP3 DUP2 LT ISZERO PUSH2 0x349F JUMPI DUP9 DUP7 ADD MLOAD DUP3 SSTORE SWAP5 DUP5 ADD SWAP5 PUSH1 0x1 SWAP1 SWAP2 ADD SWAP1 DUP5 ADD PUSH2 0x3480 JUMP JUMPDEST POP DUP6 DUP3 LT ISZERO PUSH2 0x34BD JUMPI DUP8 DUP6 ADD MLOAD PUSH1 0x0 NOT PUSH1 0x3 DUP9 SWAP1 SHL PUSH1 0xF8 AND SHR NOT AND DUP2 SSTORE JUMPDEST POP POP POP POP POP PUSH1 0x1 SWAP1 DUP2 SHL ADD SWAP1 SSTORE POP JUMP JUMPDEST PUSH1 0x0 PUSH1 0x20 DUP3 DUP5 SUB SLT ISZERO PUSH2 0x34DF JUMPI PUSH1 0x0 DUP1 REVERT JUMPDEST DUP2 CALLDATALOAD PUSH2 0xFFFF DUP2 AND DUP2 EQ PUSH2 0x2903 JUMPI PUSH1 0x0 DUP1 REVERT JUMPDEST DUP7 DUP2 MSTORE DUP6 PUSH1 0x20 DUP3 ADD MSTORE PUSH2 0xFFFF DUP6 AND PUSH1 0x40 DUP3 ADD MSTORE PUSH1 0x0 PUSH4 0xFFFFFFFF DUP1 DUP7 AND PUSH1 0x60 DUP5 ADD MSTORE DUP1 DUP6 AND PUSH1 0x80 DUP5 ADD MSTORE POP PUSH1 0xC0 PUSH1 0xA0 DUP4 ADD MSTORE DUP3 MLOAD DUP1 PUSH1 0xC0 DUP5 ADD MSTORE PUSH2 0x353C DUP2 PUSH1 0xE0 DUP6 ADD PUSH1 0x20 DUP8 ADD PUSH2 0x3243 JUMP JUMPDEST PUSH1 0x1F ADD PUSH1 0x1F NOT AND SWAP2 SWAP1 SWAP2 ADD PUSH1 0xE0 ADD SWAP8 SWAP7 POP POP POP POP POP POP POP JUMP JUMPDEST PUSH1 0x1 PUSH1 0x1 PUSH1 0x40 SHL SUB DUP2 DUP2 AND DUP4 DUP3 AND ADD SWAP1 DUP1 DUP3 GT ISZERO PUSH2 0x2D64 JUMPI PUSH2 0x2D64 PUSH2 0x31F3 JUMP JUMPDEST PUSH4 0x4E487B71 PUSH1 0xE0 SHL PUSH1 0x0 MSTORE PUSH1 0x31 PUSH1 0x4 MSTORE PUSH1 0x24 PUSH1 0x0 REVERT JUMPDEST PUSH1 0x0 PUSH1 0x20 DUP3 DUP5 SUB SLT ISZERO PUSH2 0x359D JUMPI PUSH1 0x0 DUP1 REVERT JUMPDEST POP MLOAD SWAP2 SWAP1 POP JUMP JUMPDEST PUSH1 0x1 PUSH1 0x1 PUSH1 0xE0 SHL SUB NOT DUP2 CALLDATALOAD DUP2 DUP2 AND SWAP2 PUSH1 0x4 DUP6 LT ISZERO PUSH2 0x35CC JUMPI DUP1 DUP2 DUP7 PUSH1 0x4 SUB PUSH1 0x3 SHL SHL DUP4 AND AND SWAP3 POP JUMPDEST POP POP SWAP3 SWAP2 POP POP JUMP JUMPDEST PUSH1 0x0 DUP1 DUP6 DUP6 GT ISZERO PUSH2 0x35E4 JUMPI PUSH1 0x0 DUP1 REVERT JUMPDEST DUP4 DUP7 GT ISZERO PUSH2 0x35F1 JUMPI PUSH1 0x0 DUP1 REVERT JUMPDEST POP POP DUP3 ADD SWAP4 SWAP2 SWAP1 SWAP3 SUB SWAP2 POP JUMP JUMPDEST PUSH1 0x0 PUSH1 0x20 DUP3 DUP5 SUB SLT ISZERO PUSH2 0x3610 JUMPI PUSH1 0x0 DUP1 REVERT JUMPDEST PUSH1 0x40 MLOAD PUSH1 0x20 DUP2 ADD DUP2 DUP2 LT PUSH1 0x1 PUSH1 0x1 PUSH1 0x40 SHL SUB DUP3 GT OR ISZERO PUSH2 0x3632 JUMPI PUSH2 0x3632 PUSH2 0x2E4E JUMP JUMPDEST PUSH1 0x40 MSTORE DUP3 CALLDATALOAD PUSH2 0x3640 DUP2 PUSH2 0x3322 JUMP JUMPDEST DUP2 MSTORE SWAP4 SWAP3 POP POP POP JUMP INVALID LOG2 PUSH5 0x6970667358 0x22 SLT KECCAK256 PUSH20 0x215A99276330C7BD5E223A17F7321448C5051399 0xB3 DUP15 0xF6 SUB 0x22 0x24 SWAP7 SHL 0xE4 SHL COINBASE PUSH5 0x736F6C6343 STOP ADDMOD SGT STOP CALLER "},"gasEstimates":{"creation":{"codeDepositCost":"2790200","executionCost":"infinite","totalCost":"infinite"},"external":{"LINK()":"2427","LINK_NATIVE_FEED()":"2382","MAX_CONSUMERS()":"294","acceptOwnership()":"52366","acceptSubscriptionOwnerTransfer(uint256)":"57160","addConsumer(uint256,address)":"83570","cancelSubscription(uint256,address)":"infinite","consumerIsAdded(uint256,address)":"2759","createSubscription()":"infinite","fulfillRandomWords(uint256,address)":"infinite","fulfillRandomWordsWithOverride(uint256,address,uint256[])":"infinite","fundSubscription(uint256,uint256)":"infinite","fundSubscriptionWithNative(uint256)":"infinite","getActiveSubscriptionIds(uint256,uint256)":"infinite","getSubscription(uint256)":"infinite","i_base_fee()":"infinite","i_gas_price()":"infinite","i_wei_per_unit_link()":"infinite","onTokenTransfer(address,uint256,bytes)":"infinite","owner()":"2399","ownerCancelSubscription(uint256)":"infinite","pendingRequestExists(uint256)":"312","recoverFunds(address)":"infinite","recoverNativeFunds(address)":"infinite","removeConsumer(uint256,address)":"infinite","requestRandomWords((bytes32,uint256,uint16,uint32,uint32,bytes))":"infinite","requestSubscriptionOwnerTransfer(uint256,address)":"33035","s_config()":"2755","s_currentSubNonce()":"2404","s_totalBalance()":"2470","s_totalNativeBalance()":"2422","setConfig()":"27562","setLINKAndLINKNativeFeed(address,address)":"infinite","transferOwnership(address)":"infinite","withdraw(address)":"infinite","withdrawNative(address)":"infinite"},"internal":{"_chargePayment(uint96,bool,uint256)":"infinite","_fromBytes(bytes calldata)":"infinite"}},"methodIdentifiers":{"LINK()":"1b6b6d23","LINK_NATIVE_FEED()":"72e9d565","MAX_CONSUMERS()":"64d51a2a","acceptOwnership()":"79ba5097","acceptSubscriptionOwnerTransfer(uint256)":"b2a7cac5","addConsumer(uint256,address)":"bec4c08c","cancelSubscription(uint256,address)":"0ae09540","consumerIsAdded(uint256,address)":"953e9c75","createSubscription()":"a21a23e4","fulfillRandomWords(uint256,address)":"808974ff","fulfillRandomWordsWithOverride(uint256,address,uint256[])":"08e3898e","fundSubscription(uint256,uint256)":"115e3c0d","fundSubscriptionWithNative(uint256)":"95b55cfc","getActiveSubscriptionIds(uint256,uint256)":"aefb212f","getSubscription(uint256)":"dc311dd3","i_base_fee()":"1eebc117","i_gas_price()":"dcab3dcf","i_wei_per_unit_link()":"13478329","onTokenTransfer(address,uint256,bytes)":"a4c0ed36","owner()":"8da5cb5b","ownerCancelSubscription(uint256)":"aa433aff","pendingRequestExists(uint256)":"41af6c87","recoverFunds(address)":"e72f6e30","recoverNativeFunds(address)":"8402595e","removeConsumer(uint256,address)":"cb631797","requestRandomWords((bytes32,uint256,uint16,uint32,uint32,bytes))":"9b1c385e","requestSubscriptionOwnerTransfer(uint256,address)":"dac83d29","s_config()":"088070f5","s_currentSubNonce()":"9d40a6fd","s_totalBalance()":"86fe91c7","s_totalNativeBalance()":"18e3dd27","setConfig()":"8b673e7a","setLINKAndLINKNativeFeed(address,address)":"65982744","transferOwnership(address)":"f2fde38b","withdraw(address)":"51cff8d9","withdrawNative(address)":"2f622e6b"}},"storageLayout":{"storage":[{"astId":97,"contract":"@chainlink/contracts/src/v0.8/vrf/mocks/VRFCoordinatorV2_5Mock.sol:VRFCoordinatorV2_5Mock","label":"s_owner","offset":0,"slot":"0","type":"t_address"},{"astId":99,"contract":"@chainlink/contracts/src/v0.8/vrf/mocks/VRFCoordinatorV2_5Mock.sol:VRFCoordinatorV2_5Mock","label":"s_pendingOwner","offset":0,"slot":"1","type":"t_address"},{"astId":1061,"contract":"@chainlink/contracts/src/v0.8/vrf/mocks/VRFCoordinatorV2_5Mock.sol:VRFCoordinatorV2_5Mock","label":"LINK","offset":0,"slot":"2","type":"t_contract(LinkTokenInterface)420"},{"astId":1065,"contract":"@chainlink/contracts/src/v0.8/vrf/mocks/VRFCoordinatorV2_5Mock.sol:VRFCoordinatorV2_5Mock","label":"LINK_NATIVE_FEED","offset":0,"slot":"3","type":"t_contract(AggregatorV3Interface)297"},{"astId":1151,"contract":"@chainlink/contracts/src/v0.8/vrf/mocks/VRFCoordinatorV2_5Mock.sol:VRFCoordinatorV2_5Mock","label":"s_consumers","offset":0,"slot":"4","type":"t_mapping(t_address,t_mapping(t_uint256,t_struct(ConsumerConfig)1144_storage))"},{"astId":1156,"contract":"@chainlink/contracts/src/v0.8/vrf/mocks/VRFCoordinatorV2_5Mock.sol:VRFCoordinatorV2_5Mock","label":"s_subscriptionConfigs","offset":0,"slot":"5","type":"t_mapping(t_uint256,t_struct(SubscriptionConfig)1137_storage)"},{"astId":1161,"contract":"@chainlink/contracts/src/v0.8/vrf/mocks/VRFCoordinatorV2_5Mock.sol:VRFCoordinatorV2_5Mock","label":"s_subscriptions","offset":0,"slot":"6","type":"t_mapping(t_uint256,t_struct(Subscription)1129_storage)"},{"astId":1163,"contract":"@chainlink/contracts/src/v0.8/vrf/mocks/VRFCoordinatorV2_5Mock.sol:VRFCoordinatorV2_5Mock","label":"s_currentSubNonce","offset":0,"slot":"7","type":"t_uint64"},{"astId":1166,"contract":"@chainlink/contracts/src/v0.8/vrf/mocks/VRFCoordinatorV2_5Mock.sol:VRFCoordinatorV2_5Mock","label":"s_subIds","offset":0,"slot":"8","type":"t_struct(UintSet)903_storage"},{"astId":1168,"contract":"@chainlink/contracts/src/v0.8/vrf/mocks/VRFCoordinatorV2_5Mock.sol:VRFCoordinatorV2_5Mock","label":"s_totalBalance","offset":0,"slot":"10","type":"t_uint96"},{"astId":1170,"contract":"@chainlink/contracts/src/v0.8/vrf/mocks/VRFCoordinatorV2_5Mock.sol:VRFCoordinatorV2_5Mock","label":"s_totalNativeBalance","offset":12,"slot":"10","type":"t_uint96"},{"astId":1172,"contract":"@chainlink/contracts/src/v0.8/vrf/mocks/VRFCoordinatorV2_5Mock.sol:VRFCoordinatorV2_5Mock","label":"s_withdrawableTokens","offset":0,"slot":"11","type":"t_uint96"},{"astId":1174,"contract":"@chainlink/contracts/src/v0.8/vrf/mocks/VRFCoordinatorV2_5Mock.sol:VRFCoordinatorV2_5Mock","label":"s_withdrawableNative","offset":12,"slot":"11","type":"t_uint96"},{"astId":1256,"contract":"@chainlink/contracts/src/v0.8/vrf/mocks/VRFCoordinatorV2_5Mock.sol:VRFCoordinatorV2_5Mock","label":"s_config","offset":0,"slot":"12","type":"t_struct(Config)1253_storage"},{"astId":2763,"contract":"@chainlink/contracts/src/v0.8/vrf/mocks/VRFCoordinatorV2_5Mock.sol:VRFCoordinatorV2_5Mock","label":"s_currentSubId","offset":0,"slot":"13","type":"t_uint64"},{"astId":2766,"contract":"@chainlink/contracts/src/v0.8/vrf/mocks/VRFCoordinatorV2_5Mock.sol:VRFCoordinatorV2_5Mock","label":"s_nextRequestId","offset":0,"slot":"14","type":"t_uint256"},{"astId":2769,"contract":"@chainlink/contracts/src/v0.8/vrf/mocks/VRFCoordinatorV2_5Mock.sol:VRFCoordinatorV2_5Mock","label":"s_nextPreSeed","offset":0,"slot":"15","type":"t_uint256"},{"astId":2783,"contract":"@chainlink/contracts/src/v0.8/vrf/mocks/VRFCoordinatorV2_5Mock.sol:VRFCoordinatorV2_5Mock","label":"s_requests","offset":0,"slot":"16","type":"t_mapping(t_uint256,t_struct(Request)2778_storage)"}],"types":{"t_address":{"encoding":"inplace","label":"address","numberOfBytes":"20"},"t_array(t_address)dyn_storage":{"base":"t_address","encoding":"dynamic_array","label":"address[]","numberOfBytes":"32"},"t_array(t_bytes32)dyn_storage":{"base":"t_bytes32","encoding":"dynamic_array","label":"bytes32[]","numberOfBytes":"32"},"t_bool":{"encoding":"inplace","label":"bool","numberOfBytes":"1"},"t_bytes32":{"encoding":"inplace","label":"bytes32","numberOfBytes":"32"},"t_bytes_storage":{"encoding":"bytes","label":"bytes","numberOfBytes":"32"},"t_contract(AggregatorV3Interface)297":{"encoding":"inplace","label":"contract AggregatorV3Interface","numberOfBytes":"20"},"t_contract(LinkTokenInterface)420":{"encoding":"inplace","label":"contract LinkTokenInterface","numberOfBytes":"20"},"t_mapping(t_address,t_mapping(t_uint256,t_struct(ConsumerConfig)1144_storage))":{"encoding":"mapping","key":"t_address","label":"mapping(address => mapping(uint256 => struct SubscriptionAPI.ConsumerConfig))","numberOfBytes":"32","value":"t_mapping(t_uint256,t_struct(ConsumerConfig)1144_storage)"},"t_mapping(t_bytes32,t_uint256)":{"encoding":"mapping","key":"t_bytes32","label":"mapping(bytes32 => uint256)","numberOfBytes":"32","value":"t_uint256"},"t_mapping(t_uint256,t_struct(ConsumerConfig)1144_storage)":{"encoding":"mapping","key":"t_uint256","label":"mapping(uint256 => struct SubscriptionAPI.ConsumerConfig)","numberOfBytes":"32","value":"t_struct(ConsumerConfig)1144_storage"},"t_mapping(t_uint256,t_struct(Request)2778_storage)":{"encoding":"mapping","key":"t_uint256","label":"mapping(uint256 => struct VRFCoordinatorV2_5Mock.Request)","numberOfBytes":"32","value":"t_struct(Request)2778_storage"},"t_mapping(t_uint256,t_struct(Subscription)1129_storage)":{"encoding":"mapping","key":"t_uint256","label":"mapping(uint256 => struct SubscriptionAPI.Subscription)","numberOfBytes":"32","value":"t_struct(Subscription)1129_storage"},"t_mapping(t_uint256,t_struct(SubscriptionConfig)1137_storage)":{"encoding":"mapping","key":"t_uint256","label":"mapping(uint256 => struct SubscriptionAPI.SubscriptionConfig)","numberOfBytes":"32","value":"t_struct(SubscriptionConfig)1137_storage"},"t_struct(Config)1253_storage":{"encoding":"inplace","label":"struct SubscriptionAPI.Config","members":[{"astId":1236,"contract":"@chainlink/contracts/src/v0.8/vrf/mocks/VRFCoordinatorV2_5Mock.sol:VRFCoordinatorV2_5Mock","label":"minimumRequestConfirmations","offset":0,"slot":"0","type":"t_uint16"},{"astId":1238,"contract":"@chainlink/contracts/src/v0.8/vrf/mocks/VRFCoordinatorV2_5Mock.sol:VRFCoordinatorV2_5Mock","label":"maxGasLimit","offset":2,"slot":"0","type":"t_uint32"},{"astId":1240,"contract":"@chainlink/contracts/src/v0.8/vrf/mocks/VRFCoordinatorV2_5Mock.sol:VRFCoordinatorV2_5Mock","label":"reentrancyLock","offset":6,"slot":"0","type":"t_bool"},{"astId":1242,"contract":"@chainlink/contracts/src/v0.8/vrf/mocks/VRFCoordinatorV2_5Mock.sol:VRFCoordinatorV2_5Mock","label":"stalenessSeconds","offset":7,"slot":"0","type":"t_uint32"},{"astId":1244,"contract":"@chainlink/contracts/src/v0.8/vrf/mocks/VRFCoordinatorV2_5Mock.sol:VRFCoordinatorV2_5Mock","label":"gasAfterPaymentCalculation","offset":11,"slot":"0","type":"t_uint32"},{"astId":1246,"contract":"@chainlink/contracts/src/v0.8/vrf/mocks/VRFCoordinatorV2_5Mock.sol:VRFCoordinatorV2_5Mock","label":"fulfillmentFlatFeeNativePPM","offset":15,"slot":"0","type":"t_uint32"},{"astId":1248,"contract":"@chainlink/contracts/src/v0.8/vrf/mocks/VRFCoordinatorV2_5Mock.sol:VRFCoordinatorV2_5Mock","label":"fulfillmentFlatFeeLinkDiscountPPM","offset":19,"slot":"0","type":"t_uint32"},{"astId":1250,"contract":"@chainlink/contracts/src/v0.8/vrf/mocks/VRFCoordinatorV2_5Mock.sol:VRFCoordinatorV2_5Mock","label":"nativePremiumPercentage","offset":23,"slot":"0","type":"t_uint8"},{"astId":1252,"contract":"@chainlink/contracts/src/v0.8/vrf/mocks/VRFCoordinatorV2_5Mock.sol:VRFCoordinatorV2_5Mock","label":"linkPremiumPercentage","offset":24,"slot":"0","type":"t_uint8"}],"numberOfBytes":"32"},"t_struct(ConsumerConfig)1144_storage":{"encoding":"inplace","label":"struct SubscriptionAPI.ConsumerConfig","members":[{"astId":1139,"contract":"@chainlink/contracts/src/v0.8/vrf/mocks/VRFCoordinatorV2_5Mock.sol:VRFCoordinatorV2_5Mock","label":"active","offset":0,"slot":"0","type":"t_bool"},{"astId":1141,"contract":"@chainlink/contracts/src/v0.8/vrf/mocks/VRFCoordinatorV2_5Mock.sol:VRFCoordinatorV2_5Mock","label":"nonce","offset":1,"slot":"0","type":"t_uint64"},{"astId":1143,"contract":"@chainlink/contracts/src/v0.8/vrf/mocks/VRFCoordinatorV2_5Mock.sol:VRFCoordinatorV2_5Mock","label":"pendingReqCount","offset":9,"slot":"0","type":"t_uint64"}],"numberOfBytes":"32"},"t_struct(Request)2778_storage":{"encoding":"inplace","label":"struct VRFCoordinatorV2_5Mock.Request","members":[{"astId":2771,"contract":"@chainlink/contracts/src/v0.8/vrf/mocks/VRFCoordinatorV2_5Mock.sol:VRFCoordinatorV2_5Mock","label":"subId","offset":0,"slot":"0","type":"t_uint256"},{"astId":2773,"contract":"@chainlink/contracts/src/v0.8/vrf/mocks/VRFCoordinatorV2_5Mock.sol:VRFCoordinatorV2_5Mock","label":"callbackGasLimit","offset":0,"slot":"1","type":"t_uint32"},{"astId":2775,"contract":"@chainlink/contracts/src/v0.8/vrf/mocks/VRFCoordinatorV2_5Mock.sol:VRFCoordinatorV2_5Mock","label":"numWords","offset":4,"slot":"1","type":"t_uint32"},{"astId":2777,"contract":"@chainlink/contracts/src/v0.8/vrf/mocks/VRFCoordinatorV2_5Mock.sol:VRFCoordinatorV2_5Mock","label":"extraArgs","offset":0,"slot":"2","type":"t_bytes_storage"}],"numberOfBytes":"96"},"t_struct(Set)431_storage":{"encoding":"inplace","label":"struct EnumerableSet.Set","members":[{"astId":426,"contract":"@chainlink/contracts/src/v0.8/vrf/mocks/VRFCoordinatorV2_5Mock.sol:VRFCoordinatorV2_5Mock","label":"_values","offset":0,"slot":"0","type":"t_array(t_bytes32)dyn_storage"},{"astId":430,"contract":"@chainlink/contracts/src/v0.8/vrf/mocks/VRFCoordinatorV2_5Mock.sol:VRFCoordinatorV2_5Mock","label":"_indexes","offset":0,"slot":"1","type":"t_mapping(t_bytes32,t_uint256)"}],"numberOfBytes":"64"},"t_struct(Subscription)1129_storage":{"encoding":"inplace","label":"struct SubscriptionAPI.Subscription","members":[{"astId":1124,"contract":"@chainlink/contracts/src/v0.8/vrf/mocks/VRFCoordinatorV2_5Mock.sol:VRFCoordinatorV2_5Mock","label":"balance","offset":0,"slot":"0","type":"t_uint96"},{"astId":1126,"contract":"@chainlink/contracts/src/v0.8/vrf/mocks/VRFCoordinatorV2_5Mock.sol:VRFCoordinatorV2_5Mock","label":"nativeBalance","offset":12,"slot":"0","type":"t_uint96"},{"astId":1128,"contract":"@chainlink/contracts/src/v0.8/vrf/mocks/VRFCoordinatorV2_5Mock.sol:VRFCoordinatorV2_5Mock","label":"reqCount","offset":24,"slot":"0","type":"t_uint64"}],"numberOfBytes":"32"},"t_struct(SubscriptionConfig)1137_storage":{"encoding":"inplace","label":"struct SubscriptionAPI.SubscriptionConfig","members":[{"astId":1131,"contract":"@chainlink/contracts/src/v0.8/vrf/mocks/VRFCoordinatorV2_5Mock.sol:VRFCoordinatorV2_5Mock","label":"owner","offset":0,"slot":"0","type":"t_address"},{"astId":1133,"contract":"@chainlink/contracts/src/v0.8/vrf/mocks/VRFCoordinatorV2_5Mock.sol:VRFCoordinatorV2_5Mock","label":"requestedOwner","offset":0,"slot":"1","type":"t_address"},{"astId":1136,"contract":"@chainlink/contracts/src/v0.8/vrf/mocks/VRFCoordinatorV2_5Mock.sol:VRFCoordinatorV2_5Mock","label":"consumers","offset":0,"slot":"2","type":"t_array(t_address)dyn_storage"}],"numberOfBytes":"96"},"t_struct(UintSet)903_storage":{"encoding":"inplace","label":"struct EnumerableSet.UintSet","members":[{"astId":902,"contract":"@chainlink/contracts/src/v0.8/vrf/mocks/VRFCoordinatorV2_5Mock.sol:VRFCoordinatorV2_5Mock","label":"_inner","offset":0,"slot":"0","type":"t_struct(Set)431_storage"}],"numberOfBytes":"64"},"t_uint16":{"encoding":"inplace","label":"uint16","numberOfBytes":"2"},"t_uint256":{"encoding":"inplace","label":"uint256","numberOfBytes":"32"},"t_uint32":{"encoding":"inplace","label":"uint32","numberOfBytes":"4"},"t_uint64":{"encoding":"inplace","label":"uint64","numberOfBytes":"8"},"t_uint8":{"encoding":"inplace","label":"uint8","numberOfBytes":"1"},"t_uint96":{"encoding":"inplace","label":"uint96","numberOfBytes":"12"}}},"userdoc":{"kind":"user","methods":{"acceptOwnership()":{"notice":"Allows an ownership transfer to be completed by the recipient."},"acceptSubscriptionOwnerTransfer(uint256)":{"notice":"Accept subscription owner transfer."},"addConsumer(uint256,address)":{"notice":"Add a consumer to a VRF subscription."},"cancelSubscription(uint256,address)":{"notice":"Cancel a subscription"},"createSubscription()":{"notice":"Create a VRF subscription."},"fulfillRandomWords(uint256,address)":{"notice":"fulfillRandomWords fulfills the given request, sending the random words to the suppliedconsumer."},"fulfillRandomWordsWithOverride(uint256,address,uint256[])":{"notice":"fulfillRandomWordsWithOverride allows the user to pass in their own random words."},"fundSubscription(uint256,uint256)":{"notice":"fundSubscription allows funding a subscription with an arbitrary amount for testing."},"fundSubscriptionWithNative(uint256)":{"notice":"Fund a subscription with native.This method expects msg.value to be greater than or equal to 0."},"getActiveSubscriptionIds(uint256,uint256)":{"notice":"Paginate through all active VRF subscriptions."},"getSubscription(uint256)":{"notice":"Get a VRF subscription."},"owner()":{"notice":"Get the current owner"},"ownerCancelSubscription(uint256)":{"notice":"Owner cancel subscription, sends remaining link directly to the subscription owner."},"recoverFunds(address)":{"notice":"Recover link sent with transfer instead of transferAndCall."},"recoverNativeFunds(address)":{"notice":"Recover native sent with transfer/call/send instead of fundSubscription."},"removeConsumer(uint256,address)":{"notice":"Remove a consumer from a VRF subscription."},"requestSubscriptionOwnerTransfer(uint256,address)":{"notice":"Request subscription owner transfer."},"setConfig()":{"notice":"Sets the configuration of the vrfv2 mock coordinator"},"setLINKAndLINKNativeFeed(address,address)":{"notice":"set the LINK token contract and link native feed to be used by this coordinator"},"transferOwnership(address)":{"notice":"Allows an owner to begin transferring ownership to a new address."}},"version":1}}}}