{
  "address": "0x1d9c2a99BBA8259db5476A81693FF710d5f55935",
  "abi": [
    {
      "inputs": [
        {
          "internalType": "address",
          "name": "vrfCoordinatorV2Address",
          "type": "address"
        },
        {
          "internalType": "uint256",
          "name": "subscriptionId",
          "type": "uint256"
        },
        {
          "internalType": "uint256",
          "name": "enteranceFee",
          "type": "uint256"
        },
        {
          "internalType": "uint256",
          "name": "interval",
          "type": "uint256"
        }
      ],
      "stateMutability": "nonpayable",
      "type": "constructor"
    },
    {
      "inputs": [
        {
          "internalType": "address",
          "name": "have",
          "type": "address"
        },
        {
          "internalType": "address",
          "name": "want",
          "type": "address"
        }
      ],
      "name": "OnlyCoordinatorCanFulfill",
      "type": "error"
    },
    {
      "inputs": [
        {
          "internalType": "address",
          "name": "have",
          "type": "address"
        },
        {
          "internalType": "address",
          "name": "owner",
          "type": "address"
        },
        {
          "internalType": "address",
          "name": "coordinator",
          "type": "address"
        }
      ],
      "name": "OnlyOwnerOrCoordinator",
      "type": "error"
    },
    {
      "inputs": [],
      "name": "Raffel__NotOpen",
      "type": "error"
    },
    {
      "inputs": [],
      "name": "Raffel__TransferFailed",
      "type": "error"
    },
    {
      "inputs": [],
      "name": "Raffel__notEnoughEthEntered",
      "type": "error"
    },
    {
      "inputs": [
        {
          "internalType": "uint256",
          "name": "balance",
          "type": "uint256"
        },
        {
          "internalType": "uint256",
          "name": "numberOfPlayers",
          "type": "uint256"
        },
        {
          "internalType": "uint256",
          "name": "raffelstate",
          "type": "uint256"
        }
      ],
      "name": "Raffel__upKeepNotNeeded",
      "type": "error"
    },
    {
      "inputs": [],
      "name": "ZeroAddress",
      "type": "error"
    },
    {
      "anonymous": false,
      "inputs": [
        {
          "indexed": false,
          "internalType": "address",
          "name": "vrfCoordinator",
          "type": "address"
        }
      ],
      "name": "CoordinatorSet",
      "type": "event"
    },
    {
      "anonymous": false,
      "inputs": [
        {
          "indexed": true,
          "internalType": "address",
          "name": "from",
          "type": "address"
        },
        {
          "indexed": true,
          "internalType": "address",
          "name": "to",
          "type": "address"
        }
      ],
      "name": "OwnershipTransferRequested",
      "type": "event"
    },
    {
      "anonymous": false,
      "inputs": [
        {
          "indexed": true,
          "internalType": "address",
          "name": "from",
          "type": "address"
        },
        {
          "indexed": true,
          "internalType": "address",
          "name": "to",
          "type": "address"
        }
      ],
      "name": "OwnershipTransferred",
      "type": "event"
    },
    {
      "anonymous": false,
      "inputs": [
        {
          "indexed": true,
          "internalType": "address",
          "name": "player",
          "type": "address"
        }
      ],
      "name": "raffelEnter",
      "type": "event"
    },
    {
      "anonymous": false,
      "inputs": [
        {
          "indexed": true,
          "internalType": "address",
          "name": "winner",
          "type": "address"
        }
      ],
      "name": "winnerPicked",
      "type": "event"
    },
    {
      "anonymous": false,
      "inputs": [
        {
          "indexed": false,
          "internalType": "uint256",
          "name": "requestId",
          "type": "uint256"
        }
      ],
      "name": "winnerRandomRequest",
      "type": "event"
    },
    {
      "inputs": [],
      "name": "acceptOwnership",
      "outputs": [],
      "stateMutability": "nonpayable",
      "type": "function"
    },
    {
      "inputs": [],
      "name": "callbackGasLimit",
      "outputs": [
        {
          "internalType": "uint32",
          "name": "",
          "type": "uint32"
        }
      ],
      "stateMutability": "view",
      "type": "function"
    },
    {
      "inputs": [
        {
          "internalType": "bytes",
          "name": "",
          "type": "bytes"
        }
      ],
      "name": "checkUpkeep",
      "outputs": [
        {
          "internalType": "bool",
          "name": "upkeepNeeded",
          "type": "bool"
        },
        {
          "internalType": "bytes",
          "name": "",
          "type": "bytes"
        }
      ],
      "stateMutability": "nonpayable",
      "type": "function"
    },
    {
      "inputs": [],
      "name": "enterRaffel",
      "outputs": [],
      "stateMutability": "payable",
      "type": "function"
    },
    {
      "inputs": [],
      "name": "getEnteranceFee",
      "outputs": [
        {
          "internalType": "uint256",
          "name": "",
          "type": "uint256"
        }
      ],
      "stateMutability": "view",
      "type": "function"
    },
    {
      "inputs": [],
      "name": "getInterval",
      "outputs": [
        {
          "internalType": "uint256",
          "name": "",
          "type": "uint256"
        }
      ],
      "stateMutability": "view",
      "type": "function"
    },
    {
      "inputs": [],
      "name": "getLatestTimeStamp",
      "outputs": [
        {
          "internalType": "uint256",
          "name": "",
          "type": "uint256"
        }
      ],
      "stateMutability": "view",
      "type": "function"
    },
    {
      "inputs": [],
      "name": "getNumberOfPlayers",
      "outputs": [
        {
          "internalType": "uint256",
          "name": "",
          "type": "uint256"
        }
      ],
      "stateMutability": "view",
      "type": "function"
    },
    {
      "inputs": [
        {
          "internalType": "uint256",
          "name": "index",
          "type": "uint256"
        }
      ],
      "name": "getPlayers",
      "outputs": [
        {
          "internalType": "address",
          "name": "",
          "type": "address"
        }
      ],
      "stateMutability": "view",
      "type": "function"
    },
    {
      "inputs": [],
      "name": "getRaffelState",
      "outputs": [
        {
          "internalType": "enum Raffel.RaffelState",
          "name": "",
          "type": "uint8"
        }
      ],
      "stateMutability": "view",
      "type": "function"
    },
    {
      "inputs": [],
      "name": "getRecentWinner",
      "outputs": [
        {
          "internalType": "address",
          "name": "",
          "type": "address"
        }
      ],
      "stateMutability": "view",
      "type": "function"
    },
    {
      "inputs": [],
      "name": "keyHash",
      "outputs": [
        {
          "internalType": "bytes32",
          "name": "",
          "type": "bytes32"
        }
      ],
      "stateMutability": "view",
      "type": "function"
    },
    {
      "inputs": [],
      "name": "lastRequestId",
      "outputs": [
        {
          "internalType": "uint256",
          "name": "",
          "type": "uint256"
        }
      ],
      "stateMutability": "view",
      "type": "function"
    },
    {
      "inputs": [],
      "name": "numWords",
      "outputs": [
        {
          "internalType": "uint32",
          "name": "",
          "type": "uint32"
        }
      ],
      "stateMutability": "view",
      "type": "function"
    },
    {
      "inputs": [],
      "name": "owner",
      "outputs": [
        {
          "internalType": "address",
          "name": "",
          "type": "address"
        }
      ],
      "stateMutability": "view",
      "type": "function"
    },
    {
      "inputs": [
        {
          "internalType": "bytes",
          "name": "",
          "type": "bytes"
        }
      ],
      "name": "performUpkeep",
      "outputs": [],
      "stateMutability": "nonpayable",
      "type": "function"
    },
    {
      "inputs": [
        {
          "internalType": "uint256",
          "name": "requestId",
          "type": "uint256"
        },
        {
          "internalType": "uint256[]",
          "name": "randomWords",
          "type": "uint256[]"
        }
      ],
      "name": "rawFulfillRandomWords",
      "outputs": [],
      "stateMutability": "nonpayable",
      "type": "function"
    },
    {
      "inputs": [],
      "name": "requestConfirmations",
      "outputs": [
        {
          "internalType": "uint16",
          "name": "",
          "type": "uint16"
        }
      ],
      "stateMutability": "view",
      "type": "function"
    },
    {
      "inputs": [
        {
          "internalType": "uint256",
          "name": "",
          "type": "uint256"
        }
      ],
      "name": "requestIds",
      "outputs": [
        {
          "internalType": "uint256",
          "name": "",
          "type": "uint256"
        }
      ],
      "stateMutability": "view",
      "type": "function"
    },
    {
      "inputs": [
        {
          "internalType": "bool",
          "name": "enableNativePayment",
          "type": "bool"
        }
      ],
      "name": "requestRandomWinner",
      "outputs": [
        {
          "internalType": "uint256",
          "name": "requestId",
          "type": "uint256"
        }
      ],
      "stateMutability": "nonpayable",
      "type": "function"
    },
    {
      "inputs": [
        {
          "internalType": "uint256",
          "name": "",
          "type": "uint256"
        }
      ],
      "name": "s_requests",
      "outputs": [
        {
          "internalType": "bool",
          "name": "fulfilled",
          "type": "bool"
        },
        {
          "internalType": "bool",
          "name": "exists",
          "type": "bool"
        }
      ],
      "stateMutability": "view",
      "type": "function"
    },
    {
      "inputs": [],
      "name": "s_vrfCoordinator",
      "outputs": [
        {
          "internalType": "contract IVRFCoordinatorV2Plus",
          "name": "",
          "type": "address"
        }
      ],
      "stateMutability": "view",
      "type": "function"
    },
    {
      "inputs": [
        {
          "internalType": "address",
          "name": "_vrfCoordinator",
          "type": "address"
        }
      ],
      "name": "setCoordinator",
      "outputs": [],
      "stateMutability": "nonpayable",
      "type": "function"
    },
    {
      "inputs": [
        {
          "internalType": "address",
          "name": "to",
          "type": "address"
        }
      ],
      "name": "transferOwnership",
      "outputs": [],
      "stateMutability": "nonpayable",
      "type": "function"
    }
  ],
  "transactionHash": "0xe5aac41133d2dcafbeaadcc194d00e52891f4cd57ba254a0224fc21eda17261f",
  "args": [
    "0x8103B0A8A00be2DDC778e6e7eaa21791Cd364625",
    "16223544189755463263588270794972577161801008605145878815491107555709237374478",
    "10000000000000000",
    "15"
  ],
  "numDeployments": 1,
  "solcInputHash": "5badf5fa49cbf405122069c8f4882951",
  "bytecode": "0x6101006040527f787d74caea10b2b357790d5b5247c2f63d1d91572a9846f780606e4d953677ae600755600880546001600160501b03191666020003000186a01790553480156200004f57600080fd5b506040516200152a3803806200152a833981016040819052620000729162000219565b833380600081620000ca5760405162461bcd60e51b815260206004820152601860248201527f43616e6e6f7420736574206f776e657220746f207a65726f000000000000000060448201526064015b60405180910390fd5b600080546001600160a01b0319166001600160a01b0384811691909117909155811615620000fd57620000fd816200016e565b5050506001600160a01b038116620001285760405163d92e233d60e01b815260040160405180910390fd5b600280546001600160a01b0319166001600160a01b039283161790559390931660c05260a0919091526080526008805460ff60f01b191690554260095560e05262000266565b336001600160a01b03821603620001c85760405162461bcd60e51b815260206004820152601760248201527f43616e6e6f74207472616e7366657220746f2073656c660000000000000000006044820152606401620000c1565b600180546001600160a01b0319166001600160a01b0383811691821790925560008054604051929316917fed8889f560326eb138920d842192f0eb3dd22b4f139c87a2c57538e05bae12789190a350565b600080600080608085870312156200023057600080fd5b84516001600160a01b03811681146200024857600080fd5b60208601516040870151606090970151919890975090945092505050565b60805160a05160c05160e05161127f620002ab6000396000818161039401526106d6015260005050600061093a01526000818161025c01526104cb015261127f6000f3fe60806040526004361061014b5760003560e01c80638796ba8c116100b65780639eccacf61161006f5780639eccacf6146103d8578063a168fa89146103f8578063b0fb162f14610448578063f2fde38b1461047e578063fc2a88c31461049e578063fd6673f5146104b457600080fd5b80638796ba8c146103005780638a78da41146103205780638da5cb5b146103475780638ea981171461036557806391ad27b4146103855780639d52d89d146103b857600080fd5b8063473f1ddc11610108578063473f1ddc14610228578063535bf50f1461024d57806361728f39146102805780636e04ff0d1461029657806379ba5097146102c45780637ccfd7fc146102d957600080fd5b80630ff19fd7146101505780631fe543e31461015a57806324f746971461017a578063320229eb146101b15780634585e33b146101d0578063460e2049146101f0575b600080fd5b6101586104c9565b005b34801561016657600080fd5b50610158610175366004610eaa565b6105b6565b34801561018657600080fd5b506008546101979063ffffffff1681565b60405163ffffffff90911681526020015b60405180910390f35b3480156101bd57600080fd5b506009545b6040519081526020016101a8565b3480156101dc57600080fd5b506101586101eb366004610f29565b61060b565b3480156101fc57600080fd5b5061021061020b366004610f9b565b61067b565b6040516001600160a01b0390911681526020016101a8565b34801561023457600080fd5b50600854600160501b90046001600160a01b0316610210565b34801561025957600080fd5b507f00000000000000000000000000000000000000000000000000000000000000006101c2565b34801561028c57600080fd5b506101c260075481565b3480156102a257600080fd5b506102b66102b1366004610fca565b6106ab565b6040516101a89291906110c1565b3480156102d057600080fd5b50610158610753565b3480156102e557600080fd5b50600854610197906601000000000000900463ffffffff1681565b34801561030c57600080fd5b506101c261031b366004610f9b565b6107fd565b34801561032c57600080fd5b50600854600160f01b900460ff166040516101a891906110fa565b34801561035357600080fd5b506000546001600160a01b0316610210565b34801561037157600080fd5b50610158610380366004611122565b61081e565b34801561039157600080fd5b507f00000000000000000000000000000000000000000000000000000000000000006101c2565b3480156103c457600080fd5b506101c26103d3366004611152565b610910565b3480156103e457600080fd5b50600254610210906001600160a01b031681565b34801561040457600080fd5b50610431610413366004610f9b565b60046020526000908152604090205460ff8082169161010090041682565b6040805192151583529015156020830152016101a8565b34801561045457600080fd5b5060085461046b90640100000000900461ffff1681565b60405161ffff90911681526020016101a8565b34801561048a57600080fd5b50610158610499366004611122565b610b0d565b3480156104aa57600080fd5b506101c260065481565b3480156104c057600080fd5b506003546101c2565b7f000000000000000000000000000000000000000000000000000000000000000034101561050a5760405163ddbb36c560e01b815260040160405180910390fd5b6000600854600160f01b900460ff16600181111561052a5761052a6110e4565b1461054857604051635438580b60e01b815260040160405180910390fd5b6003805460018101825560009182527fc2575a0e9e593c00f959f8c92f12db2869c3395a3b0502d05e2516446f71f85b0180546001600160a01b0319163390811790915560405190917faa80e2a495e1f9621cef4cc4e683c91012559860b607a726567faec8d409f64791a2565b6002546001600160a01b031633146105fb5760025460405163073e64fd60e21b81523360048201526001600160a01b0390911660248201526044015b60405180910390fd5b610606838383610b21565b505050565b6000610625604051806020016040528060008152506106ab565b5090508061060657600354600854479190600160f01b900460ff166001811115610651576106516110e4565b60405163125f719f60e01b81526004810193909352602483019190915260448201526064016105f2565b60006003828154811061069057610690611174565b6000918252602090912001546001600160a01b031692915050565b600060608180600854600160f01b900460ff1660018111156106cf576106cf6110e4565b14905060007f000000000000000000000000000000000000000000000000000000000000000060095442610703919061118a565b6003549110915015154715158380156107195750825b80156107225750815b801561072b5750805b60408051808201909152600381526203078360ec1b6020820152909890975095505050505050565b6001546001600160a01b031633146107a65760405162461bcd60e51b815260206004820152601660248201527526bab9ba10313290383937b837b9b2b21037bbb732b960511b60448201526064016105f2565b60008054336001600160a01b0319808316821784556001805490911690556040516001600160a01b0390921692909183917f8be0079c531659141344cd1fd0a4f28419497f9722a3daafe3b4186f6b6457e091a350565b6005818154811061080d57600080fd5b600091825260209091200154905081565b6000546001600160a01b0316331480159061084457506002546001600160a01b03163314155b15610895573361085c6000546001600160a01b031690565b60025460405163061db9c160e01b81526001600160a01b03938416600482015291831660248301529190911660448201526064016105f2565b6001600160a01b0381166108bc5760405163d92e233d60e01b815260040160405180910390fd5b600280546001600160a01b0319166001600160a01b0383169081179091556040519081527fd1a6a14209a385a964d036e404cb5cfb71f4000cdb03c9366292430787261be69060200160405180910390a150565b60088054600160f01b60ff60f01b19821617918290556002546040805160c08101825260075481527f0000000000000000000000000000000000000000000000000000000000000000602080830191909152640100000000860461ffff168284015263ffffffff9485166060830152660100000000000090950490931660808401528051938401905283151583526000926001600160a01b0390911691639b1c385e9160a08201906109c190610c86565b8152506040518263ffffffff1660e01b81526004016109e091906111b1565b6020604051808303816000875af11580156109ff573d6000803e3d6000fd5b505050506040513d601f19601f82011682018060405250810190610a23919061120e565b6040805160608101825260008082526001602080840182815285518481528083018752858701908152878552600483529590932084518154945161ffff1990951690151561ff00191617610100941515949094029390931783559351805195965092949193610a989391850192910190610df5565b5050600580546001810182556000919091527f036b6384b5eca791c62761152d0c79bb0604c104a5fb6f4eb0703f3154bb3db0018290555060068190556040518181527f07d73ddda260dc89816ee12ce72b1a4114528f275259ef6541d5f91803c6c2849060200160405180910390a1919050565b610b15610cf7565b610b1e81610d4c565b50565b60035460009083838381610b3757610b37611174565b90506020020135610b489190611227565b9050600060038281548110610b5f57610b5f611174565b60009182526020808320919091015460088054600160501b6001600160a01b0390931692830260ff60f01b19167fff000000000000000000000000000000000000000000ffffffffffffffffffff90911617905560408051938452918301918290529151919250610bd39160039190610e40565b50426009556040516000906001600160a01b0383169047908381818185875af1925050503d8060008114610c23576040519150601f19603f3d011682016040523d82523d6000602084013e610c28565b606091505b5050905080610c4a57604051631e1873a560e11b815260040160405180910390fd5b6040516001600160a01b038316907f794919b0f484b8e90b1b817ac7f880f846fbd8a9813dee2a378e820db094e3d190600090a2505050505050565b60607f92fd13387c7fe7befbc38d303d6468778fb9731bc4583f17d92989c6fcfdeaaa82604051602401610cbf91511515815260200190565b60408051601f198184030181529190526020810180516001600160e01b03166001600160e01b03199093169290921790915292915050565b6000546001600160a01b03163314610d4a5760405162461bcd60e51b815260206004820152601660248201527527b7363c9031b0b63630b1363290313c9037bbb732b960511b60448201526064016105f2565b565b336001600160a01b03821603610da45760405162461bcd60e51b815260206004820152601760248201527f43616e6e6f74207472616e7366657220746f2073656c6600000000000000000060448201526064016105f2565b600180546001600160a01b0319166001600160a01b0383811691821790925560008054604051929316917fed8889f560326eb138920d842192f0eb3dd22b4f139c87a2c57538e05bae12789190a350565b828054828255906000526020600020908101928215610e30579160200282015b82811115610e30578251825591602001919060010190610e15565b50610e3c929150610e95565b5090565b828054828255906000526020600020908101928215610e30579160200282015b82811115610e3057825182546001600160a01b0319166001600160a01b03909116178255602090920191600190910190610e60565b5b80821115610e3c5760008155600101610e96565b600080600060408486031215610ebf57600080fd5b83359250602084013567ffffffffffffffff80821115610ede57600080fd5b818601915086601f830112610ef257600080fd5b813581811115610f0157600080fd5b8760208260051b8501011115610f1657600080fd5b6020830194508093505050509250925092565b60008060208385031215610f3c57600080fd5b823567ffffffffffffffff80821115610f5457600080fd5b818501915085601f830112610f6857600080fd5b813581811115610f7757600080fd5b866020828501011115610f8957600080fd5b60209290920196919550909350505050565b600060208284031215610fad57600080fd5b5035919050565b634e487b7160e01b600052604160045260246000fd5b600060208284031215610fdc57600080fd5b813567ffffffffffffffff80821115610ff457600080fd5b818401915084601f83011261100857600080fd5b81358181111561101a5761101a610fb4565b604051601f8201601f19908116603f0116810190838211818310171561104257611042610fb4565b8160405282815287602084870101111561105b57600080fd5b826020860160208301376000928101602001929092525095945050505050565b6000815180845260005b818110156110a157602081850181015186830182015201611085565b506000602082860101526020601f19601f83011685010191505092915050565b82151581526040602082015260006110dc604083018461107b565b949350505050565b634e487b7160e01b600052602160045260246000fd5b602081016002831061111c57634e487b7160e01b600052602160045260246000fd5b91905290565b60006020828403121561113457600080fd5b81356001600160a01b038116811461114b57600080fd5b9392505050565b60006020828403121561116457600080fd5b8135801515811461114b57600080fd5b634e487b7160e01b600052603260045260246000fd5b818103818111156111ab57634e487b7160e01b600052601160045260246000fd5b92915050565b60208152815160208201526020820151604082015261ffff60408301511660608201526000606083015163ffffffff80821660808501528060808601511660a0850152505060a083015160c0808401526110dc60e084018261107b565b60006020828403121561122057600080fd5b5051919050565b60008261124457634e487b7160e01b600052601260045260246000fd5b50069056fea26469706673582212205be7a16ba50053564156325f76266fe6fa1b4114e83b528485bf4144de8f91f064736f6c63430008130033",
  "devdoc": {
    "kind": "dev",
    "methods": {
      "checkUpkeep(bytes)": {
        "details": "check upkeep for the function  to return upkeepNeeded  true  time interval should be passed  atleast 1 player  subscription funded with link  lottery should be open"
      }
    },
    "version": 1
  },
  "userdoc": {
    "kind": "user",
    "methods": {
      "acceptOwnership()": {
        "notice": "Allows an ownership transfer to be completed by the recipient."
      },
      "constructor": {
        "notice": "HARDCODED FOR SEPOLIA COORDINATOR: 0x8103B0A8A00be2DDC778e6e7eaa21791Cd364625"
      },
      "getEnteranceFee()": {
        "notice": "view / pure functions "
      },
      "owner()": {
        "notice": "Get the current owner"
      },
      "setCoordinator(address)": {
        "notice": "Sets the VRF Coordinator addressThis method should only be callable by the coordinator or contract owner"
      },
      "transferOwnership(address)": {
        "notice": "Allows an owner to begin transferring ownership to a new address."
      }
    },
    "version": 1
  },
  "storageLayout": {
    "storage": [
      {
        "astId": 97,
        "contract": "contracts/Raffel.sol:Raffel",
        "label": "s_owner",
        "offset": 0,
        "slot": "0",
        "type": "t_address"
      },
      {
        "astId": 99,
        "contract": "contracts/Raffel.sol:Raffel",
        "label": "s_pendingOwner",
        "offset": 0,
        "slot": "1",
        "type": "t_address"
      },
      {
        "astId": 2400,
        "contract": "contracts/Raffel.sol:Raffel",
        "label": "s_vrfCoordinator",
        "offset": 0,
        "slot": "2",
        "type": "t_contract(IVRFCoordinatorV2Plus)2549"
      },
      {
        "astId": 3558,
        "contract": "contracts/Raffel.sol:Raffel",
        "label": "s_players",
        "offset": 0,
        "slot": "3",
        "type": "t_array(t_address_payable)dyn_storage"
      },
      {
        "astId": 3571,
        "contract": "contracts/Raffel.sol:Raffel",
        "label": "s_requests",
        "offset": 0,
        "slot": "4",
        "type": "t_mapping(t_uint256,t_struct(RequestStatus)3566_storage)"
      },
      {
        "astId": 3574,
        "contract": "contracts/Raffel.sol:Raffel",
        "label": "requestIds",
        "offset": 0,
        "slot": "5",
        "type": "t_array(t_uint256)dyn_storage"
      },
      {
        "astId": 3576,
        "contract": "contracts/Raffel.sol:Raffel",
        "label": "lastRequestId",
        "offset": 0,
        "slot": "6",
        "type": "t_uint256"
      },
      {
        "astId": 3579,
        "contract": "contracts/Raffel.sol:Raffel",
        "label": "keyHash",
        "offset": 0,
        "slot": "7",
        "type": "t_bytes32"
      },
      {
        "astId": 3582,
        "contract": "contracts/Raffel.sol:Raffel",
        "label": "callbackGasLimit",
        "offset": 0,
        "slot": "8",
        "type": "t_uint32"
      },
      {
        "astId": 3585,
        "contract": "contracts/Raffel.sol:Raffel",
        "label": "requestConfirmations",
        "offset": 4,
        "slot": "8",
        "type": "t_uint16"
      },
      {
        "astId": 3588,
        "contract": "contracts/Raffel.sol:Raffel",
        "label": "numWords",
        "offset": 6,
        "slot": "8",
        "type": "t_uint32"
      },
      {
        "astId": 3595,
        "contract": "contracts/Raffel.sol:Raffel",
        "label": "s_recentWinner",
        "offset": 10,
        "slot": "8",
        "type": "t_address"
      },
      {
        "astId": 3598,
        "contract": "contracts/Raffel.sol:Raffel",
        "label": "s_raffelState",
        "offset": 30,
        "slot": "8",
        "type": "t_enum(RaffelState)3553"
      },
      {
        "astId": 3600,
        "contract": "contracts/Raffel.sol:Raffel",
        "label": "s_lastTimeStamp",
        "offset": 0,
        "slot": "9",
        "type": "t_uint256"
      }
    ],
    "types": {
      "t_address": {
        "encoding": "inplace",
        "label": "address",
        "numberOfBytes": "20"
      },
      "t_address_payable": {
        "encoding": "inplace",
        "label": "address payable",
        "numberOfBytes": "20"
      },
      "t_array(t_address_payable)dyn_storage": {
        "base": "t_address_payable",
        "encoding": "dynamic_array",
        "label": "address payable[]",
        "numberOfBytes": "32"
      },
      "t_array(t_uint256)dyn_storage": {
        "base": "t_uint256",
        "encoding": "dynamic_array",
        "label": "uint256[]",
        "numberOfBytes": "32"
      },
      "t_bool": {
        "encoding": "inplace",
        "label": "bool",
        "numberOfBytes": "1"
      },
      "t_bytes32": {
        "encoding": "inplace",
        "label": "bytes32",
        "numberOfBytes": "32"
      },
      "t_contract(IVRFCoordinatorV2Plus)2549": {
        "encoding": "inplace",
        "label": "contract IVRFCoordinatorV2Plus",
        "numberOfBytes": "20"
      },
      "t_enum(RaffelState)3553": {
        "encoding": "inplace",
        "label": "enum Raffel.RaffelState",
        "numberOfBytes": "1"
      },
      "t_mapping(t_uint256,t_struct(RequestStatus)3566_storage)": {
        "encoding": "mapping",
        "key": "t_uint256",
        "label": "mapping(uint256 => struct Raffel.RequestStatus)",
        "numberOfBytes": "32",
        "value": "t_struct(RequestStatus)3566_storage"
      },
      "t_struct(RequestStatus)3566_storage": {
        "encoding": "inplace",
        "label": "struct Raffel.RequestStatus",
        "members": [
          {
            "astId": 3560,
            "contract": "contracts/Raffel.sol:Raffel",
            "label": "fulfilled",
            "offset": 0,
            "slot": "0",
            "type": "t_bool"
          },
          {
            "astId": 3562,
            "contract": "contracts/Raffel.sol:Raffel",
            "label": "exists",
            "offset": 1,
            "slot": "0",
            "type": "t_bool"
          },
          {
            "astId": 3565,
            "contract": "contracts/Raffel.sol:Raffel",
            "label": "randomWords",
            "offset": 0,
            "slot": "1",
            "type": "t_array(t_uint256)dyn_storage"
          }
        ],
        "numberOfBytes": "64"
      },
      "t_uint16": {
        "encoding": "inplace",
        "label": "uint16",
        "numberOfBytes": "2"
      },
      "t_uint256": {
        "encoding": "inplace",
        "label": "uint256",
        "numberOfBytes": "32"
      },
      "t_uint32": {
        "encoding": "inplace",
        "label": "uint32",
        "numberOfBytes": "4"
      }
    }
  }
}